{
  "contractName": "Governance",
  "abi": [
    {
      "inputs": [],
      "stateMutability": "nonpayable",
      "type": "constructor"
    },
    {
      "inputs": [],
      "name": "_activeGovernance",
      "outputs": [
        {
          "internalType": "contract Token",
          "name": "",
          "type": "address"
        }
      ],
      "stateMutability": "view",
      "type": "function",
      "constant": true
    },
    {
      "inputs": [],
      "name": "getGovernance",
      "outputs": [
        {
          "internalType": "contract Token",
          "name": "",
          "type": "address"
        }
      ],
      "stateMutability": "view",
      "type": "function",
      "constant": true
    },
    {
      "inputs": [],
      "name": "getGovernanceStatus",
      "outputs": [
        {
          "internalType": "bool",
          "name": "",
          "type": "bool"
        }
      ],
      "stateMutability": "view",
      "type": "function",
      "constant": true
    },
    {
      "inputs": [],
      "name": "getToken",
      "outputs": [
        {
          "internalType": "contract ERC20",
          "name": "",
          "type": "address"
        }
      ],
      "stateMutability": "view",
      "type": "function",
      "constant": true
    }
  ],
  "bytecode": "0x60806040523480156200001157600080fd5b5060007385a1339bc34e33a91048b76197e46361fc6f9a2b6801158e460913d000006040516200004190620000ed565b6200004e929190620001dd565b604051809103906000f0801580156200006b573d6000803e3d6000fd5b509050806040516200007d90620000fb565b620000899190620001c0565b604051809103906000f080158015620000a6573d6000803e3d6000fd5b506000806101000a81548173ffffffffffffffffffffffffffffffffffffffff021916908373ffffffffffffffffffffffffffffffffffffffff16021790555050620002bf565b6119b3806200072783390190565b61080980620020da83390190565b620001148162000245565b82525050565b620001258162000283565b82525050565b6200013681620002ab565b82525050565b60006200014b60038362000234565b91507f6a616f00000000000000000000000000000000000000000000000000000000006000830152602082019050919050565b60006200018d60028362000234565b91507f6a760000000000000000000000000000000000000000000000000000000000006000830152602082019050919050565b6000602082019050620001d760008301846200011a565b92915050565b60006080820190508181036000830152620001f8816200013c565b905081810360208301526200020d816200017e565b90506200021e604083018562000109565b6200022d60608301846200012b565b9392505050565b600082825260208201905092915050565b6000620002528262000259565b9050919050565b600073ffffffffffffffffffffffffffffffffffffffff82169050919050565b6000819050919050565b6000620002908262000297565b9050919050565b6000620002a48262000259565b9050919050565b6000620002b88262000279565b9050919050565b61045880620002cf6000396000f3fe608060405234801561001057600080fd5b506004361061004c5760003560e01c806321df0da714610051578063289b3c0d1461006f5780634a6922041461008d578063e8776c26146100ab575b600080fd5b6100596100c9565b6040516100669190610326565b60405180910390f35b61007761016f565b6040516100849190610341565b60405180910390f35b610095610198565b6040516100a2919061030b565b60405180910390f35b6100b361023e565b6040516100c09190610341565b60405180910390f35b60008060009054906101000a900473ffffffffffffffffffffffffffffffffffffffff1673ffffffffffffffffffffffffffffffffffffffff166321df0da76040518163ffffffff1660e01b815260040160206040518083038186803b15801561013257600080fd5b505afa158015610146573d6000803e3d6000fd5b505050506040513d601f19601f8201168201806040525081019061016a91906102b5565b905090565b60008060009054906101000a900473ffffffffffffffffffffffffffffffffffffffff16905090565b60008060009054906101000a900473ffffffffffffffffffffffffffffffffffffffff1673ffffffffffffffffffffffffffffffffffffffff16634e69d5606040518163ffffffff1660e01b815260040160206040518083038186803b15801561020157600080fd5b505afa158015610215573d6000803e3d6000fd5b505050506040513d601f19601f82011682018060405250810190610239919061028c565b905090565b60008054906101000a900473ffffffffffffffffffffffffffffffffffffffff1681565b600081519050610271816103f4565b92915050565b6000815190506102868161040b565b92915050565b60006020828403121561029e57600080fd5b60006102ac84828501610262565b91505092915050565b6000602082840312156102c757600080fd5b60006102d584828501610277565b91505092915050565b6102e78161036e565b82525050565b6102f6816103ac565b82525050565b610305816103d0565b82525050565b600060208201905061032060008301846102de565b92915050565b600060208201905061033b60008301846102ed565b92915050565b600060208201905061035660008301846102fc565b92915050565b60006103678261038c565b9050919050565b60008115159050919050565b60006103858261035c565b9050919050565b600073ffffffffffffffffffffffffffffffffffffffff82169050919050565b60006103b7826103be565b9050919050565b60006103c98261038c565b9050919050565b60006103db826103e2565b9050919050565b60006103ed8261038c565b9050919050565b6103fd8161036e565b811461040857600080fd5b50565b6104148161037a565b811461041f57600080fd5b5056fea26469706673582212208a5bd8f7f72bbb54176c7e2eacb475d96a1fd183e3c03fb7d7dcc1d9ec7ba76064736f6c634300080000336080604052604051620019b3380380620019b383398181016040528101906200002991906200034e565b8383816003908051906020019062000043929190620001fe565b5080600490805190602001906200005c929190620001fe565b5050506200007182826200007b60201b60201c565b50505050620006be565b600073ffffffffffffffffffffffffffffffffffffffff168273ffffffffffffffffffffffffffffffffffffffff161415620000ee576040517f08c379a0000000000000000000000000000000000000000000000000000000008152600401620000e5906200043f565b60405180910390fd5b6200010260008383620001f460201b60201c565b8060026000828254620001169190620004f6565b92505081905550806000808473ffffffffffffffffffffffffffffffffffffffff1673ffffffffffffffffffffffffffffffffffffffff16815260200190815260200160002060008282546200016d9190620004f6565b925050819055508173ffffffffffffffffffffffffffffffffffffffff16600073ffffffffffffffffffffffffffffffffffffffff167fddf252ad1be2c89b69c2b068fc378daa952ba7f163c4a11628f55a4df523b3ef83604051620001d4919062000461565b60405180910390a3620001f060008383620001f960201b60201c565b5050565b505050565b505050565b8280546200020c90620005c7565b90600052602060002090601f0160209004810192826200023057600085556200027c565b82601f106200024b57805160ff19168380011785556200027c565b828001600101855582156200027c579182015b828111156200027b5782518255916020019190600101906200025e565b5b5090506200028b91906200028f565b5090565b5b80821115620002aa57600081600090555060010162000290565b5090565b6000620002c5620002bf84620004b2565b6200047e565b905082815260208101848484011115620002de57600080fd5b620002eb84828562000591565b509392505050565b60008151905062000304816200068a565b92915050565b600082601f8301126200031c57600080fd5b81516200032e848260208601620002ae565b91505092915050565b6000815190506200034881620006a4565b92915050565b600080600080608085870312156200036557600080fd5b600085015167ffffffffffffffff8111156200038057600080fd5b6200038e878288016200030a565b945050602085015167ffffffffffffffff811115620003ac57600080fd5b620003ba878288016200030a565b9350506040620003cd87828801620002f3565b9250506060620003e08782880162000337565b91505092959194509250565b6000620003fb601f83620004e5565b91507f45524332303a206d696e7420746f20746865207a65726f2061646472657373006000830152602082019050919050565b620004398162000587565b82525050565b600060208201905081810360008301526200045a81620003ec565b9050919050565b60006020820190506200047860008301846200042e565b92915050565b6000604051905081810181811067ffffffffffffffff82111715620004a857620004a76200065b565b5b8060405250919050565b600067ffffffffffffffff821115620004d057620004cf6200065b565b5b601f19601f8301169050602081019050919050565b600082825260208201905092915050565b6000620005038262000587565b9150620005108362000587565b9250827fffffffffffffffffffffffffffffffffffffffffffffffffffffffffffffffff03821115620005485762000547620005fd565b5b828201905092915050565b6000620005608262000567565b9050919050565b600073ffffffffffffffffffffffffffffffffffffffff82169050919050565b6000819050919050565b60005b83811015620005b157808201518184015260208101905062000594565b83811115620005c1576000848401525b50505050565b60006002820490506001821680620005e057607f821691505b60208210811415620005f757620005f66200062c565b5b50919050565b7f4e487b7100000000000000000000000000000000000000000000000000000000600052601160045260246000fd5b7f4e487b7100000000000000000000000000000000000000000000000000000000600052602260045260246000fd5b7f4e487b7100000000000000000000000000000000000000000000000000000000600052604160045260246000fd5b620006958162000553565b8114620006a157600080fd5b50565b620006af8162000587565b8114620006bb57600080fd5b50565b6112e580620006ce6000396000f3fe608060405234801561001057600080fd5b50600436106100a95760003560e01c80633950935111610071578063395093511461016857806370a082311461019857806395d89b41146101c8578063a457c2d7146101e6578063a9059cbb14610216578063dd62ed3e14610246576100a9565b806306fdde03146100ae578063095ea7b3146100cc57806318160ddd146100fc57806323b872dd1461011a578063313ce5671461014a575b600080fd5b6100b6610276565b6040516100c39190610fae565b60405180910390f35b6100e660048036038101906100e19190610c4d565b610308565b6040516100f39190610f93565b60405180910390f35b61010461032b565b60405161011191906110b0565b60405180910390f35b610134600480360381019061012f9190610bfe565b610335565b6040516101419190610f93565b60405180910390f35b610152610364565b60405161015f91906110cb565b60405180910390f35b610182600480360381019061017d9190610c4d565b61036d565b60405161018f9190610f93565b60405180910390f35b6101b260048036038101906101ad9190610b99565b610417565b6040516101bf91906110b0565b60405180910390f35b6101d061045f565b6040516101dd9190610fae565b60405180910390f35b61020060048036038101906101fb9190610c4d565b6104f1565b60405161020d9190610f93565b60405180910390f35b610230600480360381019061022b9190610c4d565b6105db565b60405161023d9190610f93565b60405180910390f35b610260600480360381019061025b9190610bc2565b6105fe565b60405161026d91906110b0565b60405180910390f35b606060038054610285906111e0565b80601f01602080910402602001604051908101604052809291908181526020018280546102b1906111e0565b80156102fe5780601f106102d3576101008083540402835291602001916102fe565b820191906000526020600020905b8154815290600101906020018083116102e157829003601f168201915b5050505050905090565b600080610313610685565b905061032081858561068d565b600191505092915050565b6000600254905090565b600080610340610685565b905061034d858285610858565b6103588585856108e4565b60019150509392505050565b60006012905090565b600080610378610685565b905061040c818585600160008673ffffffffffffffffffffffffffffffffffffffff1673ffffffffffffffffffffffffffffffffffffffff16815260200190815260200160002060008973ffffffffffffffffffffffffffffffffffffffff1673ffffffffffffffffffffffffffffffffffffffff168152602001908152602001600020546104079190611102565b61068d565b600191505092915050565b60008060008373ffffffffffffffffffffffffffffffffffffffff1673ffffffffffffffffffffffffffffffffffffffff168152602001908152602001600020549050919050565b60606004805461046e906111e0565b80601f016020809104026020016040519081016040528092919081815260200182805461049a906111e0565b80156104e75780601f106104bc576101008083540402835291602001916104e7565b820191906000526020600020905b8154815290600101906020018083116104ca57829003601f168201915b5050505050905090565b6000806104fc610685565b90506000600160008373ffffffffffffffffffffffffffffffffffffffff1673ffffffffffffffffffffffffffffffffffffffff16815260200190815260200160002060008673ffffffffffffffffffffffffffffffffffffffff1673ffffffffffffffffffffffffffffffffffffffff168152602001908152602001600020549050838110156105c2576040517f08c379a00000000000000000000000000000000000000000000000000000000081526004016105b990611090565b60405180910390fd5b6105cf828686840361068d565b60019250505092915050565b6000806105e6610685565b90506105f38185856108e4565b600191505092915050565b6000600160008473ffffffffffffffffffffffffffffffffffffffff1673ffffffffffffffffffffffffffffffffffffffff16815260200190815260200160002060008373ffffffffffffffffffffffffffffffffffffffff1673ffffffffffffffffffffffffffffffffffffffff16815260200190815260200160002054905092915050565b600033905090565b600073ffffffffffffffffffffffffffffffffffffffff168373ffffffffffffffffffffffffffffffffffffffff1614156106fd576040517f08c379a00000000000000000000000000000000000000000000000000000000081526004016106f490611070565b60405180910390fd5b600073ffffffffffffffffffffffffffffffffffffffff168273ffffffffffffffffffffffffffffffffffffffff16141561076d576040517f08c379a000000000000000000000000000000000000000000000000000000000815260040161076490610ff0565b60405180910390fd5b80600160008573ffffffffffffffffffffffffffffffffffffffff1673ffffffffffffffffffffffffffffffffffffffff16815260200190815260200160002060008473ffffffffffffffffffffffffffffffffffffffff1673ffffffffffffffffffffffffffffffffffffffff168152602001908152602001600020819055508173ffffffffffffffffffffffffffffffffffffffff168373ffffffffffffffffffffffffffffffffffffffff167f8c5be1e5ebec7d5bd14f71427d1e84f3dd0314c0f7b2291e5b200ac8c7c3b9258360405161084b91906110b0565b60405180910390a3505050565b600061086484846105fe565b90507fffffffffffffffffffffffffffffffffffffffffffffffffffffffffffffffff81146108de57818110156108d0576040517f08c379a00000000000000000000000000000000000000000000000000000000081526004016108c790611010565b60405180910390fd5b6108dd848484840361068d565b5b50505050565b600073ffffffffffffffffffffffffffffffffffffffff168373ffffffffffffffffffffffffffffffffffffffff161415610954576040517f08c379a000000000000000000000000000000000000000000000000000000000815260040161094b90611050565b60405180910390fd5b600073ffffffffffffffffffffffffffffffffffffffff168273ffffffffffffffffffffffffffffffffffffffff1614156109c4576040517f08c379a00000000000000000000000000000000000000000000000000000000081526004016109bb90610fd0565b60405180910390fd5b6109cf838383610b65565b60008060008573ffffffffffffffffffffffffffffffffffffffff1673ffffffffffffffffffffffffffffffffffffffff16815260200190815260200160002054905081811015610a55576040517f08c379a0000000000000000000000000000000000000000000000000000000008152600401610a4c90611030565b60405180910390fd5b8181036000808673ffffffffffffffffffffffffffffffffffffffff1673ffffffffffffffffffffffffffffffffffffffff16815260200190815260200160002081905550816000808573ffffffffffffffffffffffffffffffffffffffff1673ffffffffffffffffffffffffffffffffffffffff1681526020019081526020016000206000828254610ae89190611102565b925050819055508273ffffffffffffffffffffffffffffffffffffffff168473ffffffffffffffffffffffffffffffffffffffff167fddf252ad1be2c89b69c2b068fc378daa952ba7f163c4a11628f55a4df523b3ef84604051610b4c91906110b0565b60405180910390a3610b5f848484610b6a565b50505050565b505050565b505050565b600081359050610b7e81611281565b92915050565b600081359050610b9381611298565b92915050565b600060208284031215610bab57600080fd5b6000610bb984828501610b6f565b91505092915050565b60008060408385031215610bd557600080fd5b6000610be385828601610b6f565b9250506020610bf485828601610b6f565b9150509250929050565b600080600060608486031215610c1357600080fd5b6000610c2186828701610b6f565b9350506020610c3286828701610b6f565b9250506040610c4386828701610b84565b9150509250925092565b60008060408385031215610c6057600080fd5b6000610c6e85828601610b6f565b9250506020610c7f85828601610b84565b9150509250929050565b610c928161116a565b82525050565b6000610ca3826110e6565b610cad81856110f1565b9350610cbd8185602086016111ad565b610cc681611270565b840191505092915050565b6000610cde6023836110f1565b91507f45524332303a207472616e7366657220746f20746865207a65726f206164647260008301527f65737300000000000000000000000000000000000000000000000000000000006020830152604082019050919050565b6000610d446022836110f1565b91507f45524332303a20617070726f766520746f20746865207a65726f20616464726560008301527f73730000000000000000000000000000000000000000000000000000000000006020830152604082019050919050565b6000610daa601d836110f1565b91507f45524332303a20696e73756666696369656e7420616c6c6f77616e63650000006000830152602082019050919050565b6000610dea6026836110f1565b91507f45524332303a207472616e7366657220616d6f756e742065786365656473206260008301527f616c616e636500000000000000000000000000000000000000000000000000006020830152604082019050919050565b6000610e506025836110f1565b91507f45524332303a207472616e736665722066726f6d20746865207a65726f20616460008301527f64726573730000000000000000000000000000000000000000000000000000006020830152604082019050919050565b6000610eb66024836110f1565b91507f45524332303a20617070726f76652066726f6d20746865207a65726f2061646460008301527f72657373000000000000000000000000000000000000000000000000000000006020830152604082019050919050565b6000610f1c6025836110f1565b91507f45524332303a2064656372656173656420616c6c6f77616e63652062656c6f7760008301527f207a65726f0000000000000000000000000000000000000000000000000000006020830152604082019050919050565b610f7e81611196565b82525050565b610f8d816111a0565b82525050565b6000602082019050610fa86000830184610c89565b92915050565b60006020820190508181036000830152610fc88184610c98565b905092915050565b60006020820190508181036000830152610fe981610cd1565b9050919050565b6000602082019050818103600083015261100981610d37565b9050919050565b6000602082019050818103600083015261102981610d9d565b9050919050565b6000602082019050818103600083015261104981610ddd565b9050919050565b6000602082019050818103600083015261106981610e43565b9050919050565b6000602082019050818103600083015261108981610ea9565b9050919050565b600060208201905081810360008301526110a981610f0f565b9050919050565b60006020820190506110c56000830184610f75565b92915050565b60006020820190506110e06000830184610f84565b92915050565b600081519050919050565b600082825260208201905092915050565b600061110d82611196565b915061111883611196565b9250827fffffffffffffffffffffffffffffffffffffffffffffffffffffffffffffffff0382111561114d5761114c611212565b5b828201905092915050565b600061116382611176565b9050919050565b60008115159050919050565b600073ffffffffffffffffffffffffffffffffffffffff82169050919050565b6000819050919050565b600060ff82169050919050565b60005b838110156111cb5780820151818401526020810190506111b0565b838111156111da576000848401525b50505050565b600060028204905060018216806111f857607f821691505b6020821081141561120c5761120b611241565b5b50919050565b7f4e487b7100000000000000000000000000000000000000000000000000000000600052601160045260246000fd5b7f4e487b7100000000000000000000000000000000000000000000000000000000600052602260045260246000fd5b6000601f19601f8301169050919050565b61128a81611158565b811461129557600080fd5b50565b6112a181611196565b81146112ac57600080fd5b5056fea2646970667358221220af0aff054fb6f6d5e4f2dc26b3d4b673b6a822428add0d7fc792ce643d5475b964736f6c63430008000033608060405234801561001057600080fd5b506040516108093803806108098339818101604052810190610032919061008d565b806000806101000a81548173ffffffffffffffffffffffffffffffffffffffff021916908373ffffffffffffffffffffffffffffffffffffffff16021790555050610111565b600081519050610087816100fa565b92915050565b60006020828403121561009f57600080fd5b60006100ad84828501610078565b91505092915050565b60006100c1826100da565b9050919050565b60006100d3826100b6565b9050919050565b600073ffffffffffffffffffffffffffffffffffffffff82169050919050565b610103816100c8565b811461010e57600080fd5b50565b6106e9806101206000396000f3fe608060405234801561001057600080fd5b50600436106100885760003560e01c8063632a9a521161005b578063632a9a5214610117578063b922394614610121578063d082e3811461012b578063ecd0c0c31461014957610088565b806309eef43e1461008d57806321df0da7146100bd5780634d50ba3a146100db5780634e69d560146100f9575b600080fd5b6100a760048036038101906100a29190610451565b610167565b6040516100b491906104fa565b60405180910390f35b6100c56101bd565b6040516100d29190610515565b60405180910390f35b6100e36101e6565b6040516100f09190610530565b60405180910390f35b6101016101ec565b60405161010e91906104fa565b60405180910390f35b61011f610203565b005b6101296103a7565b005b6101336103fd565b6040516101409190610530565b60405180910390f35b610151610403565b60405161015e9190610515565b60405180910390f35b6000600360008373ffffffffffffffffffffffffffffffffffffffff1673ffffffffffffffffffffffffffffffffffffffff16815260200190815260200160002060009054906101000a900460ff169050919050565b60008060009054906101000a900473ffffffffffffffffffffffffffffffffffffffff16905090565b60015481565b6000600460009054906101000a900460ff16905090565b600460009054906101000a900460ff161561021d57600080fd5b600360003373ffffffffffffffffffffffffffffffffffffffff1673ffffffffffffffffffffffffffffffffffffffff16815260200190815260200160002060009054906101000a900460ff161561027457600080fd5b6001600360003373ffffffffffffffffffffffffffffffffffffffff1673ffffffffffffffffffffffffffffffffffffffff16815260200190815260200160002060006101000a81548160ff021916908315150217905550600160008154809291906102df9061060d565b919050555060008054906101000a900473ffffffffffffffffffffffffffffffffffffffff1673ffffffffffffffffffffffffffffffffffffffff166370a08231336040518263ffffffff1660e01b815260040161033d91906104df565b60206040518083038186803b15801561035557600080fd5b505afa158015610369573d6000803e3d6000fd5b505050506040513d601f19601f8201168201806040525081019061038d919061047a565b6002600082825461039e919061054b565b92505081905550565b600460009054906101000a900460ff16156103c157600080fd5b6001805410156103d057600080fd5b600160025410156103e057600080fd5b6001600460006101000a81548160ff021916908315150217905550565b60025481565b60008054906101000a900473ffffffffffffffffffffffffffffffffffffffff1681565b60008135905061043681610685565b92915050565b60008151905061044b8161069c565b92915050565b60006020828403121561046357600080fd5b600061047184828501610427565b91505092915050565b60006020828403121561048c57600080fd5b600061049a8482850161043c565b91505092915050565b6104ac816105a1565b82525050565b6104bb816105b3565b82525050565b6104ca816105e9565b82525050565b6104d9816105df565b82525050565b60006020820190506104f460008301846104a3565b92915050565b600060208201905061050f60008301846104b2565b92915050565b600060208201905061052a60008301846104c1565b92915050565b600060208201905061054560008301846104d0565b92915050565b6000610556826105df565b9150610561836105df565b9250827fffffffffffffffffffffffffffffffffffffffffffffffffffffffffffffffff0382111561059657610595610656565b5b828201905092915050565b60006105ac826105bf565b9050919050565b60008115159050919050565b600073ffffffffffffffffffffffffffffffffffffffff82169050919050565b6000819050919050565b60006105f4826105fb565b9050919050565b6000610606826105bf565b9050919050565b6000610618826105df565b91507fffffffffffffffffffffffffffffffffffffffffffffffffffffffffffffffff82141561064b5761064a610656565b5b600182019050919050565b7f4e487b7100000000000000000000000000000000000000000000000000000000600052601160045260246000fd5b61068e816105a1565b811461069957600080fd5b50565b6106a5816105df565b81146106b057600080fd5b5056fea2646970667358221220ba391fb61cc2daa43501d272cf6d3dfd97bbc3dedf9ceeaacfc1987a8d65ab7264736f6c63430008000033",
  "immutableReferences": {},
  "source": "pragma solidity >=0.4.22 <0.9.0;\n\nimport \"./Token.sol\";\nimport \"./Coin.sol\";\nimport \"@openzeppelin/contracts/token/ERC20/ERC20.sol\";\n\ncontract Governance{\n\n    Token public _activeGovernance;\n\n    constructor() {\n        ERC20 curToken = new Coin(\"jao\", \"jv\", 0x85A1339bC34E33a91048B76197e46361Fc6F9A2b, 20000000000000000000);\n        _activeGovernance = new Token(curToken);\n    }\n\n    function getGovernance() public view returns(Token) {\n        return _activeGovernance;\n    }\n\n    function getGovernanceStatus() public view returns(bool) {\n        return _activeGovernance.getStatus();\n    }\n\n    function getToken() public view returns(ERC20) {\n        return _activeGovernance.getToken();\n    }\n\n}",
  "sourcePath": "/Users/joaovictorpazotti/Desktop/Truffle-Blockchain/src/contracts/Governance.sol",
  "compiler": {
    "name": "solc",
    "version": "0.8.0+commit.c7dfd78e.Emscripten.clang"
  },
  "schemaVersion": "3.4.7",
  "updatedAt": "2022-04-20T13:47:58.361Z",
  "networkType": "ethereum",
  "devdoc": {
    "kind": "dev",
    "methods": {},
    "version": 1
  },
  "userdoc": {
    "kind": "user",
    "methods": {},
    "version": 1
  }
}