{
  "contractName": "Token",
  "abi": [
    {
      "inputs": [
        {
          "internalType": "contract ERC20",
          "name": "tokenCoin",
          "type": "address"
        }
      ],
      "stateMutability": "nonpayable",
      "type": "constructor"
    },
    {
      "inputs": [],
      "name": "_token",
      "outputs": [
        {
          "internalType": "contract ERC20",
          "name": "",
          "type": "address"
        }
      ],
      "stateMutability": "view",
      "type": "function"
    },
    {
      "inputs": [],
      "name": "tokenCounter",
      "outputs": [
        {
          "internalType": "uint256",
          "name": "",
          "type": "uint256"
        }
      ],
      "stateMutability": "view",
      "type": "function"
    },
    {
      "inputs": [],
      "name": "voterCounter",
      "outputs": [
        {
          "internalType": "uint256",
          "name": "",
          "type": "uint256"
        }
      ],
      "stateMutability": "view",
      "type": "function"
    },
    {
      "inputs": [],
      "name": "vote",
      "outputs": [],
      "stateMutability": "nonpayable",
      "type": "function"
    },
    {
      "inputs": [],
      "name": "endVote",
      "outputs": [],
      "stateMutability": "nonpayable",
      "type": "function"
    },
    {
      "inputs": [],
      "name": "getStatus",
      "outputs": [
        {
          "internalType": "bool",
          "name": "",
          "type": "bool"
        }
      ],
      "stateMutability": "view",
      "type": "function"
    },
    {
      "inputs": [],
      "name": "getToken",
      "outputs": [
        {
          "internalType": "contract ERC20",
          "name": "",
          "type": "address"
        }
      ],
      "stateMutability": "view",
      "type": "function"
    },
    {
      "inputs": [
        {
          "internalType": "address",
          "name": "acc",
          "type": "address"
        }
      ],
      "name": "hasVoted",
      "outputs": [
        {
          "internalType": "bool",
          "name": "",
          "type": "bool"
        }
      ],
      "stateMutability": "view",
      "type": "function"
    }
  ],
  "bytecode": "0x608060405234801561001057600080fd5b506040516108093803806108098339818101604052810190610032919061008d565b806000806101000a81548173ffffffffffffffffffffffffffffffffffffffff021916908373ffffffffffffffffffffffffffffffffffffffff16021790555050610111565b600081519050610087816100fa565b92915050565b60006020828403121561009f57600080fd5b60006100ad84828501610078565b91505092915050565b60006100c1826100da565b9050919050565b60006100d3826100b6565b9050919050565b600073ffffffffffffffffffffffffffffffffffffffff82169050919050565b610103816100c8565b811461010e57600080fd5b50565b6106e9806101206000396000f3fe608060405234801561001057600080fd5b50600436106100885760003560e01c8063632a9a521161005b578063632a9a5214610117578063b922394614610121578063d082e3811461012b578063ecd0c0c31461014957610088565b806309eef43e1461008d57806321df0da7146100bd5780634d50ba3a146100db5780634e69d560146100f9575b600080fd5b6100a760048036038101906100a29190610451565b610167565b6040516100b491906104fa565b60405180910390f35b6100c56101bd565b6040516100d29190610515565b60405180910390f35b6100e36101e6565b6040516100f09190610530565b60405180910390f35b6101016101ec565b60405161010e91906104fa565b60405180910390f35b61011f610203565b005b6101296103a7565b005b6101336103fd565b6040516101409190610530565b60405180910390f35b610151610403565b60405161015e9190610515565b60405180910390f35b6000600360008373ffffffffffffffffffffffffffffffffffffffff1673ffffffffffffffffffffffffffffffffffffffff16815260200190815260200160002060009054906101000a900460ff169050919050565b60008060009054906101000a900473ffffffffffffffffffffffffffffffffffffffff16905090565b60015481565b6000600460009054906101000a900460ff16905090565b600460009054906101000a900460ff161561021d57600080fd5b600360003373ffffffffffffffffffffffffffffffffffffffff1673ffffffffffffffffffffffffffffffffffffffff16815260200190815260200160002060009054906101000a900460ff161561027457600080fd5b6001600360003373ffffffffffffffffffffffffffffffffffffffff1673ffffffffffffffffffffffffffffffffffffffff16815260200190815260200160002060006101000a81548160ff021916908315150217905550600160008154809291906102df9061060d565b919050555060008054906101000a900473ffffffffffffffffffffffffffffffffffffffff1673ffffffffffffffffffffffffffffffffffffffff166370a08231336040518263ffffffff1660e01b815260040161033d91906104df565b60206040518083038186803b15801561035557600080fd5b505afa158015610369573d6000803e3d6000fd5b505050506040513d601f19601f8201168201806040525081019061038d919061047a565b6002600082825461039e919061054b565b92505081905550565b600460009054906101000a900460ff16156103c157600080fd5b6001805410156103d057600080fd5b600160025410156103e057600080fd5b6001600460006101000a81548160ff021916908315150217905550565b60025481565b60008054906101000a900473ffffffffffffffffffffffffffffffffffffffff1681565b60008135905061043681610685565b92915050565b60008151905061044b8161069c565b92915050565b60006020828403121561046357600080fd5b600061047184828501610427565b91505092915050565b60006020828403121561048c57600080fd5b600061049a8482850161043c565b91505092915050565b6104ac816105a1565b82525050565b6104bb816105b3565b82525050565b6104ca816105e9565b82525050565b6104d9816105df565b82525050565b60006020820190506104f460008301846104a3565b92915050565b600060208201905061050f60008301846104b2565b92915050565b600060208201905061052a60008301846104c1565b92915050565b600060208201905061054560008301846104d0565b92915050565b6000610556826105df565b9150610561836105df565b9250827fffffffffffffffffffffffffffffffffffffffffffffffffffffffffffffffff0382111561059657610595610656565b5b828201905092915050565b60006105ac826105bf565b9050919050565b60008115159050919050565b600073ffffffffffffffffffffffffffffffffffffffff82169050919050565b6000819050919050565b60006105f4826105fb565b9050919050565b6000610606826105bf565b9050919050565b6000610618826105df565b91507fffffffffffffffffffffffffffffffffffffffffffffffffffffffffffffffff82141561064b5761064a610656565b5b600182019050919050565b7f4e487b7100000000000000000000000000000000000000000000000000000000600052601160045260246000fd5b61068e816105a1565b811461069957600080fd5b50565b6106a5816105df565b81146106b057600080fd5b5056fea2646970667358221220ba391fb61cc2daa43501d272cf6d3dfd97bbc3dedf9ceeaacfc1987a8d65ab7264736f6c63430008000033",
  "immutableReferences": {},
  "source": "pragma solidity ^0.8.0;\nimport \"@openzeppelin/contracts/token/ERC20/ERC20.sol\";\nimport \"./Coin.sol\";\n\n\ncontract Token{\n\n    ERC20 public _token;\n    uint256 public voterCounter;\n    uint256 public tokenCounter;\n    mapping(address => bool) whoVoted;\n    bool private _finalized;\n\n    constructor(ERC20 tokenCoin) {\n        _token = tokenCoin;\n    }\n\n    function vote() public {\n        require(!_finalized);\n        require(!whoVoted[msg.sender]);\n        whoVoted[msg.sender] = true;\n        voterCounter++;\n        tokenCounter += _token.balanceOf(msg.sender);\n    }\n\n    function endVote() public {\n        require(!_finalized);\n        require(voterCounter >= 1);\n        require(tokenCounter >= 1);\n        _finalized = true;\n    }\n\n    function getStatus() public view returns(bool) {\n        return _finalized;\n    }\n\n    function getToken() public view returns(ERC20) {\n        return _token;\n    }\n\n    function hasVoted(address acc) public view returns(bool) {\n        return whoVoted[acc];\n    }\n\n\n}",
  "sourcePath": "/Users/joaovictorpazotti/Desktop/Truffle-Blockchain/src/contracts/Token.sol",
  "compiler": {
    "name": "solc",
    "version": "0.8.0+commit.c7dfd78e.Emscripten.clang"
  },
  "schemaVersion": "3.4.7",
  "updatedAt": "2022-04-20T13:47:43.959Z",
  "devdoc": {
    "kind": "dev",
    "methods": {},
    "version": 1
  },
  "userdoc": {
    "kind": "user",
    "methods": {},
    "version": 1
  }
}