{
  "contractName": "PurchaseAgreement",
  "abi": [
    {
      "inputs": [],
      "stateMutability": "payable",
      "type": "constructor"
    },
    {
      "inputs": [],
      "name": "InvalidState",
      "type": "error"
    },
    {
      "inputs": [],
      "name": "OnlyBuyer",
      "type": "error"
    },
    {
      "inputs": [],
      "name": "OnlySeller",
      "type": "error"
    },
    {
      "inputs": [],
      "name": "buyer",
      "outputs": [
        {
          "internalType": "address payable",
          "name": "",
          "type": "address"
        }
      ],
      "stateMutability": "view",
      "type": "function"
    },
    {
      "inputs": [],
      "name": "seller",
      "outputs": [
        {
          "internalType": "address payable",
          "name": "",
          "type": "address"
        }
      ],
      "stateMutability": "view",
      "type": "function"
    },
    {
      "inputs": [],
      "name": "state",
      "outputs": [
        {
          "internalType": "enum PurchaseAgreement.State",
          "name": "",
          "type": "uint8"
        }
      ],
      "stateMutability": "view",
      "type": "function"
    },
    {
      "inputs": [],
      "name": "confirmPurchase",
      "outputs": [],
      "stateMutability": "payable",
      "type": "function"
    },
    {
      "inputs": [],
      "name": "confirmReceived",
      "outputs": [],
      "stateMutability": "nonpayable",
      "type": "function"
    },
    {
      "inputs": [],
      "name": "paySeller",
      "outputs": [],
      "stateMutability": "nonpayable",
      "type": "function"
    },
    {
      "inputs": [],
      "name": "abort",
      "outputs": [],
      "stateMutability": "nonpayable",
      "type": "function"
    }
  ],
  "bytecode": "0x608060405233600160006101000a81548173ffffffffffffffffffffffffffffffffffffffff021916908373ffffffffffffffffffffffffffffffffffffffff1602179055506002346100529190610096565b6000819055506100c7565b6000819050919050565b7f4e487b7100000000000000000000000000000000000000000000000000000000600052601260045260246000fd5b60006100a18261005d565b91506100ac8361005d565b9250826100bc576100bb610067565b5b828204905092915050565b6109de806100d66000396000f3fe6080604052600436106100705760003560e01c806373fac6f01161004e57806373fac6f0146100e2578063a0c97bce146100f9578063c19d93fb14610110578063d69606971461013b57610070565b806308551a531461007557806335a063b4146100a05780637150d8ae146100b7575b600080fd5b34801561008157600080fd5b5061008a610145565b60405161009791906107c5565b60405180910390f35b3480156100ac57600080fd5b506100b561016b565b005b3480156100c357600080fd5b506100cc6102f7565b6040516100d991906107c5565b60405180910390f35b3480156100ee57600080fd5b506100f761031d565b005b34801561010557600080fd5b5061010e6104aa565b005b34801561011c57600080fd5b50610125610644565b6040516101329190610857565b60405180910390f35b610143610657565b005b600160009054906101000a900473ffffffffffffffffffffffffffffffffffffffff1681565b600160009054906101000a900473ffffffffffffffffffffffffffffffffffffffff1673ffffffffffffffffffffffffffffffffffffffff163373ffffffffffffffffffffffffffffffffffffffff16146101f2576040517f85d1f72600000000000000000000000000000000000000000000000000000000815260040160405180910390fd5b6000806003811115610207576102066107e0565b5b600260149054906101000a900460ff166003811115610229576102286107e0565b5b14610260576040517fbaf3f0f700000000000000000000000000000000000000000000000000000000815260040160405180910390fd5b6003600260146101000a81548160ff02191690836003811115610286576102856107e0565b5b0217905550600160009054906101000a900473ffffffffffffffffffffffffffffffffffffffff1673ffffffffffffffffffffffffffffffffffffffff166108fc479081150290604051600060405180830381858888f193505050501580156102f3573d6000803e3d6000fd5b5050565b600260009054906101000a900473ffffffffffffffffffffffffffffffffffffffff1681565b600260009054906101000a900473ffffffffffffffffffffffffffffffffffffffff1673ffffffffffffffffffffffffffffffffffffffff163373ffffffffffffffffffffffffffffffffffffffff16146103a4576040517f86efbb5500000000000000000000000000000000000000000000000000000000815260040160405180910390fd5b60018060038111156103b9576103b86107e0565b5b600260149054906101000a900460ff1660038111156103db576103da6107e0565b5b14610412576040517fbaf3f0f700000000000000000000000000000000000000000000000000000000815260040160405180910390fd5b60028060146101000a81548160ff02191690836003811115610437576104366107e0565b5b0217905550600260009054906101000a900473ffffffffffffffffffffffffffffffffffffffff1673ffffffffffffffffffffffffffffffffffffffff166108fc6000549081150290604051600060405180830381858888f193505050501580156104a6573d6000803e3d6000fd5b5050565b600160009054906101000a900473ffffffffffffffffffffffffffffffffffffffff1673ffffffffffffffffffffffffffffffffffffffff163373ffffffffffffffffffffffffffffffffffffffff1614610531576040517f85d1f72600000000000000000000000000000000000000000000000000000000815260040160405180910390fd5b6002806003811115610546576105456107e0565b5b600260149054906101000a900460ff166003811115610568576105676107e0565b5b1461059f576040517fbaf3f0f700000000000000000000000000000000000000000000000000000000815260040160405180910390fd5b6003600260146101000a81548160ff021916908360038111156105c5576105c46107e0565b5b0217905550600160009054906101000a900473ffffffffffffffffffffffffffffffffffffffff1673ffffffffffffffffffffffffffffffffffffffff166108fc600054600361061591906108ab565b9081150290604051600060405180830381858888f19350505050158015610640573d6000803e3d6000fd5b5050565b600260149054906101000a900460ff1681565b600080600381111561066c5761066b6107e0565b5b600260149054906101000a900460ff16600381111561068e5761068d6107e0565b5b146106c5576040517fbaf3f0f700000000000000000000000000000000000000000000000000000000815260040160405180910390fd5b60005460026106d491906108ab565b3414610715576040517f08c379a000000000000000000000000000000000000000000000000000000000815260040161070c90610988565b60405180910390fd5b33600260006101000a81548173ffffffffffffffffffffffffffffffffffffffff021916908373ffffffffffffffffffffffffffffffffffffffff1602179055506001600260146101000a81548160ff0219169083600381111561077c5761077b6107e0565b5b021790555050565b600073ffffffffffffffffffffffffffffffffffffffff82169050919050565b60006107af82610784565b9050919050565b6107bf816107a4565b82525050565b60006020820190506107da60008301846107b6565b92915050565b7f4e487b7100000000000000000000000000000000000000000000000000000000600052602160045260246000fd5b600481106108205761081f6107e0565b5b50565b60008190506108318261080f565b919050565b600061084182610823565b9050919050565b61085181610836565b82525050565b600060208201905061086c6000830184610848565b92915050565b6000819050919050565b7f4e487b7100000000000000000000000000000000000000000000000000000000600052601160045260246000fd5b60006108b682610872565b91506108c183610872565b9250817fffffffffffffffffffffffffffffffffffffffffffffffffffffffffffffffff04831182151516156108fa576108f961087c565b5b828202905092915050565b600082825260208201905092915050565b7f506c656173652073656e6420696e20327820746865207075726368656173652060008201527f616d6f756e740000000000000000000000000000000000000000000000000000602082015250565b6000610972602683610905565b915061097d82610916565b604082019050919050565b600060208201905081810360008301526109a181610965565b905091905056fea26469706673582212205a70c4e931ba084c207db319b684746351c01e8e8a43985d86e63a5cbc2230a864736f6c634300080a0033",
  "immutableReferences": {},
  "source": "// SPDX-License-Identifier: MIT\r\npragma solidity ^0.8.10;\r\n\r\ncontract PurchaseAgreement {\r\n    \r\n    uint value;\r\n    address payable public seller;\r\n    address payable public buyer;\r\n\r\n    \r\n    enum State { Created, Locked, Release, Inactive }\r\n    State public state;\r\n\r\n   //este construtor determina que aquele que chamar o contrato sera o vendedor e que o custo do item sera metade do valor enviado, a outra parte servira como garantia\r\n    constructor() payable {\r\n        seller = payable(msg.sender);\r\n        value = msg.value / 2;\r\n    }\r\n\r\n    //abaixo estao os erros para cada instante especifico\r\n    \r\n    /// A funo nao pode ser chamada no estado atual\r\n    error InvalidState();\r\n    ///Only the buyer can call this function\r\n    error OnlyBuyer();\r\n    ///Only the seller can call this function\r\n    error OnlySeller();\r\n\r\n    //este modificador so permite que a funo seja executada se esta estiver no estado correto\r\n    modifier inState(State _state) {\r\n        if(state != _state) {\r\n            revert InvalidState();\r\n        }\r\n        _;\r\n    }\r\n\r\n    // modificador que garante que so o comprador pode executar as aes \r\n    modifier onlyBuyer() {\r\n        if(msg.sender != buyer) {\r\n            revert OnlyBuyer();\r\n        }\r\n        _;\r\n    }\r\n\r\n    //modificador que garante que somente o vendedor pode executar as aes \r\n    modifier onlySeller() {\r\n        if(msg.sender != seller) {\r\n            revert OnlySeller();\r\n        }\r\n        _;\r\n    }\r\n\r\n    //esta funo s pode ser executada por alguem de fora do contrat(no caso o comprador) e serve para armazenar o valor mais o extra de garantia\r\n    function confirmPurchase() external inState(State.Created) payable {\r\n        require(msg.value == (2 * value), \"Please send in 2x the purchease amount\");\r\n        buyer = payable(msg.sender);\r\n        state = State.Locked;\r\n    }\r\n\r\n    //esta funo serve para que quando o comprador receba seu item comprado, ele possa retirar o valor extra que foi como garantia\r\n    function confirmReceived() external onlyBuyer inState(State.Locked) {\r\n        state = State.Release;\r\n        buyer.transfer(value);\r\n    }\r\n\r\n    //esta funo serve para que apos o comprador receber seu item, o vendedor possa retirar o valor de garantia mais o custo do item\r\n    function paySeller() external onlySeller() inState(State.Release){\r\n        state = State.Inactive;\r\n        seller.transfer(3 * value);\r\n    }\r\n\r\n    //esta funo serve para que caso o comprador desista de comprar o item, o vendedor possa rertirar seu dinehiro\r\n    function abort() external onlySeller inState(State.Created) {\r\n        state = State.Inactive;\r\n        seller.transfer(address(this).balance); \r\n        }\r\n}",
  "sourcePath": "C:\\Users\\luyco\\OneDrive\\rea de Trabalho\\BI\\treinando\\contracts\\PurchaseAgreement.sol",
  "compiler": {
    "name": "solc",
    "version": "0.8.10+commit.fc410830.Emscripten.clang"
  },
  "schemaVersion": "3.4.3",
  "updatedAt": "2022-05-02T20:47:44.816Z",
  "devdoc": {
    "kind": "dev",
    "methods": {},
    "version": 1
  },
  "userdoc": {
    "errors": {
      "InvalidState()": [
        {
          "notice": "A funo nao pode ser chamada no estado atual"
        }
      ],
      "OnlyBuyer()": [
        {
          "notice": "Only the buyer can call this function"
        }
      ],
      "OnlySeller()": [
        {
          "notice": "Only the seller can call this function"
        }
      ]
    },
    "kind": "user",
    "methods": {},
    "version": 1
  }
}