{
  "contractName": "ERC721Capped",
  "abi": [
    {
      "inputs": [
        {
          "internalType": "string",
          "name": "name",
          "type": "string"
        },
        {
          "internalType": "string",
          "name": "symbol",
          "type": "string"
        },
        {
          "internalType": "uint64",
          "name": "cap",
          "type": "uint64"
        }
      ],
      "stateMutability": "nonpayable",
      "type": "constructor"
    },
    {
      "anonymous": false,
      "inputs": [
        {
          "indexed": true,
          "internalType": "address",
          "name": "owner",
          "type": "address"
        },
        {
          "indexed": true,
          "internalType": "address",
          "name": "approved",
          "type": "address"
        },
        {
          "indexed": true,
          "internalType": "uint256",
          "name": "tokenId",
          "type": "uint256"
        }
      ],
      "name": "Approval",
      "type": "event"
    },
    {
      "anonymous": false,
      "inputs": [
        {
          "indexed": true,
          "internalType": "address",
          "name": "owner",
          "type": "address"
        },
        {
          "indexed": true,
          "internalType": "address",
          "name": "operator",
          "type": "address"
        },
        {
          "indexed": false,
          "internalType": "bool",
          "name": "approved",
          "type": "bool"
        }
      ],
      "name": "ApprovalForAll",
      "type": "event"
    },
    {
      "anonymous": false,
      "inputs": [
        {
          "indexed": true,
          "internalType": "address",
          "name": "from",
          "type": "address"
        },
        {
          "indexed": true,
          "internalType": "address",
          "name": "to",
          "type": "address"
        },
        {
          "indexed": true,
          "internalType": "uint256",
          "name": "tokenId",
          "type": "uint256"
        }
      ],
      "name": "Transfer",
      "type": "event"
    },
    {
      "inputs": [
        {
          "internalType": "address",
          "name": "to",
          "type": "address"
        },
        {
          "internalType": "uint256",
          "name": "tokenId",
          "type": "uint256"
        }
      ],
      "name": "approve",
      "outputs": [],
      "stateMutability": "nonpayable",
      "type": "function"
    },
    {
      "inputs": [
        {
          "internalType": "address",
          "name": "owner",
          "type": "address"
        }
      ],
      "name": "balanceOf",
      "outputs": [
        {
          "internalType": "uint256",
          "name": "",
          "type": "uint256"
        }
      ],
      "stateMutability": "view",
      "type": "function"
    },
    {
      "inputs": [
        {
          "internalType": "uint256",
          "name": "tokenId",
          "type": "uint256"
        }
      ],
      "name": "getApproved",
      "outputs": [
        {
          "internalType": "address",
          "name": "",
          "type": "address"
        }
      ],
      "stateMutability": "view",
      "type": "function"
    },
    {
      "inputs": [
        {
          "internalType": "address",
          "name": "owner",
          "type": "address"
        },
        {
          "internalType": "address",
          "name": "operator",
          "type": "address"
        }
      ],
      "name": "isApprovedForAll",
      "outputs": [
        {
          "internalType": "bool",
          "name": "",
          "type": "bool"
        }
      ],
      "stateMutability": "view",
      "type": "function"
    },
    {
      "inputs": [],
      "name": "name",
      "outputs": [
        {
          "internalType": "string",
          "name": "",
          "type": "string"
        }
      ],
      "stateMutability": "view",
      "type": "function"
    },
    {
      "inputs": [
        {
          "internalType": "uint256",
          "name": "tokenId",
          "type": "uint256"
        }
      ],
      "name": "ownerOf",
      "outputs": [
        {
          "internalType": "address",
          "name": "",
          "type": "address"
        }
      ],
      "stateMutability": "view",
      "type": "function"
    },
    {
      "inputs": [
        {
          "internalType": "address",
          "name": "from",
          "type": "address"
        },
        {
          "internalType": "address",
          "name": "to",
          "type": "address"
        },
        {
          "internalType": "uint256",
          "name": "tokenId",
          "type": "uint256"
        }
      ],
      "name": "safeTransferFrom",
      "outputs": [],
      "stateMutability": "nonpayable",
      "type": "function"
    },
    {
      "inputs": [
        {
          "internalType": "address",
          "name": "from",
          "type": "address"
        },
        {
          "internalType": "address",
          "name": "to",
          "type": "address"
        },
        {
          "internalType": "uint256",
          "name": "tokenId",
          "type": "uint256"
        },
        {
          "internalType": "bytes",
          "name": "_data",
          "type": "bytes"
        }
      ],
      "name": "safeTransferFrom",
      "outputs": [],
      "stateMutability": "nonpayable",
      "type": "function"
    },
    {
      "inputs": [
        {
          "internalType": "address",
          "name": "operator",
          "type": "address"
        },
        {
          "internalType": "bool",
          "name": "approved",
          "type": "bool"
        }
      ],
      "name": "setApprovalForAll",
      "outputs": [],
      "stateMutability": "nonpayable",
      "type": "function"
    },
    {
      "inputs": [
        {
          "internalType": "bytes4",
          "name": "interfaceId",
          "type": "bytes4"
        }
      ],
      "name": "supportsInterface",
      "outputs": [
        {
          "internalType": "bool",
          "name": "",
          "type": "bool"
        }
      ],
      "stateMutability": "view",
      "type": "function"
    },
    {
      "inputs": [],
      "name": "symbol",
      "outputs": [
        {
          "internalType": "string",
          "name": "",
          "type": "string"
        }
      ],
      "stateMutability": "view",
      "type": "function"
    },
    {
      "inputs": [
        {
          "internalType": "uint256",
          "name": "tokenId",
          "type": "uint256"
        }
      ],
      "name": "tokenURI",
      "outputs": [
        {
          "internalType": "string",
          "name": "",
          "type": "string"
        }
      ],
      "stateMutability": "view",
      "type": "function"
    },
    {
      "inputs": [
        {
          "internalType": "address",
          "name": "from",
          "type": "address"
        },
        {
          "internalType": "address",
          "name": "to",
          "type": "address"
        },
        {
          "internalType": "uint256",
          "name": "tokenId",
          "type": "uint256"
        }
      ],
      "name": "transferFrom",
      "outputs": [],
      "stateMutability": "nonpayable",
      "type": "function"
    },
    {
      "inputs": [],
      "name": "getTotalSupply",
      "outputs": [
        {
          "internalType": "uint256",
          "name": "",
          "type": "uint256"
        }
      ],
      "stateMutability": "view",
      "type": "function"
    },
    {
      "inputs": [],
      "name": "getBalance",
      "outputs": [
        {
          "internalType": "uint256",
          "name": "",
          "type": "uint256"
        }
      ],
      "stateMutability": "view",
      "type": "function"
    },
    {
      "inputs": [],
      "name": "ownerMint",
      "outputs": [],
      "stateMutability": "nonpayable",
      "type": "function"
    },
    {
      "inputs": [],
      "name": "publicMint",
      "outputs": [],
      "stateMutability": "payable",
      "type": "function"
    },
    {
      "inputs": [
        {
          "internalType": "uint256",
          "name": "Price",
          "type": "uint256"
        }
      ],
      "name": "setMintPrice",
      "outputs": [],
      "stateMutability": "nonpayable",
      "type": "function"
    },
    {
      "inputs": [
        {
          "internalType": "uint256",
          "name": "Price",
          "type": "uint256"
        }
      ],
      "name": "openSales",
      "outputs": [],
      "stateMutability": "nonpayable",
      "type": "function"
    },
    {
      "inputs": [],
      "name": "closeSales",
      "outputs": [],
      "stateMutability": "nonpayable",
      "type": "function"
    },
    {
      "inputs": [],
      "name": "withdraw",
      "outputs": [],
      "stateMutability": "payable",
      "type": "function"
    }
  ],
  "bytecode": "0x60806040523480156200001157600080fd5b50604051620030303803806200303083398181016040528101906200003791906200021c565b8282816000908051906020019062000051929190620000e3565b5080600190805190602001906200006a929190620000e3565b5050508067ffffffffffffffff166006819055506000600860006101000a81548160ff02191690831515021790555033600a60006101000a81548173ffffffffffffffffffffffffffffffffffffffff021916908373ffffffffffffffffffffffffffffffffffffffff16021790555050505062000442565b828054620000f1906200034d565b90600052602060002090601f01602090048101928262000115576000855562000161565b82601f106200013057805160ff191683800117855562000161565b8280016001018555821562000161579182015b828111156200016057825182559160200191906001019062000143565b5b50905062000170919062000174565b5090565b5b808211156200018f57600081600090555060010162000175565b5090565b6000620001aa620001a484620002cd565b620002a4565b905082815260208101848484011115620001c357600080fd5b620001d084828562000317565b509392505050565b600082601f830112620001ea57600080fd5b8151620001fc84826020860162000193565b91505092915050565b600081519050620002168162000428565b92915050565b6000806000606084860312156200023257600080fd5b600084015167ffffffffffffffff8111156200024d57600080fd5b6200025b86828701620001d8565b935050602084015167ffffffffffffffff8111156200027957600080fd5b6200028786828701620001d8565b92505060406200029a8682870162000205565b9150509250925092565b6000620002b0620002c3565b9050620002be828262000383565b919050565b6000604051905090565b600067ffffffffffffffff821115620002eb57620002ea620003e8565b5b620002f68262000417565b9050602081019050919050565b600067ffffffffffffffff82169050919050565b60005b83811015620003375780820151818401526020810190506200031a565b8381111562000347576000848401525b50505050565b600060028204905060018216806200036657607f821691505b602082108114156200037d576200037c620003b9565b5b50919050565b6200038e8262000417565b810181811067ffffffffffffffff82111715620003b057620003af620003e8565b5b80604052505050565b7f4e487b7100000000000000000000000000000000000000000000000000000000600052602260045260246000fd5b7f4e487b7100000000000000000000000000000000000000000000000000000000600052604160045260246000fd5b6000601f19601f8301169050919050565b620004338162000303565b81146200043f57600080fd5b50565b612bde80620004526000396000f3fe60806040526004361061012a5760003560e01c80636352211e116100ab578063b88d4fde1161006f578063b88d4fde1461038a578063c4e41b22146103b3578063c87b56dd146103de578063dd3691e61461041b578063e985e9c514610444578063f4a0a528146104815761012a565b80636352211e146102a557806370a08231146102e257806395d89b411461031f578063a22cb4651461034a578063b12dc991146103735761012a565b806315a8f073116100f257806315a8f0731461022857806323b872dd1461023f57806326092b83146102685780633ccfd60b1461027257806342842e0e1461027c5761012a565b806301ffc9a71461012f57806306fdde031461016c578063081812fc14610197578063095ea7b3146101d457806312065fe0146101fd575b600080fd5b34801561013b57600080fd5b5061015660048036038101906101519190611de0565b6104aa565b60405161016391906121a0565b60405180910390f35b34801561017857600080fd5b5061018161058c565b60405161018e91906121bb565b60405180910390f35b3480156101a357600080fd5b506101be60048036038101906101b99190611e32565b61061e565b6040516101cb9190612139565b60405180910390f35b3480156101e057600080fd5b506101fb60048036038101906101f69190611da4565b6106a3565b005b34801561020957600080fd5b506102126107bb565b60405161021f919061239d565b60405180910390f35b34801561023457600080fd5b5061023d6107c3565b005b34801561024b57600080fd5b5061026660048036038101906102619190611c9e565b61083a565b005b61027061089a565b005b61027a6108cb565b005b34801561028857600080fd5b506102a3600480360381019061029e9190611c9e565b610990565b005b3480156102b157600080fd5b506102cc60048036038101906102c79190611e32565b6109b0565b6040516102d99190612139565b60405180910390f35b3480156102ee57600080fd5b5061030960048036038101906103049190611c39565b610a62565b604051610316919061239d565b60405180910390f35b34801561032b57600080fd5b50610334610b1a565b60405161034191906121bb565b60405180910390f35b34801561035657600080fd5b50610371600480360381019061036c9190611d68565b610bac565b005b34801561037f57600080fd5b50610388610bc2565b005b34801561039657600080fd5b506103b160048036038101906103ac9190611ced565b610c26565b005b3480156103bf57600080fd5b506103c8610c88565b6040516103d5919061239d565b60405180910390f35b3480156103ea57600080fd5b5061040560048036038101906104009190611e32565b610c92565b60405161041291906121bb565b60405180910390f35b34801561042757600080fd5b50610442600480360381019061043d9190611e32565b610d39565b005b34801561045057600080fd5b5061046b60048036038101906104669190611c62565b610dba565b60405161047891906121a0565b60405180910390f35b34801561048d57600080fd5b506104a860048036038101906104a39190611e32565b610e4e565b005b60007f80ac58cd000000000000000000000000000000000000000000000000000000007bffffffffffffffffffffffffffffffffffffffffffffffffffffffff1916827bffffffffffffffffffffffffffffffffffffffffffffffffffffffff1916148061057557507f5b5e139f000000000000000000000000000000000000000000000000000000007bffffffffffffffffffffffffffffffffffffffffffffffffffffffff1916827bffffffffffffffffffffffffffffffffffffffffffffffffffffffff1916145b80610585575061058482610eb2565b5b9050919050565b60606000805461059b906125c2565b80601f01602080910402602001604051908101604052809291908181526020018280546105c7906125c2565b80156106145780601f106105e957610100808354040283529160200191610614565b820191906000526020600020905b8154815290600101906020018083116105f757829003601f168201915b5050505050905090565b600061062982610f1c565b610668576040517f08c379a000000000000000000000000000000000000000000000000000000000815260040161065f9061231d565b60405180910390fd5b6004600083815260200190815260200160002060009054906101000a900473ffffffffffffffffffffffffffffffffffffffff169050919050565b60006106ae826109b0565b90508073ffffffffffffffffffffffffffffffffffffffff168373ffffffffffffffffffffffffffffffffffffffff16141561071f576040517f08c379a00000000000000000000000000000000000000000000000000000000081526004016107169061235d565b60405180910390fd5b8073ffffffffffffffffffffffffffffffffffffffff1661073e610f88565b73ffffffffffffffffffffffffffffffffffffffff16148061076d575061076c81610767610f88565b610dba565b5b6107ac576040517f08c379a00000000000000000000000000000000000000000000000000000000081526004016107a39061229d565b60405180910390fd5b6107b68383610f90565b505050565b600047905090565b600a60009054906101000a900473ffffffffffffffffffffffffffffffffffffffff1673ffffffffffffffffffffffffffffffffffffffff163373ffffffffffffffffffffffffffffffffffffffff161461081d57600080fd5b6000600860006101000a81548160ff021916908315150217905550565b61084b610845610f88565b82611049565b61088a576040517f08c379a00000000000000000000000000000000000000000000000000000000081526004016108819061237d565b60405180910390fd5b610895838383611127565b505050565b60075434101580156108b85750600860009054906101000a900460ff165b6108c157600080fd5b6108c961138e565b565b600a60009054906101000a900473ffffffffffffffffffffffffffffffffffffffff1673ffffffffffffffffffffffffffffffffffffffff163373ffffffffffffffffffffffffffffffffffffffff161461092557600080fd5b600a60009054906101000a900473ffffffffffffffffffffffffffffffffffffffff1673ffffffffffffffffffffffffffffffffffffffff166108fc479081150290604051600060405180830381858888f1935050505015801561098d573d6000803e3d6000fd5b50565b6109ab83838360405180602001604052806000815250610c26565b505050565b6000806002600084815260200190815260200160002060009054906101000a900473ffffffffffffffffffffffffffffffffffffffff169050600073ffffffffffffffffffffffffffffffffffffffff168173ffffffffffffffffffffffffffffffffffffffff161415610a59576040517f08c379a0000000000000000000000000000000000000000000000000000000008152600401610a50906122dd565b60405180910390fd5b80915050919050565b60008073ffffffffffffffffffffffffffffffffffffffff168273ffffffffffffffffffffffffffffffffffffffff161415610ad3576040517f08c379a0000000000000000000000000000000000000000000000000000000008152600401610aca906122bd565b60405180910390fd5b600360008373ffffffffffffffffffffffffffffffffffffffff1673ffffffffffffffffffffffffffffffffffffffff168152602001908152602001600020549050919050565b606060018054610b29906125c2565b80601f0160208091040260200160405190810160405280929190818152602001828054610b55906125c2565b8015610ba25780601f10610b7757610100808354040283529160200191610ba2565b820191906000526020600020905b815481529060010190602001808311610b8557829003601f168201915b5050505050905090565b610bbe610bb7610f88565b83836113c4565b5050565b600a60009054906101000a900473ffffffffffffffffffffffffffffffffffffffff1673ffffffffffffffffffffffffffffffffffffffff163373ffffffffffffffffffffffffffffffffffffffff1614610c1c57600080fd5b610c2461138e565b565b610c37610c31610f88565b83611049565b610c76576040517f08c379a0000000000000000000000000000000000000000000000000000000008152600401610c6d9061237d565b60405180910390fd5b610c8284848484611531565b50505050565b6000600954905090565b6060610c9d82610f1c565b610cdc576040517f08c379a0000000000000000000000000000000000000000000000000000000008152600401610cd39061233d565b60405180910390fd5b6000610ce661158d565b90506000815111610d065760405180602001604052806000815250610d31565b80610d10846115a4565b604051602001610d21929190612115565b6040516020818303038152906040525b915050919050565b600a60009054906101000a900473ffffffffffffffffffffffffffffffffffffffff1673ffffffffffffffffffffffffffffffffffffffff163373ffffffffffffffffffffffffffffffffffffffff1614610d9357600080fd5b6001600860006101000a81548160ff021916908315150217905550610db781610e4e565b50565b6000600560008473ffffffffffffffffffffffffffffffffffffffff1673ffffffffffffffffffffffffffffffffffffffff16815260200190815260200160002060008373ffffffffffffffffffffffffffffffffffffffff1673ffffffffffffffffffffffffffffffffffffffff16815260200190815260200160002060009054906101000a900460ff16905092915050565b600a60009054906101000a900473ffffffffffffffffffffffffffffffffffffffff1673ffffffffffffffffffffffffffffffffffffffff163373ffffffffffffffffffffffffffffffffffffffff1614610ea857600080fd5b8060078190555050565b60007f01ffc9a7000000000000000000000000000000000000000000000000000000007bffffffffffffffffffffffffffffffffffffffffffffffffffffffff1916827bffffffffffffffffffffffffffffffffffffffffffffffffffffffff1916149050919050565b60008073ffffffffffffffffffffffffffffffffffffffff166002600084815260200190815260200160002060009054906101000a900473ffffffffffffffffffffffffffffffffffffffff1673ffffffffffffffffffffffffffffffffffffffff1614159050919050565b600033905090565b816004600083815260200190815260200160002060006101000a81548173ffffffffffffffffffffffffffffffffffffffff021916908373ffffffffffffffffffffffffffffffffffffffff160217905550808273ffffffffffffffffffffffffffffffffffffffff16611003836109b0565b73ffffffffffffffffffffffffffffffffffffffff167f8c5be1e5ebec7d5bd14f71427d1e84f3dd0314c0f7b2291e5b200ac8c7c3b92560405160405180910390a45050565b600061105482610f1c565b611093576040517f08c379a000000000000000000000000000000000000000000000000000000000815260040161108a9061227d565b60405180910390fd5b600061109e836109b0565b90508073ffffffffffffffffffffffffffffffffffffffff168473ffffffffffffffffffffffffffffffffffffffff16148061110d57508373ffffffffffffffffffffffffffffffffffffffff166110f58461061e565b73ffffffffffffffffffffffffffffffffffffffff16145b8061111e575061111d8185610dba565b5b91505092915050565b8273ffffffffffffffffffffffffffffffffffffffff16611147826109b0565b73ffffffffffffffffffffffffffffffffffffffff161461119d576040517f08c379a0000000000000000000000000000000000000000000000000000000008152600401611194906121fd565b60405180910390fd5b600073ffffffffffffffffffffffffffffffffffffffff168273ffffffffffffffffffffffffffffffffffffffff16141561120d576040517f08c379a00000000000000000000000000000000000000000000000000000000081526004016112049061223d565b60405180910390fd5b611218838383611751565b611223600082610f90565b6001600360008573ffffffffffffffffffffffffffffffffffffffff1673ffffffffffffffffffffffffffffffffffffffff168152602001908152602001600020600082825461127391906124d8565b925050819055506001600360008473ffffffffffffffffffffffffffffffffffffffff1673ffffffffffffffffffffffffffffffffffffffff16815260200190815260200160002060008282546112ca9190612451565b92505081905550816002600083815260200190815260200160002060006101000a81548173ffffffffffffffffffffffffffffffffffffffff021916908373ffffffffffffffffffffffffffffffffffffffff160217905550808273ffffffffffffffffffffffffffffffffffffffff168473ffffffffffffffffffffffffffffffffffffffff167fddf252ad1be2c89b69c2b068fc378daa952ba7f163c4a11628f55a4df523b3ef60405160405180910390a4611389838383611756565b505050565b6006546009541061139e57600080fd5b6113aa3360095461175b565b600960008154809291906113bd90612625565b9190505550565b8173ffffffffffffffffffffffffffffffffffffffff168373ffffffffffffffffffffffffffffffffffffffff161415611433576040517f08c379a000000000000000000000000000000000000000000000000000000000815260040161142a9061225d565b60405180910390fd5b80600560008573ffffffffffffffffffffffffffffffffffffffff1673ffffffffffffffffffffffffffffffffffffffff16815260200190815260200160002060008473ffffffffffffffffffffffffffffffffffffffff1673ffffffffffffffffffffffffffffffffffffffff16815260200190815260200160002060006101000a81548160ff0219169083151502179055508173ffffffffffffffffffffffffffffffffffffffff168373ffffffffffffffffffffffffffffffffffffffff167f17307eab39ab6107e8899845ad3d59bd9653f200f220920489ca2b5937696c318360405161152491906121a0565b60405180910390a3505050565b61153c848484611127565b61154884848484611779565b611587576040517f08c379a000000000000000000000000000000000000000000000000000000000815260040161157e906121dd565b60405180910390fd5b50505050565b606060405180602001604052806000815250905090565b606060008214156115ec576040518060400160405280600181526020017f3000000000000000000000000000000000000000000000000000000000000000815250905061174c565b600082905060005b6000821461161e57808061160790612625565b915050600a8261161791906124a7565b91506115f4565b60008167ffffffffffffffff811115611660577f4e487b7100000000000000000000000000000000000000000000000000000000600052604160045260246000fd5b6040519080825280601f01601f1916602001820160405280156116925781602001600182028036833780820191505090505b5090505b60008514611745576001826116ab91906124d8565b9150600a856116ba919061266e565b60306116c69190612451565b60f81b818381518110611702577f4e487b7100000000000000000000000000000000000000000000000000000000600052603260045260246000fd5b60200101907effffffffffffffffffffffffffffffffffffffffffffffffffffffffffffff1916908160001a905350600a8561173e91906124a7565b9450611696565b8093505050505b919050565b505050565b505050565b611775828260405180602001604052806000815250611910565b5050565b600061179a8473ffffffffffffffffffffffffffffffffffffffff1661196b565b15611903578373ffffffffffffffffffffffffffffffffffffffff1663150b7a026117c3610f88565b8786866040518563ffffffff1660e01b81526004016117e59493929190612154565b602060405180830381600087803b1580156117ff57600080fd5b505af192505050801561183057506040513d601f19601f8201168201806040525081019061182d9190611e09565b60015b6118b3573d8060008114611860576040519150601f19603f3d011682016040523d82523d6000602084013e611865565b606091505b506000815114156118ab576040517f08c379a00000000000000000000000000000000000000000000000000000000081526004016118a2906121dd565b60405180910390fd5b805181602001fd5b63150b7a0260e01b7bffffffffffffffffffffffffffffffffffffffffffffffffffffffff1916817bffffffffffffffffffffffffffffffffffffffffffffffffffffffff191614915050611908565b600190505b949350505050565b61191a838361198e565b6119276000848484611779565b611966576040517f08c379a000000000000000000000000000000000000000000000000000000000815260040161195d906121dd565b60405180910390fd5b505050565b6000808273ffffffffffffffffffffffffffffffffffffffff163b119050919050565b600073ffffffffffffffffffffffffffffffffffffffff168273ffffffffffffffffffffffffffffffffffffffff1614156119fe576040517f08c379a00000000000000000000000000000000000000000000000000000000081526004016119f5906122fd565b60405180910390fd5b611a0781610f1c565b15611a47576040517f08c379a0000000000000000000000000000000000000000000000000000000008152600401611a3e9061221d565b60405180910390fd5b611a5360008383611751565b6001600360008473ffffffffffffffffffffffffffffffffffffffff1673ffffffffffffffffffffffffffffffffffffffff1681526020019081526020016000206000828254611aa39190612451565b92505081905550816002600083815260200190815260200160002060006101000a81548173ffffffffffffffffffffffffffffffffffffffff021916908373ffffffffffffffffffffffffffffffffffffffff160217905550808273ffffffffffffffffffffffffffffffffffffffff16600073ffffffffffffffffffffffffffffffffffffffff167fddf252ad1be2c89b69c2b068fc378daa952ba7f163c4a11628f55a4df523b3ef60405160405180910390a4611b6460008383611756565b5050565b6000611b7b611b76846123dd565b6123b8565b905082815260208101848484011115611b9357600080fd5b611b9e848285612580565b509392505050565b600081359050611bb581612b4c565b92915050565b600081359050611bca81612b63565b92915050565b600081359050611bdf81612b7a565b92915050565b600081519050611bf481612b7a565b92915050565b600082601f830112611c0b57600080fd5b8135611c1b848260208601611b68565b91505092915050565b600081359050611c3381612b91565b92915050565b600060208284031215611c4b57600080fd5b6000611c5984828501611ba6565b91505092915050565b60008060408385031215611c7557600080fd5b6000611c8385828601611ba6565b9250506020611c9485828601611ba6565b9150509250929050565b600080600060608486031215611cb357600080fd5b6000611cc186828701611ba6565b9350506020611cd286828701611ba6565b9250506040611ce386828701611c24565b9150509250925092565b60008060008060808587031215611d0357600080fd5b6000611d1187828801611ba6565b9450506020611d2287828801611ba6565b9350506040611d3387828801611c24565b925050606085013567ffffffffffffffff811115611d5057600080fd5b611d5c87828801611bfa565b91505092959194509250565b60008060408385031215611d7b57600080fd5b6000611d8985828601611ba6565b9250506020611d9a85828601611bbb565b9150509250929050565b60008060408385031215611db757600080fd5b6000611dc585828601611ba6565b9250506020611dd685828601611c24565b9150509250929050565b600060208284031215611df257600080fd5b6000611e0084828501611bd0565b91505092915050565b600060208284031215611e1b57600080fd5b6000611e2984828501611be5565b91505092915050565b600060208284031215611e4457600080fd5b6000611e5284828501611c24565b91505092915050565b611e648161250c565b82525050565b611e738161251e565b82525050565b6000611e848261240e565b611e8e8185612424565b9350611e9e81856020860161258f565b611ea78161275b565b840191505092915050565b6000611ebd82612419565b611ec78185612435565b9350611ed781856020860161258f565b611ee08161275b565b840191505092915050565b6000611ef682612419565b611f008185612446565b9350611f1081856020860161258f565b80840191505092915050565b6000611f29603283612435565b9150611f348261276c565b604082019050919050565b6000611f4c602583612435565b9150611f57826127bb565b604082019050919050565b6000611f6f601c83612435565b9150611f7a8261280a565b602082019050919050565b6000611f92602483612435565b9150611f9d82612833565b604082019050919050565b6000611fb5601983612435565b9150611fc082612882565b602082019050919050565b6000611fd8602c83612435565b9150611fe3826128ab565b604082019050919050565b6000611ffb603883612435565b9150612006826128fa565b604082019050919050565b600061201e602a83612435565b915061202982612949565b604082019050919050565b6000612041602983612435565b915061204c82612998565b604082019050919050565b6000612064602083612435565b915061206f826129e7565b602082019050919050565b6000612087602c83612435565b915061209282612a10565b604082019050919050565b60006120aa602f83612435565b91506120b582612a5f565b604082019050919050565b60006120cd602183612435565b91506120d882612aae565b604082019050919050565b60006120f0603183612435565b91506120fb82612afd565b604082019050919050565b61210f81612576565b82525050565b60006121218285611eeb565b915061212d8284611eeb565b91508190509392505050565b600060208201905061214e6000830184611e5b565b92915050565b60006080820190506121696000830187611e5b565b6121766020830186611e5b565b6121836040830185612106565b81810360608301526121958184611e79565b905095945050505050565b60006020820190506121b56000830184611e6a565b92915050565b600060208201905081810360008301526121d58184611eb2565b905092915050565b600060208201905081810360008301526121f681611f1c565b9050919050565b6000602082019050818103600083015261221681611f3f565b9050919050565b6000602082019050818103600083015261223681611f62565b9050919050565b6000602082019050818103600083015261225681611f85565b9050919050565b6000602082019050818103600083015261227681611fa8565b9050919050565b6000602082019050818103600083015261229681611fcb565b9050919050565b600060208201905081810360008301526122b681611fee565b9050919050565b600060208201905081810360008301526122d681612011565b9050919050565b600060208201905081810360008301526122f681612034565b9050919050565b6000602082019050818103600083015261231681612057565b9050919050565b600060208201905081810360008301526123368161207a565b9050919050565b600060208201905081810360008301526123568161209d565b9050919050565b60006020820190508181036000830152612376816120c0565b9050919050565b60006020820190508181036000830152612396816120e3565b9050919050565b60006020820190506123b26000830184612106565b92915050565b60006123c26123d3565b90506123ce82826125f4565b919050565b6000604051905090565b600067ffffffffffffffff8211156123f8576123f761272c565b5b6124018261275b565b9050602081019050919050565b600081519050919050565b600081519050919050565b600082825260208201905092915050565b600082825260208201905092915050565b600081905092915050565b600061245c82612576565b915061246783612576565b9250827fffffffffffffffffffffffffffffffffffffffffffffffffffffffffffffffff0382111561249c5761249b61269f565b5b828201905092915050565b60006124b282612576565b91506124bd83612576565b9250826124cd576124cc6126ce565b5b828204905092915050565b60006124e382612576565b91506124ee83612576565b9250828210156125015761250061269f565b5b828203905092915050565b600061251782612556565b9050919050565b60008115159050919050565b60007fffffffff0000000000000000000000000000000000000000000000000000000082169050919050565b600073ffffffffffffffffffffffffffffffffffffffff82169050919050565b6000819050919050565b82818337600083830152505050565b60005b838110156125ad578082015181840152602081019050612592565b838111156125bc576000848401525b50505050565b600060028204905060018216806125da57607f821691505b602082108114156125ee576125ed6126fd565b5b50919050565b6125fd8261275b565b810181811067ffffffffffffffff8211171561261c5761261b61272c565b5b80604052505050565b600061263082612576565b91507fffffffffffffffffffffffffffffffffffffffffffffffffffffffffffffffff8214156126635761266261269f565b5b600182019050919050565b600061267982612576565b915061268483612576565b925082612694576126936126ce565b5b828206905092915050565b7f4e487b7100000000000000000000000000000000000000000000000000000000600052601160045260246000fd5b7f4e487b7100000000000000000000000000000000000000000000000000000000600052601260045260246000fd5b7f4e487b7100000000000000000000000000000000000000000000000000000000600052602260045260246000fd5b7f4e487b7100000000000000000000000000000000000000000000000000000000600052604160045260246000fd5b6000601f19601f8301169050919050565b7f4552433732313a207472616e7366657220746f206e6f6e20455243373231526560008201527f63656976657220696d706c656d656e7465720000000000000000000000000000602082015250565b7f4552433732313a207472616e736665722066726f6d20696e636f72726563742060008201527f6f776e6572000000000000000000000000000000000000000000000000000000602082015250565b7f4552433732313a20746f6b656e20616c7265616479206d696e74656400000000600082015250565b7f4552433732313a207472616e7366657220746f20746865207a65726f2061646460008201527f7265737300000000000000000000000000000000000000000000000000000000602082015250565b7f4552433732313a20617070726f766520746f2063616c6c657200000000000000600082015250565b7f4552433732313a206f70657261746f7220717565727920666f72206e6f6e657860008201527f697374656e7420746f6b656e0000000000000000000000000000000000000000602082015250565b7f4552433732313a20617070726f76652063616c6c6572206973206e6f74206f7760008201527f6e6572206e6f7220617070726f76656420666f7220616c6c0000000000000000602082015250565b7f4552433732313a2062616c616e636520717565727920666f7220746865207a6560008201527f726f206164647265737300000000000000000000000000000000000000000000602082015250565b7f4552433732313a206f776e657220717565727920666f72206e6f6e657869737460008201527f656e7420746f6b656e0000000000000000000000000000000000000000000000602082015250565b7f4552433732313a206d696e7420746f20746865207a65726f2061646472657373600082015250565b7f4552433732313a20617070726f76656420717565727920666f72206e6f6e657860008201527f697374656e7420746f6b656e0000000000000000000000000000000000000000602082015250565b7f4552433732314d657461646174613a2055524920717565727920666f72206e6f60008201527f6e6578697374656e7420746f6b656e0000000000000000000000000000000000602082015250565b7f4552433732313a20617070726f76616c20746f2063757272656e74206f776e6560008201527f7200000000000000000000000000000000000000000000000000000000000000602082015250565b7f4552433732313a207472616e736665722063616c6c6572206973206e6f74206f60008201527f776e6572206e6f7220617070726f766564000000000000000000000000000000602082015250565b612b558161250c565b8114612b6057600080fd5b50565b612b6c8161251e565b8114612b7757600080fd5b50565b612b838161252a565b8114612b8e57600080fd5b50565b612b9a81612576565b8114612ba557600080fd5b5056fea2646970667358221220c640e6bd92e671b1f313ec788f2742369f81ae3c5c413d808f56660925dd588f64736f6c63430008010033",
  "immutableReferences": {},
  "source": "// SPDX-License-Identifier: MIT\r\npragma solidity >=0.6.0 <0.9.0;\r\n\r\nimport \"@openzeppelin/contracts/token/ERC721/ERC721.sol\";\r\n\r\n\r\ncontract ERC721Capped is ERC721{\r\n\r\n    uint _maxSupply;\r\n    uint _mintPrice;\r\n    bool _openMint; \r\n    uint _currentSupply;\r\n    address owner;\r\n\r\n    constructor(string memory name, string memory symbol, uint64 cap) ERC721(name, symbol) {\r\n        _maxSupply = cap;\r\n        _openMint = false;\r\n        owner = msg.sender;\r\n    }\r\n    modifier onlyOwner {\r\n      require(msg.sender == owner);\r\n      _;\r\n   }\r\n\r\n    function getTotalSupply() public view returns(uint) {\r\n        return _currentSupply;\r\n    }\r\n\r\n    function getBalance() public view returns(uint) {\r\n        return address(this).balance;   \r\n    }\r\n\r\n    function _createNFT() internal  {\r\n        require(_currentSupply < _maxSupply);\r\n        _safeMint(msg.sender, _currentSupply);\r\n        _currentSupply++;\r\n    }\r\n\r\n    function ownerMint() external onlyOwner {\r\n        _createNFT();\r\n    }\r\n    \r\n    function publicMint() external payable{\r\n        require(msg.value >= _mintPrice && _openMint);\r\n        _createNFT();\r\n    }\r\n\r\n    function setMintPrice(uint Price) public onlyOwner {\r\n        _mintPrice = Price;\r\n    }\r\n\r\n    function openSales(uint Price) external onlyOwner {\r\n        _openMint = true;\r\n        setMintPrice(Price);\r\n    }\r\n\r\n    function closeSales() external onlyOwner {\r\n        _openMint = false;\r\n    }\r\n\r\n    function withdraw() external payable onlyOwner {\r\n        payable(owner).transfer(address(this).balance);\r\n    }\r\n}",
  "sourcePath": "C:\\Users\\bbsab\\OneDrive\\Documentos\\Insper\\BI\\Entregaveis\\2022.1\\BrunoSaboya\\Truffle-React-Template\\src\\contracts\\ERC721Capped.sol",
  "compiler": {
    "name": "solc",
    "version": "0.8.1+commit.df193b15.Emscripten.clang"
  },
  "schemaVersion": "3.4.7",
  "updatedAt": "2022-06-07T21:59:34.034Z",
  "devdoc": {
    "kind": "dev",
    "methods": {
      "approve(address,uint256)": {
        "details": "See {IERC721-approve}."
      },
      "balanceOf(address)": {
        "details": "See {IERC721-balanceOf}."
      },
      "getApproved(uint256)": {
        "details": "See {IERC721-getApproved}."
      },
      "isApprovedForAll(address,address)": {
        "details": "See {IERC721-isApprovedForAll}."
      },
      "name()": {
        "details": "See {IERC721Metadata-name}."
      },
      "ownerOf(uint256)": {
        "details": "See {IERC721-ownerOf}."
      },
      "safeTransferFrom(address,address,uint256)": {
        "details": "See {IERC721-safeTransferFrom}."
      },
      "safeTransferFrom(address,address,uint256,bytes)": {
        "details": "See {IERC721-safeTransferFrom}."
      },
      "setApprovalForAll(address,bool)": {
        "details": "See {IERC721-setApprovalForAll}."
      },
      "supportsInterface(bytes4)": {
        "details": "See {IERC165-supportsInterface}."
      },
      "symbol()": {
        "details": "See {IERC721Metadata-symbol}."
      },
      "tokenURI(uint256)": {
        "details": "See {IERC721Metadata-tokenURI}."
      },
      "transferFrom(address,address,uint256)": {
        "details": "See {IERC721-transferFrom}."
      }
    },
    "version": 1
  },
  "userdoc": {
    "kind": "user",
    "methods": {},
    "version": 1
  }
}