{
  "contractName": "ERC721Capped",
  "abi": [
    {
      "inputs": [
        {
          "internalType": "string",
          "name": "name",
          "type": "string"
        },
        {
          "internalType": "string",
          "name": "symbol",
          "type": "string"
        },
        {
          "internalType": "uint64",
          "name": "cap",
          "type": "uint64"
        }
      ],
      "stateMutability": "nonpayable",
      "type": "constructor"
    },
    {
      "anonymous": false,
      "inputs": [
        {
          "indexed": true,
          "internalType": "address",
          "name": "owner",
          "type": "address"
        },
        {
          "indexed": true,
          "internalType": "address",
          "name": "approved",
          "type": "address"
        },
        {
          "indexed": true,
          "internalType": "uint256",
          "name": "tokenId",
          "type": "uint256"
        }
      ],
      "name": "Approval",
      "type": "event"
    },
    {
      "anonymous": false,
      "inputs": [
        {
          "indexed": true,
          "internalType": "address",
          "name": "owner",
          "type": "address"
        },
        {
          "indexed": true,
          "internalType": "address",
          "name": "operator",
          "type": "address"
        },
        {
          "indexed": false,
          "internalType": "bool",
          "name": "approved",
          "type": "bool"
        }
      ],
      "name": "ApprovalForAll",
      "type": "event"
    },
    {
      "anonymous": false,
      "inputs": [
        {
          "indexed": true,
          "internalType": "address",
          "name": "from",
          "type": "address"
        },
        {
          "indexed": true,
          "internalType": "address",
          "name": "to",
          "type": "address"
        },
        {
          "indexed": true,
          "internalType": "uint256",
          "name": "tokenId",
          "type": "uint256"
        }
      ],
      "name": "Transfer",
      "type": "event"
    },
    {
      "inputs": [
        {
          "internalType": "address",
          "name": "to",
          "type": "address"
        },
        {
          "internalType": "uint256",
          "name": "tokenId",
          "type": "uint256"
        }
      ],
      "name": "approve",
      "outputs": [],
      "stateMutability": "nonpayable",
      "type": "function"
    },
    {
      "inputs": [
        {
          "internalType": "address",
          "name": "owner",
          "type": "address"
        }
      ],
      "name": "balanceOf",
      "outputs": [
        {
          "internalType": "uint256",
          "name": "",
          "type": "uint256"
        }
      ],
      "stateMutability": "view",
      "type": "function"
    },
    {
      "inputs": [
        {
          "internalType": "uint256",
          "name": "tokenId",
          "type": "uint256"
        }
      ],
      "name": "getApproved",
      "outputs": [
        {
          "internalType": "address",
          "name": "",
          "type": "address"
        }
      ],
      "stateMutability": "view",
      "type": "function"
    },
    {
      "inputs": [
        {
          "internalType": "address",
          "name": "owner",
          "type": "address"
        },
        {
          "internalType": "address",
          "name": "operator",
          "type": "address"
        }
      ],
      "name": "isApprovedForAll",
      "outputs": [
        {
          "internalType": "bool",
          "name": "",
          "type": "bool"
        }
      ],
      "stateMutability": "view",
      "type": "function"
    },
    {
      "inputs": [],
      "name": "name",
      "outputs": [
        {
          "internalType": "string",
          "name": "",
          "type": "string"
        }
      ],
      "stateMutability": "view",
      "type": "function"
    },
    {
      "inputs": [
        {
          "internalType": "uint256",
          "name": "tokenId",
          "type": "uint256"
        }
      ],
      "name": "ownerOf",
      "outputs": [
        {
          "internalType": "address",
          "name": "",
          "type": "address"
        }
      ],
      "stateMutability": "view",
      "type": "function"
    },
    {
      "inputs": [
        {
          "internalType": "address",
          "name": "from",
          "type": "address"
        },
        {
          "internalType": "address",
          "name": "to",
          "type": "address"
        },
        {
          "internalType": "uint256",
          "name": "tokenId",
          "type": "uint256"
        }
      ],
      "name": "safeTransferFrom",
      "outputs": [],
      "stateMutability": "nonpayable",
      "type": "function"
    },
    {
      "inputs": [
        {
          "internalType": "address",
          "name": "from",
          "type": "address"
        },
        {
          "internalType": "address",
          "name": "to",
          "type": "address"
        },
        {
          "internalType": "uint256",
          "name": "tokenId",
          "type": "uint256"
        },
        {
          "internalType": "bytes",
          "name": "_data",
          "type": "bytes"
        }
      ],
      "name": "safeTransferFrom",
      "outputs": [],
      "stateMutability": "nonpayable",
      "type": "function"
    },
    {
      "inputs": [
        {
          "internalType": "address",
          "name": "operator",
          "type": "address"
        },
        {
          "internalType": "bool",
          "name": "approved",
          "type": "bool"
        }
      ],
      "name": "setApprovalForAll",
      "outputs": [],
      "stateMutability": "nonpayable",
      "type": "function"
    },
    {
      "inputs": [
        {
          "internalType": "bytes4",
          "name": "interfaceId",
          "type": "bytes4"
        }
      ],
      "name": "supportsInterface",
      "outputs": [
        {
          "internalType": "bool",
          "name": "",
          "type": "bool"
        }
      ],
      "stateMutability": "view",
      "type": "function"
    },
    {
      "inputs": [],
      "name": "symbol",
      "outputs": [
        {
          "internalType": "string",
          "name": "",
          "type": "string"
        }
      ],
      "stateMutability": "view",
      "type": "function"
    },
    {
      "inputs": [
        {
          "internalType": "uint256",
          "name": "tokenId",
          "type": "uint256"
        }
      ],
      "name": "tokenURI",
      "outputs": [
        {
          "internalType": "string",
          "name": "",
          "type": "string"
        }
      ],
      "stateMutability": "view",
      "type": "function"
    },
    {
      "inputs": [
        {
          "internalType": "address",
          "name": "from",
          "type": "address"
        },
        {
          "internalType": "address",
          "name": "to",
          "type": "address"
        },
        {
          "internalType": "uint256",
          "name": "tokenId",
          "type": "uint256"
        }
      ],
      "name": "transferFrom",
      "outputs": [],
      "stateMutability": "nonpayable",
      "type": "function"
    },
    {
      "inputs": [],
      "name": "getTotalSupply",
      "outputs": [
        {
          "internalType": "uint64",
          "name": "",
          "type": "uint64"
        }
      ],
      "stateMutability": "view",
      "type": "function"
    },
    {
      "inputs": [],
      "name": "getBalance",
      "outputs": [
        {
          "internalType": "uint256",
          "name": "",
          "type": "uint256"
        }
      ],
      "stateMutability": "view",
      "type": "function"
    },
    {
      "inputs": [],
      "name": "ownerMint",
      "outputs": [],
      "stateMutability": "nonpayable",
      "type": "function"
    },
    {
      "inputs": [],
      "name": "publicMint",
      "outputs": [],
      "stateMutability": "payable",
      "type": "function"
    },
    {
      "inputs": [
        {
          "internalType": "uint256",
          "name": "newNftPrice",
          "type": "uint256"
        }
      ],
      "name": "setMintPrice",
      "outputs": [],
      "stateMutability": "nonpayable",
      "type": "function"
    },
    {
      "inputs": [
        {
          "internalType": "uint256",
          "name": "newNftPrice",
          "type": "uint256"
        }
      ],
      "name": "openSales",
      "outputs": [],
      "stateMutability": "nonpayable",
      "type": "function"
    },
    {
      "inputs": [],
      "name": "closeSales",
      "outputs": [],
      "stateMutability": "nonpayable",
      "type": "function"
    },
    {
      "inputs": [],
      "name": "withdraw",
      "outputs": [],
      "stateMutability": "payable",
      "type": "function"
    }
  ],
  "bytecode": "0x60806040523480156200001157600080fd5b50604051620030f1380380620030f1833981810160405281019062000037919062000266565b82828160009080519060200190620000519291906200012d565b5080600190805190602001906200006a9291906200012d565b50505080600660006101000a81548167ffffffffffffffff021916908367ffffffffffffffff1602179055506000600660086101000a81548167ffffffffffffffff021916908367ffffffffffffffff16021790555033600760006101000a81548173ffffffffffffffffffffffffffffffffffffffff021916908373ffffffffffffffffffffffffffffffffffffffff1602179055506000600760146101000a81548160ff02191690831515021790555060006008819055505050506200048c565b8280546200013b9062000397565b90600052602060002090601f0160209004810192826200015f5760008555620001ab565b82601f106200017a57805160ff1916838001178555620001ab565b82800160010185558215620001ab579182015b82811115620001aa5782518255916020019190600101906200018d565b5b509050620001ba9190620001be565b5090565b5b80821115620001d9576000816000905550600101620001bf565b5090565b6000620001f4620001ee8462000317565b620002ee565b9050828152602081018484840111156200020d57600080fd5b6200021a84828562000361565b509392505050565b600082601f8301126200023457600080fd5b815162000246848260208601620001dd565b91505092915050565b600081519050620002608162000472565b92915050565b6000806000606084860312156200027c57600080fd5b600084015167ffffffffffffffff8111156200029757600080fd5b620002a58682870162000222565b935050602084015167ffffffffffffffff811115620002c357600080fd5b620002d18682870162000222565b9250506040620002e4868287016200024f565b9150509250925092565b6000620002fa6200030d565b9050620003088282620003cd565b919050565b6000604051905090565b600067ffffffffffffffff82111562000335576200033462000432565b5b620003408262000461565b9050602081019050919050565b600067ffffffffffffffff82169050919050565b60005b838110156200038157808201518184015260208101905062000364565b8381111562000391576000848401525b50505050565b60006002820490506001821680620003b057607f821691505b60208210811415620003c757620003c662000403565b5b50919050565b620003d88262000461565b810181811067ffffffffffffffff82111715620003fa57620003f962000432565b5b80604052505050565b7f4e487b7100000000000000000000000000000000000000000000000000000000600052602260045260246000fd5b7f4e487b7100000000000000000000000000000000000000000000000000000000600052604160045260246000fd5b6000601f19601f8301169050919050565b6200047d816200034d565b81146200048957600080fd5b50565b612c55806200049c6000396000f3fe60806040526004361061012a5760003560e01c80636352211e116100ab578063b88d4fde1161006f578063b88d4fde1461038a578063c4e41b22146103b3578063c87b56dd146103de578063dd3691e61461041b578063e985e9c514610444578063f4a0a528146104815761012a565b80636352211e146102a557806370a08231146102e257806395d89b411461031f578063a22cb4651461034a578063b12dc991146103735761012a565b806315a8f073116100f257806315a8f0731461022857806323b872dd1461023f57806326092b83146102685780633ccfd60b1461027257806342842e0e1461027c5761012a565b806301ffc9a71461012f57806306fdde031461016c578063081812fc14610197578063095ea7b3146101d457806312065fe0146101fd575b600080fd5b34801561013b57600080fd5b5061015660048036038101906101519190611de8565b6104aa565b60405161016391906121b7565b60405180910390f35b34801561017857600080fd5b5061018161058c565b60405161018e91906121d2565b60405180910390f35b3480156101a357600080fd5b506101be60048036038101906101b99190611e3a565b61061e565b6040516101cb9190612150565b60405180910390f35b3480156101e057600080fd5b506101fb60048036038101906101f69190611dac565b6106a3565b005b34801561020957600080fd5b506102126107bb565b60405161021f91906123b4565b60405180910390f35b34801561023457600080fd5b5061023d6107c3565b005b34801561024b57600080fd5b5061026660048036038101906102619190611ca6565b61083a565b005b61027061089a565b005b61027a6108cb565b005b34801561028857600080fd5b506102a3600480360381019061029e9190611ca6565b61096e565b005b3480156102b157600080fd5b506102cc60048036038101906102c79190611e3a565b61098e565b6040516102d99190612150565b60405180910390f35b3480156102ee57600080fd5b5061030960048036038101906103049190611c41565b610a40565b60405161031691906123b4565b60405180910390f35b34801561032b57600080fd5b50610334610af8565b60405161034191906121d2565b60405180910390f35b34801561035657600080fd5b50610371600480360381019061036c9190611d70565b610b8a565b005b34801561037f57600080fd5b50610388610ba0565b005b34801561039657600080fd5b506103b160048036038101906103ac9190611cf5565b610c04565b005b3480156103bf57600080fd5b506103c8610c66565b6040516103d591906123cf565b60405180910390f35b3480156103ea57600080fd5b5061040560048036038101906104009190611e3a565b610c84565b60405161041291906121d2565b60405180910390f35b34801561042757600080fd5b50610442600480360381019061043d9190611e3a565b610d2b565b005b34801561045057600080fd5b5061046b60048036038101906104669190611c6a565b610dac565b60405161047891906121b7565b60405180910390f35b34801561048d57600080fd5b506104a860048036038101906104a39190611e3a565b610e40565b005b60007f80ac58cd000000000000000000000000000000000000000000000000000000007bffffffffffffffffffffffffffffffffffffffffffffffffffffffff1916827bffffffffffffffffffffffffffffffffffffffffffffffffffffffff1916148061057557507f5b5e139f000000000000000000000000000000000000000000000000000000007bffffffffffffffffffffffffffffffffffffffffffffffffffffffff1916827bffffffffffffffffffffffffffffffffffffffffffffffffffffffff1916145b80610585575061058482610ea4565b5b9050919050565b60606000805461059b90612608565b80601f01602080910402602001604051908101604052809291908181526020018280546105c790612608565b80156106145780601f106105e957610100808354040283529160200191610614565b820191906000526020600020905b8154815290600101906020018083116105f757829003601f168201915b5050505050905090565b600061062982610f0e565b610668576040517f08c379a000000000000000000000000000000000000000000000000000000000815260040161065f90612334565b60405180910390fd5b6004600083815260200190815260200160002060009054906101000a900473ffffffffffffffffffffffffffffffffffffffff169050919050565b60006106ae8261098e565b90508073ffffffffffffffffffffffffffffffffffffffff168373ffffffffffffffffffffffffffffffffffffffff16141561071f576040517f08c379a000000000000000000000000000000000000000000000000000000000815260040161071690612374565b60405180910390fd5b8073ffffffffffffffffffffffffffffffffffffffff1661073e610f7a565b73ffffffffffffffffffffffffffffffffffffffff16148061076d575061076c81610767610f7a565b610dac565b5b6107ac576040517f08c379a00000000000000000000000000000000000000000000000000000000081526004016107a3906122b4565b60405180910390fd5b6107b68383610f82565b505050565b600047905090565b600760009054906101000a900473ffffffffffffffffffffffffffffffffffffffff1673ffffffffffffffffffffffffffffffffffffffff163373ffffffffffffffffffffffffffffffffffffffff161461081d57600080fd5b6000600760146101000a81548160ff021916908315150217905550565b61084b610845610f7a565b8261103b565b61088a576040517f08c379a000000000000000000000000000000000000000000000000000000000815260040161088190612394565b60405180910390fd5b610895838383611119565b505050565b60085434101580156108b85750600760149054906101000a900460ff165b6108c157600080fd5b6108c9611380565b565b600760009054906101000a900473ffffffffffffffffffffffffffffffffffffffff1673ffffffffffffffffffffffffffffffffffffffff163373ffffffffffffffffffffffffffffffffffffffff161461092557600080fd5b3373ffffffffffffffffffffffffffffffffffffffff166108fc479081150290604051600060405180830381858888f1935050505015801561096b573d6000803e3d6000fd5b50565b61098983838360405180602001604052806000815250610c04565b505050565b6000806002600084815260200190815260200160002060009054906101000a900473ffffffffffffffffffffffffffffffffffffffff169050600073ffffffffffffffffffffffffffffffffffffffff168173ffffffffffffffffffffffffffffffffffffffff161415610a37576040517f08c379a0000000000000000000000000000000000000000000000000000000008152600401610a2e906122f4565b60405180910390fd5b80915050919050565b60008073ffffffffffffffffffffffffffffffffffffffff168273ffffffffffffffffffffffffffffffffffffffff161415610ab1576040517f08c379a0000000000000000000000000000000000000000000000000000000008152600401610aa8906122d4565b60405180910390fd5b600360008373ffffffffffffffffffffffffffffffffffffffff1673ffffffffffffffffffffffffffffffffffffffff168152602001908152602001600020549050919050565b606060018054610b0790612608565b80601f0160208091040260200160405190810160405280929190818152602001828054610b3390612608565b8015610b805780601f10610b5557610100808354040283529160200191610b80565b820191906000526020600020905b815481529060010190602001808311610b6357829003601f168201915b5050505050905090565b610b9c610b95610f7a565b8383611445565b5050565b600760009054906101000a900473ffffffffffffffffffffffffffffffffffffffff1673ffffffffffffffffffffffffffffffffffffffff163373ffffffffffffffffffffffffffffffffffffffff1614610bfa57600080fd5b610c02611380565b565b610c15610c0f610f7a565b8361103b565b610c54576040517f08c379a0000000000000000000000000000000000000000000000000000000008152600401610c4b90612394565b60405180910390fd5b610c60848484846115b2565b50505050565b6000600660089054906101000a900467ffffffffffffffff16905090565b6060610c8f82610f0e565b610cce576040517f08c379a0000000000000000000000000000000000000000000000000000000008152600401610cc590612354565b60405180910390fd5b6000610cd861160e565b90506000815111610cf85760405180602001604052806000815250610d23565b80610d0284611625565b604051602001610d1392919061212c565b6040516020818303038152906040525b915050919050565b600760009054906101000a900473ffffffffffffffffffffffffffffffffffffffff1673ffffffffffffffffffffffffffffffffffffffff163373ffffffffffffffffffffffffffffffffffffffff1614610d8557600080fd5b6001600760146101000a81548160ff021916908315150217905550610da981610e40565b50565b6000600560008473ffffffffffffffffffffffffffffffffffffffff1673ffffffffffffffffffffffffffffffffffffffff16815260200190815260200160002060008373ffffffffffffffffffffffffffffffffffffffff1673ffffffffffffffffffffffffffffffffffffffff16815260200190815260200160002060009054906101000a900460ff16905092915050565b600760009054906101000a900473ffffffffffffffffffffffffffffffffffffffff1673ffffffffffffffffffffffffffffffffffffffff163373ffffffffffffffffffffffffffffffffffffffff1614610e9a57600080fd5b8060088190555050565b60007f01ffc9a7000000000000000000000000000000000000000000000000000000007bffffffffffffffffffffffffffffffffffffffffffffffffffffffff1916827bffffffffffffffffffffffffffffffffffffffffffffffffffffffff1916149050919050565b60008073ffffffffffffffffffffffffffffffffffffffff166002600084815260200190815260200160002060009054906101000a900473ffffffffffffffffffffffffffffffffffffffff1673ffffffffffffffffffffffffffffffffffffffff1614159050919050565b600033905090565b816004600083815260200190815260200160002060006101000a81548173ffffffffffffffffffffffffffffffffffffffff021916908373ffffffffffffffffffffffffffffffffffffffff160217905550808273ffffffffffffffffffffffffffffffffffffffff16610ff58361098e565b73ffffffffffffffffffffffffffffffffffffffff167f8c5be1e5ebec7d5bd14f71427d1e84f3dd0314c0f7b2291e5b200ac8c7c3b92560405160405180910390a45050565b600061104682610f0e565b611085576040517f08c379a000000000000000000000000000000000000000000000000000000000815260040161107c90612294565b60405180910390fd5b60006110908361098e565b90508073ffffffffffffffffffffffffffffffffffffffff168473ffffffffffffffffffffffffffffffffffffffff1614806110ff57508373ffffffffffffffffffffffffffffffffffffffff166110e78461061e565b73ffffffffffffffffffffffffffffffffffffffff16145b80611110575061110f8185610dac565b5b91505092915050565b8273ffffffffffffffffffffffffffffffffffffffff166111398261098e565b73ffffffffffffffffffffffffffffffffffffffff161461118f576040517f08c379a000000000000000000000000000000000000000000000000000000000815260040161118690612214565b60405180910390fd5b600073ffffffffffffffffffffffffffffffffffffffff168273ffffffffffffffffffffffffffffffffffffffff1614156111ff576040517f08c379a00000000000000000000000000000000000000000000000000000000081526004016111f690612254565b60405180910390fd5b61120a8383836117d2565b611215600082610f82565b6001600360008573ffffffffffffffffffffffffffffffffffffffff1673ffffffffffffffffffffffffffffffffffffffff1681526020019081526020016000206000828254611265919061250a565b925050819055506001600360008473ffffffffffffffffffffffffffffffffffffffff1673ffffffffffffffffffffffffffffffffffffffff16815260200190815260200160002060008282546112bc9190612483565b92505081905550816002600083815260200190815260200160002060006101000a81548173ffffffffffffffffffffffffffffffffffffffff021916908373ffffffffffffffffffffffffffffffffffffffff160217905550808273ffffffffffffffffffffffffffffffffffffffff168473ffffffffffffffffffffffffffffffffffffffff167fddf252ad1be2c89b69c2b068fc378daa952ba7f163c4a11628f55a4df523b3ef60405160405180910390a461137b8383836117d7565b505050565b600660009054906101000a900467ffffffffffffffff1667ffffffffffffffff16600660089054906101000a900467ffffffffffffffff1667ffffffffffffffff16106113cc57600080fd5b6006600881819054906101000a900467ffffffffffffffff16809291906113f2906126b4565b91906101000a81548167ffffffffffffffff021916908367ffffffffffffffff1602179055505061144333600660089054906101000a900467ffffffffffffffff1667ffffffffffffffff166117dc565b565b8173ffffffffffffffffffffffffffffffffffffffff168373ffffffffffffffffffffffffffffffffffffffff1614156114b4576040517f08c379a00000000000000000000000000000000000000000000000000000000081526004016114ab90612274565b60405180910390fd5b80600560008573ffffffffffffffffffffffffffffffffffffffff1673ffffffffffffffffffffffffffffffffffffffff16815260200190815260200160002060008473ffffffffffffffffffffffffffffffffffffffff1673ffffffffffffffffffffffffffffffffffffffff16815260200190815260200160002060006101000a81548160ff0219169083151502179055508173ffffffffffffffffffffffffffffffffffffffff168373ffffffffffffffffffffffffffffffffffffffff167f17307eab39ab6107e8899845ad3d59bd9653f200f220920489ca2b5937696c31836040516115a591906121b7565b60405180910390a3505050565b6115bd848484611119565b6115c9848484846119b6565b611608576040517f08c379a00000000000000000000000000000000000000000000000000000000081526004016115ff906121f4565b60405180910390fd5b50505050565b606060405180602001604052806000815250905090565b6060600082141561166d576040518060400160405280600181526020017f300000000000000000000000000000000000000000000000000000000000000081525090506117cd565b600082905060005b6000821461169f5780806116889061266b565b915050600a8261169891906124d9565b9150611675565b60008167ffffffffffffffff8111156116e1577f4e487b7100000000000000000000000000000000000000000000000000000000600052604160045260246000fd5b6040519080825280601f01601f1916602001820160405280156117135781602001600182028036833780820191505090505b5090505b600085146117c65760018261172c919061250a565b9150600a8561173b91906126e5565b60306117479190612483565b60f81b818381518110611783577f4e487b7100000000000000000000000000000000000000000000000000000000600052603260045260246000fd5b60200101907effffffffffffffffffffffffffffffffffffffffffffffffffffffffffffff1916908160001a905350600a856117bf91906124d9565b9450611717565b8093505050505b919050565b505050565b505050565b600073ffffffffffffffffffffffffffffffffffffffff168273ffffffffffffffffffffffffffffffffffffffff16141561184c576040517f08c379a000000000000000000000000000000000000000000000000000000000815260040161184390612314565b60405180910390fd5b61185581610f0e565b15611895576040517f08c379a000000000000000000000000000000000000000000000000000000000815260040161188c90612234565b60405180910390fd5b6118a1600083836117d2565b6001600360008473ffffffffffffffffffffffffffffffffffffffff1673ffffffffffffffffffffffffffffffffffffffff16815260200190815260200160002060008282546118f19190612483565b92505081905550816002600083815260200190815260200160002060006101000a81548173ffffffffffffffffffffffffffffffffffffffff021916908373ffffffffffffffffffffffffffffffffffffffff160217905550808273ffffffffffffffffffffffffffffffffffffffff16600073ffffffffffffffffffffffffffffffffffffffff167fddf252ad1be2c89b69c2b068fc378daa952ba7f163c4a11628f55a4df523b3ef60405160405180910390a46119b2600083836117d7565b5050565b60006119d78473ffffffffffffffffffffffffffffffffffffffff16611b4d565b15611b40578373ffffffffffffffffffffffffffffffffffffffff1663150b7a02611a00610f7a565b8786866040518563ffffffff1660e01b8152600401611a22949392919061216b565b602060405180830381600087803b158015611a3c57600080fd5b505af1925050508015611a6d57506040513d601f19601f82011682018060405250810190611a6a9190611e11565b60015b611af0573d8060008114611a9d576040519150601f19603f3d011682016040523d82523d6000602084013e611aa2565b606091505b50600081511415611ae8576040517f08c379a0000000000000000000000000000000000000000000000000000000008152600401611adf906121f4565b60405180910390fd5b805181602001fd5b63150b7a0260e01b7bffffffffffffffffffffffffffffffffffffffffffffffffffffffff1916817bffffffffffffffffffffffffffffffffffffffffffffffffffffffff191614915050611b45565b600190505b949350505050565b6000808273ffffffffffffffffffffffffffffffffffffffff163b119050919050565b6000611b83611b7e8461240f565b6123ea565b905082815260208101848484011115611b9b57600080fd5b611ba68482856125c6565b509392505050565b600081359050611bbd81612bc3565b92915050565b600081359050611bd281612bda565b92915050565b600081359050611be781612bf1565b92915050565b600081519050611bfc81612bf1565b92915050565b600082601f830112611c1357600080fd5b8135611c23848260208601611b70565b91505092915050565b600081359050611c3b81612c08565b92915050565b600060208284031215611c5357600080fd5b6000611c6184828501611bae565b91505092915050565b60008060408385031215611c7d57600080fd5b6000611c8b85828601611bae565b9250506020611c9c85828601611bae565b9150509250929050565b600080600060608486031215611cbb57600080fd5b6000611cc986828701611bae565b9350506020611cda86828701611bae565b9250506040611ceb86828701611c2c565b9150509250925092565b60008060008060808587031215611d0b57600080fd5b6000611d1987828801611bae565b9450506020611d2a87828801611bae565b9350506040611d3b87828801611c2c565b925050606085013567ffffffffffffffff811115611d5857600080fd5b611d6487828801611c02565b91505092959194509250565b60008060408385031215611d8357600080fd5b6000611d9185828601611bae565b9250506020611da285828601611bc3565b9150509250929050565b60008060408385031215611dbf57600080fd5b6000611dcd85828601611bae565b9250506020611dde85828601611c2c565b9150509250929050565b600060208284031215611dfa57600080fd5b6000611e0884828501611bd8565b91505092915050565b600060208284031215611e2357600080fd5b6000611e3184828501611bed565b91505092915050565b600060208284031215611e4c57600080fd5b6000611e5a84828501611c2c565b91505092915050565b611e6c8161253e565b82525050565b611e7b81612550565b82525050565b6000611e8c82612440565b611e968185612456565b9350611ea68185602086016125d5565b611eaf816127d2565b840191505092915050565b6000611ec58261244b565b611ecf8185612467565b9350611edf8185602086016125d5565b611ee8816127d2565b840191505092915050565b6000611efe8261244b565b611f088185612478565b9350611f188185602086016125d5565b80840191505092915050565b6000611f31603283612467565b9150611f3c826127e3565b604082019050919050565b6000611f54602583612467565b9150611f5f82612832565b604082019050919050565b6000611f77601c83612467565b9150611f8282612881565b602082019050919050565b6000611f9a602483612467565b9150611fa5826128aa565b604082019050919050565b6000611fbd601983612467565b9150611fc8826128f9565b602082019050919050565b6000611fe0602c83612467565b9150611feb82612922565b604082019050919050565b6000612003603883612467565b915061200e82612971565b604082019050919050565b6000612026602a83612467565b9150612031826129c0565b604082019050919050565b6000612049602983612467565b915061205482612a0f565b604082019050919050565b600061206c602083612467565b915061207782612a5e565b602082019050919050565b600061208f602c83612467565b915061209a82612a87565b604082019050919050565b60006120b2602f83612467565b91506120bd82612ad6565b604082019050919050565b60006120d5602183612467565b91506120e082612b25565b604082019050919050565b60006120f8603183612467565b915061210382612b74565b604082019050919050565b612117816125a8565b82525050565b612126816125b2565b82525050565b60006121388285611ef3565b91506121448284611ef3565b91508190509392505050565b60006020820190506121656000830184611e63565b92915050565b60006080820190506121806000830187611e63565b61218d6020830186611e63565b61219a604083018561210e565b81810360608301526121ac8184611e81565b905095945050505050565b60006020820190506121cc6000830184611e72565b92915050565b600060208201905081810360008301526121ec8184611eba565b905092915050565b6000602082019050818103600083015261220d81611f24565b9050919050565b6000602082019050818103600083015261222d81611f47565b9050919050565b6000602082019050818103600083015261224d81611f6a565b9050919050565b6000602082019050818103600083015261226d81611f8d565b9050919050565b6000602082019050818103600083015261228d81611fb0565b9050919050565b600060208201905081810360008301526122ad81611fd3565b9050919050565b600060208201905081810360008301526122cd81611ff6565b9050919050565b600060208201905081810360008301526122ed81612019565b9050919050565b6000602082019050818103600083015261230d8161203c565b9050919050565b6000602082019050818103600083015261232d8161205f565b9050919050565b6000602082019050818103600083015261234d81612082565b9050919050565b6000602082019050818103600083015261236d816120a5565b9050919050565b6000602082019050818103600083015261238d816120c8565b9050919050565b600060208201905081810360008301526123ad816120eb565b9050919050565b60006020820190506123c9600083018461210e565b92915050565b60006020820190506123e4600083018461211d565b92915050565b60006123f4612405565b9050612400828261263a565b919050565b6000604051905090565b600067ffffffffffffffff82111561242a576124296127a3565b5b612433826127d2565b9050602081019050919050565b600081519050919050565b600081519050919050565b600082825260208201905092915050565b600082825260208201905092915050565b600081905092915050565b600061248e826125a8565b9150612499836125a8565b9250827fffffffffffffffffffffffffffffffffffffffffffffffffffffffffffffffff038211156124ce576124cd612716565b5b828201905092915050565b60006124e4826125a8565b91506124ef836125a8565b9250826124ff576124fe612745565b5b828204905092915050565b6000612515826125a8565b9150612520836125a8565b92508282101561253357612532612716565b5b828203905092915050565b600061254982612588565b9050919050565b60008115159050919050565b60007fffffffff0000000000000000000000000000000000000000000000000000000082169050919050565b600073ffffffffffffffffffffffffffffffffffffffff82169050919050565b6000819050919050565b600067ffffffffffffffff82169050919050565b82818337600083830152505050565b60005b838110156125f35780820151818401526020810190506125d8565b83811115612602576000848401525b50505050565b6000600282049050600182168061262057607f821691505b6020821081141561263457612633612774565b5b50919050565b612643826127d2565b810181811067ffffffffffffffff82111715612662576126616127a3565b5b80604052505050565b6000612676826125a8565b91507fffffffffffffffffffffffffffffffffffffffffffffffffffffffffffffffff8214156126a9576126a8612716565b5b600182019050919050565b60006126bf826125b2565b915067ffffffffffffffff8214156126da576126d9612716565b5b600182019050919050565b60006126f0826125a8565b91506126fb836125a8565b92508261270b5761270a612745565b5b828206905092915050565b7f4e487b7100000000000000000000000000000000000000000000000000000000600052601160045260246000fd5b7f4e487b7100000000000000000000000000000000000000000000000000000000600052601260045260246000fd5b7f4e487b7100000000000000000000000000000000000000000000000000000000600052602260045260246000fd5b7f4e487b7100000000000000000000000000000000000000000000000000000000600052604160045260246000fd5b6000601f19601f8301169050919050565b7f4552433732313a207472616e7366657220746f206e6f6e20455243373231526560008201527f63656976657220696d706c656d656e7465720000000000000000000000000000602082015250565b7f4552433732313a207472616e736665722066726f6d20696e636f72726563742060008201527f6f776e6572000000000000000000000000000000000000000000000000000000602082015250565b7f4552433732313a20746f6b656e20616c7265616479206d696e74656400000000600082015250565b7f4552433732313a207472616e7366657220746f20746865207a65726f2061646460008201527f7265737300000000000000000000000000000000000000000000000000000000602082015250565b7f4552433732313a20617070726f766520746f2063616c6c657200000000000000600082015250565b7f4552433732313a206f70657261746f7220717565727920666f72206e6f6e657860008201527f697374656e7420746f6b656e0000000000000000000000000000000000000000602082015250565b7f4552433732313a20617070726f76652063616c6c6572206973206e6f74206f7760008201527f6e6572206e6f7220617070726f76656420666f7220616c6c0000000000000000602082015250565b7f4552433732313a2062616c616e636520717565727920666f7220746865207a6560008201527f726f206164647265737300000000000000000000000000000000000000000000602082015250565b7f4552433732313a206f776e657220717565727920666f72206e6f6e657869737460008201527f656e7420746f6b656e0000000000000000000000000000000000000000000000602082015250565b7f4552433732313a206d696e7420746f20746865207a65726f2061646472657373600082015250565b7f4552433732313a20617070726f76656420717565727920666f72206e6f6e657860008201527f697374656e7420746f6b656e0000000000000000000000000000000000000000602082015250565b7f4552433732314d657461646174613a2055524920717565727920666f72206e6f60008201527f6e6578697374656e7420746f6b656e0000000000000000000000000000000000602082015250565b7f4552433732313a20617070726f76616c20746f2063757272656e74206f776e6560008201527f7200000000000000000000000000000000000000000000000000000000000000602082015250565b7f4552433732313a207472616e736665722063616c6c6572206973206e6f74206f60008201527f776e6572206e6f7220617070726f766564000000000000000000000000000000602082015250565b612bcc8161253e565b8114612bd757600080fd5b50565b612be381612550565b8114612bee57600080fd5b50565b612bfa8161255c565b8114612c0557600080fd5b50565b612c11816125a8565b8114612c1c57600080fd5b5056fea26469706673582212206d4e1d2b07a8b7f5b32f6e2e86d0dd70b1a1feb3dc01c278dab018c042272cbd64736f6c63430008010033",
  "immutableReferences": {},
  "source": "// SPDX-License-Identifier: MIT\npragma solidity >=0.6.0 <0.9.0;\n\nimport \"@openzeppelin/contracts/token/ERC721/ERC721.sol\";\n\ncontract ERC721Capped is ERC721 {\n\n    uint64 _maxTokens;\n    uint64 _totalTokens;\n    address owner;\n    bool _isOpen;\n    uint _nftPrice;\n\n    constructor(string memory name, string memory symbol, uint64 cap) ERC721(name, symbol){\n        _maxTokens = cap;\n        _totalTokens = 0;\n        owner = msg.sender;\n        _isOpen = false;\n        _nftPrice = 0;\n    }\n\n    modifier onlyOwner {\n        require(msg.sender == owner);\n        _;\n    }\n\n    function getTotalSupply() public view returns (uint64) {\n        return _totalTokens;\n    }\n\n    function getBalance() public view returns (uint256) {\n        return address(this).balance;\n    }\n    \n    function _createNFT() internal {\n        require(_totalTokens < _maxTokens);\n        _totalTokens++;\n        _mint(msg.sender, _totalTokens);\n    }\n\n    function ownerMint() external onlyOwner {\n       _createNFT();\n    }\n\n    function publicMint() external payable {\n        require(msg.value >= _nftPrice && _isOpen);\n        _createNFT();\n    }\n\n    function setMintPrice(uint newNftPrice) public onlyOwner {\n        _nftPrice = newNftPrice;\n    }\n\n    function openSales(uint newNftPrice) public onlyOwner {\n        _isOpen = true;\n        setMintPrice(newNftPrice);\n    }\n\n    function closeSales() external onlyOwner {\n        _isOpen = false;\n    }\n\n    function withdraw() public payable onlyOwner {\n        payable(msg.sender).transfer(address(this).balance);\n    }\n}",
  "sourcePath": "/home/borg/Documents/Insper/Blockchain/Entregaveis/2022.1/JoaoMagalhaes/Truffle-React-Template/src/contracts/ERC721Capped.sol",
  "compiler": {
    "name": "solc",
    "version": "0.8.1+commit.df193b15.Emscripten.clang"
  },
  "schemaVersion": "3.4.7",
  "updatedAt": "2022-06-24T01:28:02.719Z",
  "devdoc": {
    "kind": "dev",
    "methods": {
      "approve(address,uint256)": {
        "details": "See {IERC721-approve}."
      },
      "balanceOf(address)": {
        "details": "See {IERC721-balanceOf}."
      },
      "getApproved(uint256)": {
        "details": "See {IERC721-getApproved}."
      },
      "isApprovedForAll(address,address)": {
        "details": "See {IERC721-isApprovedForAll}."
      },
      "name()": {
        "details": "See {IERC721Metadata-name}."
      },
      "ownerOf(uint256)": {
        "details": "See {IERC721-ownerOf}."
      },
      "safeTransferFrom(address,address,uint256)": {
        "details": "See {IERC721-safeTransferFrom}."
      },
      "safeTransferFrom(address,address,uint256,bytes)": {
        "details": "See {IERC721-safeTransferFrom}."
      },
      "setApprovalForAll(address,bool)": {
        "details": "See {IERC721-setApprovalForAll}."
      },
      "supportsInterface(bytes4)": {
        "details": "See {IERC165-supportsInterface}."
      },
      "symbol()": {
        "details": "See {IERC721Metadata-symbol}."
      },
      "tokenURI(uint256)": {
        "details": "See {IERC721Metadata-tokenURI}."
      },
      "transferFrom(address,address,uint256)": {
        "details": "See {IERC721-transferFrom}."
      }
    },
    "version": 1
  },
  "userdoc": {
    "kind": "user",
    "methods": {},
    "version": 1
  }
}