{
  "contractName": "entregavel",
  "abi": [
    {
      "inputs": [
        {
          "internalType": "string",
          "name": "_name",
          "type": "string"
        },
        {
          "internalType": "string",
          "name": "_symbol",
          "type": "string"
        },
        {
          "internalType": "uint64",
          "name": "cap",
          "type": "uint64"
        }
      ],
      "stateMutability": "nonpayable",
      "type": "constructor"
    },
    {
      "anonymous": false,
      "inputs": [
        {
          "indexed": true,
          "internalType": "address",
          "name": "owner",
          "type": "address"
        },
        {
          "indexed": true,
          "internalType": "address",
          "name": "approved",
          "type": "address"
        },
        {
          "indexed": true,
          "internalType": "uint256",
          "name": "tokenId",
          "type": "uint256"
        }
      ],
      "name": "Approval",
      "type": "event"
    },
    {
      "anonymous": false,
      "inputs": [
        {
          "indexed": true,
          "internalType": "address",
          "name": "owner",
          "type": "address"
        },
        {
          "indexed": true,
          "internalType": "address",
          "name": "operator",
          "type": "address"
        },
        {
          "indexed": false,
          "internalType": "bool",
          "name": "approved",
          "type": "bool"
        }
      ],
      "name": "ApprovalForAll",
      "type": "event"
    },
    {
      "anonymous": false,
      "inputs": [
        {
          "indexed": true,
          "internalType": "address",
          "name": "previousOwner",
          "type": "address"
        },
        {
          "indexed": true,
          "internalType": "address",
          "name": "newOwner",
          "type": "address"
        }
      ],
      "name": "OwnershipTransferred",
      "type": "event"
    },
    {
      "anonymous": false,
      "inputs": [
        {
          "indexed": true,
          "internalType": "address",
          "name": "from",
          "type": "address"
        },
        {
          "indexed": true,
          "internalType": "address",
          "name": "to",
          "type": "address"
        },
        {
          "indexed": true,
          "internalType": "uint256",
          "name": "tokenId",
          "type": "uint256"
        }
      ],
      "name": "Transfer",
      "type": "event"
    },
    {
      "inputs": [
        {
          "internalType": "address",
          "name": "to",
          "type": "address"
        },
        {
          "internalType": "uint256",
          "name": "tokenId",
          "type": "uint256"
        }
      ],
      "name": "approve",
      "outputs": [],
      "stateMutability": "nonpayable",
      "type": "function"
    },
    {
      "inputs": [
        {
          "internalType": "address",
          "name": "owner",
          "type": "address"
        }
      ],
      "name": "balanceOf",
      "outputs": [
        {
          "internalType": "uint256",
          "name": "",
          "type": "uint256"
        }
      ],
      "stateMutability": "view",
      "type": "function"
    },
    {
      "inputs": [],
      "name": "canMint",
      "outputs": [
        {
          "internalType": "bool",
          "name": "",
          "type": "bool"
        }
      ],
      "stateMutability": "view",
      "type": "function"
    },
    {
      "inputs": [
        {
          "internalType": "uint256",
          "name": "tokenId",
          "type": "uint256"
        }
      ],
      "name": "getApproved",
      "outputs": [
        {
          "internalType": "address",
          "name": "",
          "type": "address"
        }
      ],
      "stateMutability": "view",
      "type": "function"
    },
    {
      "inputs": [
        {
          "internalType": "address",
          "name": "owner",
          "type": "address"
        },
        {
          "internalType": "address",
          "name": "operator",
          "type": "address"
        }
      ],
      "name": "isApprovedForAll",
      "outputs": [
        {
          "internalType": "bool",
          "name": "",
          "type": "bool"
        }
      ],
      "stateMutability": "view",
      "type": "function"
    },
    {
      "inputs": [],
      "name": "maxSupply",
      "outputs": [
        {
          "internalType": "uint256",
          "name": "",
          "type": "uint256"
        }
      ],
      "stateMutability": "view",
      "type": "function"
    },
    {
      "inputs": [],
      "name": "mintPrice",
      "outputs": [
        {
          "internalType": "uint256",
          "name": "",
          "type": "uint256"
        }
      ],
      "stateMutability": "view",
      "type": "function"
    },
    {
      "inputs": [],
      "name": "name",
      "outputs": [
        {
          "internalType": "string",
          "name": "",
          "type": "string"
        }
      ],
      "stateMutability": "view",
      "type": "function"
    },
    {
      "inputs": [],
      "name": "owner",
      "outputs": [
        {
          "internalType": "address",
          "name": "",
          "type": "address"
        }
      ],
      "stateMutability": "view",
      "type": "function"
    },
    {
      "inputs": [
        {
          "internalType": "uint256",
          "name": "tokenId",
          "type": "uint256"
        }
      ],
      "name": "ownerOf",
      "outputs": [
        {
          "internalType": "address",
          "name": "",
          "type": "address"
        }
      ],
      "stateMutability": "view",
      "type": "function"
    },
    {
      "inputs": [],
      "name": "renounceOwnership",
      "outputs": [],
      "stateMutability": "nonpayable",
      "type": "function"
    },
    {
      "inputs": [
        {
          "internalType": "address",
          "name": "from",
          "type": "address"
        },
        {
          "internalType": "address",
          "name": "to",
          "type": "address"
        },
        {
          "internalType": "uint256",
          "name": "tokenId",
          "type": "uint256"
        }
      ],
      "name": "safeTransferFrom",
      "outputs": [],
      "stateMutability": "nonpayable",
      "type": "function"
    },
    {
      "inputs": [
        {
          "internalType": "address",
          "name": "from",
          "type": "address"
        },
        {
          "internalType": "address",
          "name": "to",
          "type": "address"
        },
        {
          "internalType": "uint256",
          "name": "tokenId",
          "type": "uint256"
        },
        {
          "internalType": "bytes",
          "name": "_data",
          "type": "bytes"
        }
      ],
      "name": "safeTransferFrom",
      "outputs": [],
      "stateMutability": "nonpayable",
      "type": "function"
    },
    {
      "inputs": [
        {
          "internalType": "address",
          "name": "operator",
          "type": "address"
        },
        {
          "internalType": "bool",
          "name": "approved",
          "type": "bool"
        }
      ],
      "name": "setApprovalForAll",
      "outputs": [],
      "stateMutability": "nonpayable",
      "type": "function"
    },
    {
      "inputs": [
        {
          "internalType": "bytes4",
          "name": "interfaceId",
          "type": "bytes4"
        }
      ],
      "name": "supportsInterface",
      "outputs": [
        {
          "internalType": "bool",
          "name": "",
          "type": "bool"
        }
      ],
      "stateMutability": "view",
      "type": "function"
    },
    {
      "inputs": [],
      "name": "symbol",
      "outputs": [
        {
          "internalType": "string",
          "name": "",
          "type": "string"
        }
      ],
      "stateMutability": "view",
      "type": "function"
    },
    {
      "inputs": [
        {
          "internalType": "uint256",
          "name": "tokenId",
          "type": "uint256"
        }
      ],
      "name": "tokenURI",
      "outputs": [
        {
          "internalType": "string",
          "name": "",
          "type": "string"
        }
      ],
      "stateMutability": "view",
      "type": "function"
    },
    {
      "inputs": [],
      "name": "totalSupply",
      "outputs": [
        {
          "internalType": "uint256",
          "name": "",
          "type": "uint256"
        }
      ],
      "stateMutability": "view",
      "type": "function"
    },
    {
      "inputs": [
        {
          "internalType": "address",
          "name": "from",
          "type": "address"
        },
        {
          "internalType": "address",
          "name": "to",
          "type": "address"
        },
        {
          "internalType": "uint256",
          "name": "tokenId",
          "type": "uint256"
        }
      ],
      "name": "transferFrom",
      "outputs": [],
      "stateMutability": "nonpayable",
      "type": "function"
    },
    {
      "inputs": [
        {
          "internalType": "address",
          "name": "newOwner",
          "type": "address"
        }
      ],
      "name": "transferOwnership",
      "outputs": [],
      "stateMutability": "nonpayable",
      "type": "function"
    },
    {
      "inputs": [],
      "name": "getTotalSupply",
      "outputs": [
        {
          "internalType": "uint256",
          "name": "",
          "type": "uint256"
        }
      ],
      "stateMutability": "view",
      "type": "function"
    },
    {
      "inputs": [],
      "name": "getBalance",
      "outputs": [
        {
          "internalType": "uint256",
          "name": "",
          "type": "uint256"
        }
      ],
      "stateMutability": "view",
      "type": "function"
    },
    {
      "inputs": [],
      "name": "ownerMint",
      "outputs": [],
      "stateMutability": "nonpayable",
      "type": "function"
    },
    {
      "inputs": [],
      "name": "publicMint",
      "outputs": [],
      "stateMutability": "payable",
      "type": "function"
    },
    {
      "inputs": [
        {
          "internalType": "uint256",
          "name": "_mintPrice",
          "type": "uint256"
        }
      ],
      "name": "openSales",
      "outputs": [],
      "stateMutability": "nonpayable",
      "type": "function"
    },
    {
      "inputs": [],
      "name": "closeSales",
      "outputs": [],
      "stateMutability": "nonpayable",
      "type": "function"
    },
    {
      "inputs": [],
      "name": "withdraw",
      "outputs": [],
      "stateMutability": "payable",
      "type": "function"
    }
  ],
  "bytecode": "0x608060405267010016530d5998006007553480156200001d57600080fd5b506040516200392e3803806200392e83398181016040528101906200004391906200030a565b828281600090805190602001906200005d929190620001d1565b50806001908051906020019062000076929190620001d1565b505050620000996200008d6200010360201b60201c565b6200010b60201b60201c565b60008167ffffffffffffffff1611620000e9576040517f08c379a0000000000000000000000000000000000000000000000000000000008152600401620000e090620003b9565b60405180910390fd5b8067ffffffffffffffff16600981905550505050620005b3565b600033905090565b6000600660009054906101000a900473ffffffffffffffffffffffffffffffffffffffff16905081600660006101000a81548173ffffffffffffffffffffffffffffffffffffffff021916908373ffffffffffffffffffffffffffffffffffffffff1602179055508173ffffffffffffffffffffffffffffffffffffffff168173ffffffffffffffffffffffffffffffffffffffff167f8be0079c531659141344cd1fd0a4f28419497f9722a3daafe3b4186f6b6457e060405160405180910390a35050565b828054620001df9062000495565b90600052602060002090601f0160209004810192826200020357600085556200024f565b82601f106200021e57805160ff19168380011785556200024f565b828001600101855582156200024f579182015b828111156200024e57825182559160200191906001019062000231565b5b5090506200025e919062000262565b5090565b5b808211156200027d57600081600090555060010162000263565b5090565b600062000298620002928462000404565b620003db565b905082815260208101848484011115620002b157600080fd5b620002be8482856200045f565b509392505050565b600082601f830112620002d857600080fd5b8151620002ea84826020860162000281565b91505092915050565b600081519050620003048162000599565b92915050565b6000806000606084860312156200032057600080fd5b600084015167ffffffffffffffff8111156200033b57600080fd5b6200034986828701620002c6565b935050602084015167ffffffffffffffff8111156200036757600080fd5b6200037586828701620002c6565b92505060406200038886828701620002f3565b9150509250925092565b6000620003a16020836200043a565b9150620003ae8262000570565b602082019050919050565b60006020820190508181036000830152620003d48162000392565b9050919050565b6000620003e7620003fa565b9050620003f58282620004cb565b919050565b6000604051905090565b600067ffffffffffffffff82111562000422576200042162000530565b5b6200042d826200055f565b9050602081019050919050565b600082825260208201905092915050565b600067ffffffffffffffff82169050919050565b60005b838110156200047f57808201518184015260208101905062000462565b838111156200048f576000848401525b50505050565b60006002820490506001821680620004ae57607f821691505b60208210811415620004c557620004c462000501565b5b50919050565b620004d6826200055f565b810181811067ffffffffffffffff82111715620004f857620004f762000530565b5b80604052505050565b7f4e487b7100000000000000000000000000000000000000000000000000000000600052602260045260246000fd5b7f4e487b7100000000000000000000000000000000000000000000000000000000600052604160045260246000fd5b6000601f19601f8301169050919050565b7f4572726f203a204361706163696461646520646520746f6b656e73206e756c61600082015250565b620005a4816200044b565b8114620005b057600080fd5b50565b61336b80620005c36000396000f3fe60806040526004361061019c5760003560e01c806370a08231116100ec578063beb9716d1161008a578063d5abeb0111610064578063d5abeb0114610550578063dd3691e61461057b578063e985e9c5146105a4578063f2fde38b146105e15761019c565b8063beb9716d146104bd578063c4e41b22146104e8578063c87b56dd146105135761019c565b806395d89b41116100c657806395d89b4114610429578063a22cb46514610454578063b12dc9911461047d578063b88d4fde146104945761019c565b806370a08231146103aa578063715018a6146103e75780638da5cb5b146103fe5761019c565b806318160ddd116101595780633ccfd60b116101335780633ccfd60b1461030f57806342842e0e146103195780636352211e146103425780636817c76c1461037f5761019c565b806318160ddd146102b157806323b872dd146102dc57806326092b83146103055761019c565b806301ffc9a7146101a157806306fdde03146101de578063081812fc14610209578063095ea7b31461024657806312065fe01461026f57806315a8f0731461029a575b600080fd5b3480156101ad57600080fd5b506101c860048036038101906101c3919061234b565b61060a565b6040516101d59190612797565b60405180910390f35b3480156101ea57600080fd5b506101f36106ec565b60405161020091906127b2565b60405180910390f35b34801561021557600080fd5b50610230600480360381019061022b919061239d565b61077e565b60405161023d9190612730565b60405180910390f35b34801561025257600080fd5b5061026d6004803603810190610268919061230f565b610803565b005b34801561027b57600080fd5b5061028461091b565b6040516102919190612a14565b60405180910390f35b3480156102a657600080fd5b506102af610923565b005b3480156102bd57600080fd5b506102c66109bc565b6040516102d39190612a14565b60405180910390f35b3480156102e857600080fd5b5061030360048036038101906102fe9190612209565b6109c2565b005b61030d610a22565b005b610317610a89565b005b34801561032557600080fd5b50610340600480360381019061033b9190612209565b610b4e565b005b34801561034e57600080fd5b506103696004803603810190610364919061239d565b610b6e565b6040516103769190612730565b60405180910390f35b34801561038b57600080fd5b50610394610c20565b6040516103a19190612a14565b60405180910390f35b3480156103b657600080fd5b506103d160048036038101906103cc91906121a4565b610c26565b6040516103de9190612a14565b60405180910390f35b3480156103f357600080fd5b506103fc610cde565b005b34801561040a57600080fd5b50610413610d66565b6040516104209190612730565b60405180910390f35b34801561043557600080fd5b5061043e610d90565b60405161044b91906127b2565b60405180910390f35b34801561046057600080fd5b5061047b600480360381019061047691906122d3565b610e22565b005b34801561048957600080fd5b50610492610e38565b005b3480156104a057600080fd5b506104bb60048036038101906104b69190612258565b610ebe565b005b3480156104c957600080fd5b506104d2610f20565b6040516104df9190612797565b60405180910390f35b3480156104f457600080fd5b506104fd610f33565b60405161050a9190612a14565b60405180910390f35b34801561051f57600080fd5b5061053a6004803603810190610535919061239d565b610f3d565b60405161054791906127b2565b60405180910390f35b34801561055c57600080fd5b50610565610fe4565b6040516105729190612a14565b60405180910390f35b34801561058757600080fd5b506105a2600480360381019061059d919061239d565b610fea565b005b3480156105b057600080fd5b506105cb60048036038101906105c691906121cd565b61108d565b6040516105d89190612797565b60405180910390f35b3480156105ed57600080fd5b50610608600480360381019061060391906121a4565b611121565b005b60007f80ac58cd000000000000000000000000000000000000000000000000000000007bffffffffffffffffffffffffffffffffffffffffffffffffffffffff1916827bffffffffffffffffffffffffffffffffffffffffffffffffffffffff191614806106d557507f5b5e139f000000000000000000000000000000000000000000000000000000007bffffffffffffffffffffffffffffffffffffffffffffffffffffffff1916827bffffffffffffffffffffffffffffffffffffffffffffffffffffffff1916145b806106e557506106e482611219565b5b9050919050565b6060600080546106fb90612c39565b80601f016020809104026020016040519081016040528092919081815260200182805461072790612c39565b80156107745780601f1061074957610100808354040283529160200191610774565b820191906000526020600020905b81548152906001019060200180831161075757829003601f168201915b5050505050905090565b600061078982611283565b6107c8576040517f08c379a00000000000000000000000000000000000000000000000000000000081526004016107bf90612934565b60405180910390fd5b6004600083815260200190815260200160002060009054906101000a900473ffffffffffffffffffffffffffffffffffffffff169050919050565b600061080e82610b6e565b90508073ffffffffffffffffffffffffffffffffffffffff168373ffffffffffffffffffffffffffffffffffffffff16141561087f576040517f08c379a000000000000000000000000000000000000000000000000000000000815260040161087690612994565b60405180910390fd5b8073ffffffffffffffffffffffffffffffffffffffff1661089e6112ef565b73ffffffffffffffffffffffffffffffffffffffff1614806108cd57506108cc816108c76112ef565b61108d565b5b61090c576040517f08c379a0000000000000000000000000000000000000000000000000000000008152600401610903906128b4565b60405180910390fd5b61091683836112f7565b505050565b600047905090565b61092b6112ef565b73ffffffffffffffffffffffffffffffffffffffff16610949610d66565b73ffffffffffffffffffffffffffffffffffffffff161461099f576040517f08c379a000000000000000000000000000000000000000000000000000000000815260040161099690612954565b60405180910390fd5b6000600a60006101000a81548160ff021916908315150217905550565b60085481565b6109d36109cd6112ef565b826113b0565b610a12576040517f08c379a0000000000000000000000000000000000000000000000000000000008152600401610a09906129d4565b60405180910390fd5b610a1d83838361148e565b505050565b6007543411610a66576040517f08c379a0000000000000000000000000000000000000000000000000000000008152600401610a5d906129b4565b60405180910390fd5b600a60009054906101000a900460ff16610a7f57600080fd5b610a876116f5565b565b610a916112ef565b73ffffffffffffffffffffffffffffffffffffffff16610aaf610d66565b73ffffffffffffffffffffffffffffffffffffffff1614610b05576040517f08c379a0000000000000000000000000000000000000000000000000000000008152600401610afc90612954565b60405180910390fd5b3373ffffffffffffffffffffffffffffffffffffffff166108fc479081150290604051600060405180830381858888f19350505050158015610b4b573d6000803e3d6000fd5b50565b610b6983838360405180602001604052806000815250610ebe565b505050565b6000806002600084815260200190815260200160002060009054906101000a900473ffffffffffffffffffffffffffffffffffffffff169050600073ffffffffffffffffffffffffffffffffffffffff168173ffffffffffffffffffffffffffffffffffffffff161415610c17576040517f08c379a0000000000000000000000000000000000000000000000000000000008152600401610c0e906128f4565b60405180910390fd5b80915050919050565b60075481565b60008073ffffffffffffffffffffffffffffffffffffffff168273ffffffffffffffffffffffffffffffffffffffff161415610c97576040517f08c379a0000000000000000000000000000000000000000000000000000000008152600401610c8e906128d4565b60405180910390fd5b600360008373ffffffffffffffffffffffffffffffffffffffff1673ffffffffffffffffffffffffffffffffffffffff168152602001908152602001600020549050919050565b610ce66112ef565b73ffffffffffffffffffffffffffffffffffffffff16610d04610d66565b73ffffffffffffffffffffffffffffffffffffffff1614610d5a576040517f08c379a0000000000000000000000000000000000000000000000000000000008152600401610d5190612954565b60405180910390fd5b610d6460006117e3565b565b6000600660009054906101000a900473ffffffffffffffffffffffffffffffffffffffff16905090565b606060018054610d9f90612c39565b80601f0160208091040260200160405190810160405280929190818152602001828054610dcb90612c39565b8015610e185780601f10610ded57610100808354040283529160200191610e18565b820191906000526020600020905b815481529060010190602001808311610dfb57829003601f168201915b5050505050905090565b610e34610e2d6112ef565b83836118a9565b5050565b610e406112ef565b73ffffffffffffffffffffffffffffffffffffffff16610e5e610d66565b73ffffffffffffffffffffffffffffffffffffffff1614610eb4576040517f08c379a0000000000000000000000000000000000000000000000000000000008152600401610eab90612954565b60405180910390fd5b610ebc6116f5565b565b610ecf610ec96112ef565b836113b0565b610f0e576040517f08c379a0000000000000000000000000000000000000000000000000000000008152600401610f05906129d4565b60405180910390fd5b610f1a84848484611a16565b50505050565b600a60009054906101000a900460ff1681565b6000600854905090565b6060610f4882611283565b610f87576040517f08c379a0000000000000000000000000000000000000000000000000000000008152600401610f7e90612974565b60405180910390fd5b6000610f91611a72565b90506000815111610fb15760405180602001604052806000815250610fdc565b80610fbb84611a89565b604051602001610fcc92919061270c565b6040516020818303038152906040525b915050919050565b60095481565b610ff26112ef565b73ffffffffffffffffffffffffffffffffffffffff16611010610d66565b73ffffffffffffffffffffffffffffffffffffffff1614611066576040517f08c379a000000000000000000000000000000000000000000000000000000000815260040161105d90612954565b60405180910390fd5b6001600a60006101000a81548160ff02191690831515021790555061108a81611c36565b50565b6000600560008473ffffffffffffffffffffffffffffffffffffffff1673ffffffffffffffffffffffffffffffffffffffff16815260200190815260200160002060008373ffffffffffffffffffffffffffffffffffffffff1673ffffffffffffffffffffffffffffffffffffffff16815260200190815260200160002060009054906101000a900460ff16905092915050565b6111296112ef565b73ffffffffffffffffffffffffffffffffffffffff16611147610d66565b73ffffffffffffffffffffffffffffffffffffffff161461119d576040517f08c379a000000000000000000000000000000000000000000000000000000000815260040161119490612954565b60405180910390fd5b600073ffffffffffffffffffffffffffffffffffffffff168173ffffffffffffffffffffffffffffffffffffffff16141561120d576040517f08c379a0000000000000000000000000000000000000000000000000000000008152600401611204906127f4565b60405180910390fd5b611216816117e3565b50565b60007f01ffc9a7000000000000000000000000000000000000000000000000000000007bffffffffffffffffffffffffffffffffffffffffffffffffffffffff1916827bffffffffffffffffffffffffffffffffffffffffffffffffffffffff1916149050919050565b60008073ffffffffffffffffffffffffffffffffffffffff166002600084815260200190815260200160002060009054906101000a900473ffffffffffffffffffffffffffffffffffffffff1673ffffffffffffffffffffffffffffffffffffffff1614159050919050565b600033905090565b816004600083815260200190815260200160002060006101000a81548173ffffffffffffffffffffffffffffffffffffffff021916908373ffffffffffffffffffffffffffffffffffffffff160217905550808273ffffffffffffffffffffffffffffffffffffffff1661136a83610b6e565b73ffffffffffffffffffffffffffffffffffffffff167f8c5be1e5ebec7d5bd14f71427d1e84f3dd0314c0f7b2291e5b200ac8c7c3b92560405160405180910390a45050565b60006113bb82611283565b6113fa576040517f08c379a00000000000000000000000000000000000000000000000000000000081526004016113f190612894565b60405180910390fd5b600061140583610b6e565b90508073ffffffffffffffffffffffffffffffffffffffff168473ffffffffffffffffffffffffffffffffffffffff1614806114475750611446818561108d565b5b8061148557508373ffffffffffffffffffffffffffffffffffffffff1661146d8461077e565b73ffffffffffffffffffffffffffffffffffffffff16145b91505092915050565b8273ffffffffffffffffffffffffffffffffffffffff166114ae82610b6e565b73ffffffffffffffffffffffffffffffffffffffff1614611504576040517f08c379a00000000000000000000000000000000000000000000000000000000081526004016114fb90612814565b60405180910390fd5b600073ffffffffffffffffffffffffffffffffffffffff168273ffffffffffffffffffffffffffffffffffffffff161415611574576040517f08c379a000000000000000000000000000000000000000000000000000000000815260040161156b90612854565b60405180910390fd5b61157f838383611cbc565b61158a6000826112f7565b6001600360008573ffffffffffffffffffffffffffffffffffffffff1673ffffffffffffffffffffffffffffffffffffffff16815260200190815260200160002060008282546115da9190612b4f565b925050819055506001600360008473ffffffffffffffffffffffffffffffffffffffff1673ffffffffffffffffffffffffffffffffffffffff16815260200190815260200160002060008282546116319190612ac8565b92505081905550816002600083815260200190815260200160002060006101000a81548173ffffffffffffffffffffffffffffffffffffffff021916908373ffffffffffffffffffffffffffffffffffffffff160217905550808273ffffffffffffffffffffffffffffffffffffffff168473ffffffffffffffffffffffffffffffffffffffff167fddf252ad1be2c89b69c2b068fc378daa952ba7f163c4a11628f55a4df523b3ef60405160405180910390a46116f0838383611cc1565b505050565b6116fd6112ef565b73ffffffffffffffffffffffffffffffffffffffff1661171b610d66565b73ffffffffffffffffffffffffffffffffffffffff1614611771576040517f08c379a000000000000000000000000000000000000000000000000000000000815260040161176890612954565b60405180910390fd5b600954600854106117b7576040517f08c379a00000000000000000000000000000000000000000000000000000000081526004016117ae906129f4565b60405180910390fd5b60006008549050600860008154809291906117d190612c9c565b91905055506117e03382611cc6565b50565b6000600660009054906101000a900473ffffffffffffffffffffffffffffffffffffffff16905081600660006101000a81548173ffffffffffffffffffffffffffffffffffffffff021916908373ffffffffffffffffffffffffffffffffffffffff1602179055508173ffffffffffffffffffffffffffffffffffffffff168173ffffffffffffffffffffffffffffffffffffffff167f8be0079c531659141344cd1fd0a4f28419497f9722a3daafe3b4186f6b6457e060405160405180910390a35050565b8173ffffffffffffffffffffffffffffffffffffffff168373ffffffffffffffffffffffffffffffffffffffff161415611918576040517f08c379a000000000000000000000000000000000000000000000000000000000815260040161190f90612874565b60405180910390fd5b80600560008573ffffffffffffffffffffffffffffffffffffffff1673ffffffffffffffffffffffffffffffffffffffff16815260200190815260200160002060008473ffffffffffffffffffffffffffffffffffffffff1673ffffffffffffffffffffffffffffffffffffffff16815260200190815260200160002060006101000a81548160ff0219169083151502179055508173ffffffffffffffffffffffffffffffffffffffff168373ffffffffffffffffffffffffffffffffffffffff167f17307eab39ab6107e8899845ad3d59bd9653f200f220920489ca2b5937696c3183604051611a099190612797565b60405180910390a3505050565b611a2184848461148e565b611a2d84848484611ce4565b611a6c576040517f08c379a0000000000000000000000000000000000000000000000000000000008152600401611a63906127d4565b60405180910390fd5b50505050565b606060405180602001604052806000815250905090565b60606000821415611ad1576040518060400160405280600181526020017f30000000000000000000000000000000000000000000000000000000000000008152509050611c31565b600082905060005b60008214611b03578080611aec90612c9c565b915050600a82611afc9190612b1e565b9150611ad9565b60008167ffffffffffffffff811115611b45577f4e487b7100000000000000000000000000000000000000000000000000000000600052604160045260246000fd5b6040519080825280601f01601f191660200182016040528015611b775781602001600182028036833780820191505090505b5090505b60008514611c2a57600182611b909190612b4f565b9150600a85611b9f9190612ce5565b6030611bab9190612ac8565b60f81b818381518110611be7577f4e487b7100000000000000000000000000000000000000000000000000000000600052603260045260246000fd5b60200101907effffffffffffffffffffffffffffffffffffffffffffffffffffffffffffff1916908160001a905350600a85611c239190612b1e565b9450611b7b565b8093505050505b919050565b611c3e6112ef565b73ffffffffffffffffffffffffffffffffffffffff16611c5c610d66565b73ffffffffffffffffffffffffffffffffffffffff1614611cb2576040517f08c379a0000000000000000000000000000000000000000000000000000000008152600401611ca990612954565b60405180910390fd5b8060078190555050565b505050565b505050565b611ce0828260405180602001604052806000815250611e7b565b5050565b6000611d058473ffffffffffffffffffffffffffffffffffffffff16611ed6565b15611e6e578373ffffffffffffffffffffffffffffffffffffffff1663150b7a02611d2e6112ef565b8786866040518563ffffffff1660e01b8152600401611d50949392919061274b565b602060405180830381600087803b158015611d6a57600080fd5b505af1925050508015611d9b57506040513d601f19601f82011682018060405250810190611d989190612374565b60015b611e1e573d8060008114611dcb576040519150601f19603f3d011682016040523d82523d6000602084013e611dd0565b606091505b50600081511415611e16576040517f08c379a0000000000000000000000000000000000000000000000000000000008152600401611e0d906127d4565b60405180910390fd5b805181602001fd5b63150b7a0260e01b7bffffffffffffffffffffffffffffffffffffffffffffffffffffffff1916817bffffffffffffffffffffffffffffffffffffffffffffffffffffffff191614915050611e73565b600190505b949350505050565b611e858383611ef9565b611e926000848484611ce4565b611ed1576040517f08c379a0000000000000000000000000000000000000000000000000000000008152600401611ec8906127d4565b60405180910390fd5b505050565b6000808273ffffffffffffffffffffffffffffffffffffffff163b119050919050565b600073ffffffffffffffffffffffffffffffffffffffff168273ffffffffffffffffffffffffffffffffffffffff161415611f69576040517f08c379a0000000000000000000000000000000000000000000000000000000008152600401611f6090612914565b60405180910390fd5b611f7281611283565b15611fb2576040517f08c379a0000000000000000000000000000000000000000000000000000000008152600401611fa990612834565b60405180910390fd5b611fbe60008383611cbc565b6001600360008473ffffffffffffffffffffffffffffffffffffffff1673ffffffffffffffffffffffffffffffffffffffff168152602001908152602001600020600082825461200e9190612ac8565b92505081905550816002600083815260200190815260200160002060006101000a81548173ffffffffffffffffffffffffffffffffffffffff021916908373ffffffffffffffffffffffffffffffffffffffff160217905550808273ffffffffffffffffffffffffffffffffffffffff16600073ffffffffffffffffffffffffffffffffffffffff167fddf252ad1be2c89b69c2b068fc378daa952ba7f163c4a11628f55a4df523b3ef60405160405180910390a46120cf60008383611cc1565b5050565b60006120e66120e184612a54565b612a2f565b9050828152602081018484840111156120fe57600080fd5b612109848285612bf7565b509392505050565b600081359050612120816132d9565b92915050565b600081359050612135816132f0565b92915050565b60008135905061214a81613307565b92915050565b60008151905061215f81613307565b92915050565b600082601f83011261217657600080fd5b81356121868482602086016120d3565b91505092915050565b60008135905061219e8161331e565b92915050565b6000602082840312156121b657600080fd5b60006121c484828501612111565b91505092915050565b600080604083850312156121e057600080fd5b60006121ee85828601612111565b92505060206121ff85828601612111565b9150509250929050565b60008060006060848603121561221e57600080fd5b600061222c86828701612111565b935050602061223d86828701612111565b925050604061224e8682870161218f565b9150509250925092565b6000806000806080858703121561226e57600080fd5b600061227c87828801612111565b945050602061228d87828801612111565b935050604061229e8782880161218f565b925050606085013567ffffffffffffffff8111156122bb57600080fd5b6122c787828801612165565b91505092959194509250565b600080604083850312156122e657600080fd5b60006122f485828601612111565b925050602061230585828601612126565b9150509250929050565b6000806040838503121561232257600080fd5b600061233085828601612111565b92505060206123418582860161218f565b9150509250929050565b60006020828403121561235d57600080fd5b600061236b8482850161213b565b91505092915050565b60006020828403121561238657600080fd5b600061239484828501612150565b91505092915050565b6000602082840312156123af57600080fd5b60006123bd8482850161218f565b91505092915050565b6123cf81612b83565b82525050565b6123de81612b95565b82525050565b60006123ef82612a85565b6123f98185612a9b565b9350612409818560208601612c06565b61241281612dd2565b840191505092915050565b600061242882612a90565b6124328185612aac565b9350612442818560208601612c06565b61244b81612dd2565b840191505092915050565b600061246182612a90565b61246b8185612abd565b935061247b818560208601612c06565b80840191505092915050565b6000612494603283612aac565b915061249f82612de3565b604082019050919050565b60006124b7602683612aac565b91506124c282612e32565b604082019050919050565b60006124da602583612aac565b91506124e582612e81565b604082019050919050565b60006124fd601c83612aac565b915061250882612ed0565b602082019050919050565b6000612520602483612aac565b915061252b82612ef9565b604082019050919050565b6000612543601983612aac565b915061254e82612f48565b602082019050919050565b6000612566602c83612aac565b915061257182612f71565b604082019050919050565b6000612589603883612aac565b915061259482612fc0565b604082019050919050565b60006125ac602a83612aac565b91506125b78261300f565b604082019050919050565b60006125cf602983612aac565b91506125da8261305e565b604082019050919050565b60006125f2602083612aac565b91506125fd826130ad565b602082019050919050565b6000612615602c83612aac565b9150612620826130d6565b604082019050919050565b6000612638602083612aac565b915061264382613125565b602082019050919050565b600061265b602f83612aac565b91506126668261314e565b604082019050919050565b600061267e602183612aac565b91506126898261319d565b604082019050919050565b60006126a1602483612aac565b91506126ac826131ec565b604082019050919050565b60006126c4603183612aac565b91506126cf8261323b565b604082019050919050565b60006126e7602483612aac565b91506126f28261328a565b604082019050919050565b61270681612bed565b82525050565b60006127188285612456565b91506127248284612456565b91508190509392505050565b600060208201905061274560008301846123c6565b92915050565b600060808201905061276060008301876123c6565b61276d60208301866123c6565b61277a60408301856126fd565b818103606083015261278c81846123e4565b905095945050505050565b60006020820190506127ac60008301846123d5565b92915050565b600060208201905081810360008301526127cc818461241d565b905092915050565b600060208201905081810360008301526127ed81612487565b9050919050565b6000602082019050818103600083015261280d816124aa565b9050919050565b6000602082019050818103600083015261282d816124cd565b9050919050565b6000602082019050818103600083015261284d816124f0565b9050919050565b6000602082019050818103600083015261286d81612513565b9050919050565b6000602082019050818103600083015261288d81612536565b9050919050565b600060208201905081810360008301526128ad81612559565b9050919050565b600060208201905081810360008301526128cd8161257c565b9050919050565b600060208201905081810360008301526128ed8161259f565b9050919050565b6000602082019050818103600083015261290d816125c2565b9050919050565b6000602082019050818103600083015261292d816125e5565b9050919050565b6000602082019050818103600083015261294d81612608565b9050919050565b6000602082019050818103600083015261296d8161262b565b9050919050565b6000602082019050818103600083015261298d8161264e565b9050919050565b600060208201905081810360008301526129ad81612671565b9050919050565b600060208201905081810360008301526129cd81612694565b9050919050565b600060208201905081810360008301526129ed816126b7565b9050919050565b60006020820190508181036000830152612a0d816126da565b9050919050565b6000602082019050612a2960008301846126fd565b92915050565b6000612a39612a4a565b9050612a458282612c6b565b919050565b6000604051905090565b600067ffffffffffffffff821115612a6f57612a6e612da3565b5b612a7882612dd2565b9050602081019050919050565b600081519050919050565b600081519050919050565b600082825260208201905092915050565b600082825260208201905092915050565b600081905092915050565b6000612ad382612bed565b9150612ade83612bed565b9250827fffffffffffffffffffffffffffffffffffffffffffffffffffffffffffffffff03821115612b1357612b12612d16565b5b828201905092915050565b6000612b2982612bed565b9150612b3483612bed565b925082612b4457612b43612d45565b5b828204905092915050565b6000612b5a82612bed565b9150612b6583612bed565b925082821015612b7857612b77612d16565b5b828203905092915050565b6000612b8e82612bcd565b9050919050565b60008115159050919050565b60007fffffffff0000000000000000000000000000000000000000000000000000000082169050919050565b600073ffffffffffffffffffffffffffffffffffffffff82169050919050565b6000819050919050565b82818337600083830152505050565b60005b83811015612c24578082015181840152602081019050612c09565b83811115612c33576000848401525b50505050565b60006002820490506001821680612c5157607f821691505b60208210811415612c6557612c64612d74565b5b50919050565b612c7482612dd2565b810181811067ffffffffffffffff82111715612c9357612c92612da3565b5b80604052505050565b6000612ca782612bed565b91507fffffffffffffffffffffffffffffffffffffffffffffffffffffffffffffffff821415612cda57612cd9612d16565b5b600182019050919050565b6000612cf082612bed565b9150612cfb83612bed565b925082612d0b57612d0a612d45565b5b828206905092915050565b7f4e487b7100000000000000000000000000000000000000000000000000000000600052601160045260246000fd5b7f4e487b7100000000000000000000000000000000000000000000000000000000600052601260045260246000fd5b7f4e487b7100000000000000000000000000000000000000000000000000000000600052602260045260246000fd5b7f4e487b7100000000000000000000000000000000000000000000000000000000600052604160045260246000fd5b6000601f19601f8301169050919050565b7f4552433732313a207472616e7366657220746f206e6f6e20455243373231526560008201527f63656976657220696d706c656d656e7465720000000000000000000000000000602082015250565b7f4f776e61626c653a206e6577206f776e657220697320746865207a65726f206160008201527f6464726573730000000000000000000000000000000000000000000000000000602082015250565b7f4552433732313a207472616e736665722066726f6d20696e636f72726563742060008201527f6f776e6572000000000000000000000000000000000000000000000000000000602082015250565b7f4552433732313a20746f6b656e20616c7265616479206d696e74656400000000600082015250565b7f4552433732313a207472616e7366657220746f20746865207a65726f2061646460008201527f7265737300000000000000000000000000000000000000000000000000000000602082015250565b7f4552433732313a20617070726f766520746f2063616c6c657200000000000000600082015250565b7f4552433732313a206f70657261746f7220717565727920666f72206e6f6e657860008201527f697374656e7420746f6b656e0000000000000000000000000000000000000000602082015250565b7f4552433732313a20617070726f76652063616c6c6572206973206e6f74206f7760008201527f6e6572206e6f7220617070726f76656420666f7220616c6c0000000000000000602082015250565b7f4552433732313a2062616c616e636520717565727920666f7220746865207a6560008201527f726f206164647265737300000000000000000000000000000000000000000000602082015250565b7f4552433732313a206f776e657220717565727920666f72206e6f6e657869737460008201527f656e7420746f6b656e0000000000000000000000000000000000000000000000602082015250565b7f4552433732313a206d696e7420746f20746865207a65726f2061646472657373600082015250565b7f4552433732313a20617070726f76656420717565727920666f72206e6f6e657860008201527f697374656e7420746f6b656e0000000000000000000000000000000000000000602082015250565b7f4f776e61626c653a2063616c6c6572206973206e6f7420746865206f776e6572600082015250565b7f4552433732314d657461646174613a2055524920717565727920666f72206e6f60008201527f6e6578697374656e7420746f6b656e0000000000000000000000000000000000602082015250565b7f4552433732313a20617070726f76616c20746f2063757272656e74206f776e6560008201527f7200000000000000000000000000000000000000000000000000000000000000602082015250565b7f4572726f203a20507265636f206d656e6f72207175652074617861732064652060008201527f6d696e7400000000000000000000000000000000000000000000000000000000602082015250565b7f4552433732313a207472616e736665722063616c6c6572206973206e6f74206f60008201527f776e6572206e6f7220617070726f766564000000000000000000000000000000602082015250565b7f4572726f203a204361706163696461646520646520746f6b656e73206578636560008201527f6469646100000000000000000000000000000000000000000000000000000000602082015250565b6132e281612b83565b81146132ed57600080fd5b50565b6132f981612b95565b811461330457600080fd5b50565b61331081612ba1565b811461331b57600080fd5b50565b61332781612bed565b811461333257600080fd5b5056fea26469706673582212207c6803db0f97fdd401edeaf66540a0c38ad69fe8283193b4bcdc97e1614c6de264736f6c63430008010033",
  "immutableReferences": {},
  "source": "// SPDX-License-Identifier: MIT\npragma solidity >=0.6.0 <0.9.0;\n\nimport \"@openzeppelin/contracts/token/ERC721/ERC721.sol\";\nimport \"@openzeppelin/contracts/access/Ownable.sol\";\n\ncontract entregavel is ERC721, Ownable {\n    uint256 public mintPrice = 0.07208214 ether;\n    uint256 public totalSupply;\n    uint256 public maxSupply;\n    bool public canMint;\n\n    constructor(\n        string memory _name,\n        string memory _symbol,\n        uint64 cap\n    ) ERC721(_name, _symbol) {\n        require(cap > 0, \"Erro : Capacidade de tokens nula\");\n        maxSupply = cap;\n    }\n\n    function getTotalSupply() public view returns (uint256) {\n        return totalSupply;\n    }\n\n    function getBalance() public view returns (uint256) {\n        return address(this).balance;\n    }\n\n    function _createNFT() internal onlyOwner {\n        require(\n            totalSupply < maxSupply,\n            \"Erro : Capacidade de tokens excedida\"\n        );\n        uint256 tokenId = totalSupply;\n        totalSupply++;\n        _safeMint(msg.sender, tokenId);\n    }\n\n    function ownerMint() external onlyOwner {\n        _createNFT();\n    }\n\n    function publicMint() external payable {\n        require(msg.value > mintPrice, \"Erro : Preco menor que taxas de mint\");\n        require(canMint);\n        _createNFT();\n    }\n\n    function setMintPrice(uint256 _mintPrice) internal onlyOwner {\n        mintPrice = _mintPrice;\n    }\n\n    function openSales(uint256 _mintPrice) external onlyOwner {\n        canMint = true;\n        setMintPrice(_mintPrice);\n    }\n\n    function closeSales() external onlyOwner {\n        canMint = false;\n    }\n\n    function withdraw() external payable onlyOwner {\n        payable(msg.sender).transfer(address(this).balance);\n    }\n}\n",
  "sourcePath": "/Users/gustavomb/Downloads/ERC721Capped-main/contracts/ERC721Capped.sol",
  "compiler": {
    "name": "solc",
    "version": "0.8.1+commit.df193b15.Emscripten.clang"
  },
  "schemaVersion": "3.4.7",
  "updatedAt": "2022-05-29T12:06:42.421Z",
  "devdoc": {
    "kind": "dev",
    "methods": {
      "approve(address,uint256)": {
        "details": "See {IERC721-approve}."
      },
      "balanceOf(address)": {
        "details": "See {IERC721-balanceOf}."
      },
      "getApproved(uint256)": {
        "details": "See {IERC721-getApproved}."
      },
      "isApprovedForAll(address,address)": {
        "details": "See {IERC721-isApprovedForAll}."
      },
      "name()": {
        "details": "See {IERC721Metadata-name}."
      },
      "owner()": {
        "details": "Returns the address of the current owner."
      },
      "ownerOf(uint256)": {
        "details": "See {IERC721-ownerOf}."
      },
      "renounceOwnership()": {
        "details": "Leaves the contract without owner. It will not be possible to call `onlyOwner` functions anymore. Can only be called by the current owner. NOTE: Renouncing ownership will leave the contract without an owner, thereby removing any functionality that is only available to the owner."
      },
      "safeTransferFrom(address,address,uint256)": {
        "details": "See {IERC721-safeTransferFrom}."
      },
      "safeTransferFrom(address,address,uint256,bytes)": {
        "details": "See {IERC721-safeTransferFrom}."
      },
      "setApprovalForAll(address,bool)": {
        "details": "See {IERC721-setApprovalForAll}."
      },
      "supportsInterface(bytes4)": {
        "details": "See {IERC165-supportsInterface}."
      },
      "symbol()": {
        "details": "See {IERC721Metadata-symbol}."
      },
      "tokenURI(uint256)": {
        "details": "See {IERC721Metadata-tokenURI}."
      },
      "transferFrom(address,address,uint256)": {
        "details": "See {IERC721-transferFrom}."
      },
      "transferOwnership(address)": {
        "details": "Transfers ownership of the contract to a new account (`newOwner`). Can only be called by the current owner."
      }
    },
    "version": 1
  },
  "userdoc": {
    "kind": "user",
    "methods": {},
    "version": 1
  }
}