{
  "contractName": "ERC721Capped",
  "abi": [
    {
      "inputs": [
        {
          "internalType": "string",
          "name": "_name",
          "type": "string"
        },
        {
          "internalType": "string",
          "name": "_symbol",
          "type": "string"
        },
        {
          "internalType": "uint64",
          "name": "cap",
          "type": "uint64"
        }
      ],
      "stateMutability": "nonpayable",
      "type": "constructor"
    },
    {
      "anonymous": false,
      "inputs": [
        {
          "indexed": true,
          "internalType": "address",
          "name": "owner",
          "type": "address"
        },
        {
          "indexed": true,
          "internalType": "address",
          "name": "approved",
          "type": "address"
        },
        {
          "indexed": true,
          "internalType": "uint256",
          "name": "tokenId",
          "type": "uint256"
        }
      ],
      "name": "Approval",
      "type": "event"
    },
    {
      "anonymous": false,
      "inputs": [
        {
          "indexed": true,
          "internalType": "address",
          "name": "owner",
          "type": "address"
        },
        {
          "indexed": true,
          "internalType": "address",
          "name": "operator",
          "type": "address"
        },
        {
          "indexed": false,
          "internalType": "bool",
          "name": "approved",
          "type": "bool"
        }
      ],
      "name": "ApprovalForAll",
      "type": "event"
    },
    {
      "anonymous": false,
      "inputs": [
        {
          "indexed": true,
          "internalType": "address",
          "name": "previousOwner",
          "type": "address"
        },
        {
          "indexed": true,
          "internalType": "address",
          "name": "newOwner",
          "type": "address"
        }
      ],
      "name": "OwnershipTransferred",
      "type": "event"
    },
    {
      "anonymous": false,
      "inputs": [
        {
          "indexed": true,
          "internalType": "address",
          "name": "from",
          "type": "address"
        },
        {
          "indexed": true,
          "internalType": "address",
          "name": "to",
          "type": "address"
        },
        {
          "indexed": true,
          "internalType": "uint256",
          "name": "tokenId",
          "type": "uint256"
        }
      ],
      "name": "Transfer",
      "type": "event"
    },
    {
      "inputs": [
        {
          "internalType": "address",
          "name": "to",
          "type": "address"
        },
        {
          "internalType": "uint256",
          "name": "tokenId",
          "type": "uint256"
        }
      ],
      "name": "approve",
      "outputs": [],
      "stateMutability": "nonpayable",
      "type": "function"
    },
    {
      "inputs": [
        {
          "internalType": "address",
          "name": "owner",
          "type": "address"
        }
      ],
      "name": "balanceOf",
      "outputs": [
        {
          "internalType": "uint256",
          "name": "",
          "type": "uint256"
        }
      ],
      "stateMutability": "view",
      "type": "function",
      "constant": true
    },
    {
      "inputs": [],
      "name": "canMint",
      "outputs": [
        {
          "internalType": "bool",
          "name": "",
          "type": "bool"
        }
      ],
      "stateMutability": "view",
      "type": "function",
      "constant": true
    },
    {
      "inputs": [
        {
          "internalType": "uint256",
          "name": "tokenId",
          "type": "uint256"
        }
      ],
      "name": "getApproved",
      "outputs": [
        {
          "internalType": "address",
          "name": "",
          "type": "address"
        }
      ],
      "stateMutability": "view",
      "type": "function",
      "constant": true
    },
    {
      "inputs": [
        {
          "internalType": "address",
          "name": "owner",
          "type": "address"
        },
        {
          "internalType": "address",
          "name": "operator",
          "type": "address"
        }
      ],
      "name": "isApprovedForAll",
      "outputs": [
        {
          "internalType": "bool",
          "name": "",
          "type": "bool"
        }
      ],
      "stateMutability": "view",
      "type": "function",
      "constant": true
    },
    {
      "inputs": [],
      "name": "maxSupply",
      "outputs": [
        {
          "internalType": "uint256",
          "name": "",
          "type": "uint256"
        }
      ],
      "stateMutability": "view",
      "type": "function",
      "constant": true
    },
    {
      "inputs": [],
      "name": "mintPrice",
      "outputs": [
        {
          "internalType": "uint256",
          "name": "",
          "type": "uint256"
        }
      ],
      "stateMutability": "view",
      "type": "function",
      "constant": true
    },
    {
      "inputs": [],
      "name": "name",
      "outputs": [
        {
          "internalType": "string",
          "name": "",
          "type": "string"
        }
      ],
      "stateMutability": "view",
      "type": "function",
      "constant": true
    },
    {
      "inputs": [],
      "name": "owner",
      "outputs": [
        {
          "internalType": "address",
          "name": "",
          "type": "address"
        }
      ],
      "stateMutability": "view",
      "type": "function",
      "constant": true
    },
    {
      "inputs": [
        {
          "internalType": "uint256",
          "name": "tokenId",
          "type": "uint256"
        }
      ],
      "name": "ownerOf",
      "outputs": [
        {
          "internalType": "address",
          "name": "",
          "type": "address"
        }
      ],
      "stateMutability": "view",
      "type": "function",
      "constant": true
    },
    {
      "inputs": [],
      "name": "renounceOwnership",
      "outputs": [],
      "stateMutability": "nonpayable",
      "type": "function"
    },
    {
      "inputs": [
        {
          "internalType": "address",
          "name": "from",
          "type": "address"
        },
        {
          "internalType": "address",
          "name": "to",
          "type": "address"
        },
        {
          "internalType": "uint256",
          "name": "tokenId",
          "type": "uint256"
        }
      ],
      "name": "safeTransferFrom",
      "outputs": [],
      "stateMutability": "nonpayable",
      "type": "function"
    },
    {
      "inputs": [
        {
          "internalType": "address",
          "name": "from",
          "type": "address"
        },
        {
          "internalType": "address",
          "name": "to",
          "type": "address"
        },
        {
          "internalType": "uint256",
          "name": "tokenId",
          "type": "uint256"
        },
        {
          "internalType": "bytes",
          "name": "_data",
          "type": "bytes"
        }
      ],
      "name": "safeTransferFrom",
      "outputs": [],
      "stateMutability": "nonpayable",
      "type": "function"
    },
    {
      "inputs": [
        {
          "internalType": "address",
          "name": "operator",
          "type": "address"
        },
        {
          "internalType": "bool",
          "name": "approved",
          "type": "bool"
        }
      ],
      "name": "setApprovalForAll",
      "outputs": [],
      "stateMutability": "nonpayable",
      "type": "function"
    },
    {
      "inputs": [
        {
          "internalType": "bytes4",
          "name": "interfaceId",
          "type": "bytes4"
        }
      ],
      "name": "supportsInterface",
      "outputs": [
        {
          "internalType": "bool",
          "name": "",
          "type": "bool"
        }
      ],
      "stateMutability": "view",
      "type": "function",
      "constant": true
    },
    {
      "inputs": [],
      "name": "symbol",
      "outputs": [
        {
          "internalType": "string",
          "name": "",
          "type": "string"
        }
      ],
      "stateMutability": "view",
      "type": "function",
      "constant": true
    },
    {
      "inputs": [
        {
          "internalType": "uint256",
          "name": "tokenId",
          "type": "uint256"
        }
      ],
      "name": "tokenURI",
      "outputs": [
        {
          "internalType": "string",
          "name": "",
          "type": "string"
        }
      ],
      "stateMutability": "view",
      "type": "function",
      "constant": true
    },
    {
      "inputs": [],
      "name": "totalSupply",
      "outputs": [
        {
          "internalType": "uint256",
          "name": "",
          "type": "uint256"
        }
      ],
      "stateMutability": "view",
      "type": "function",
      "constant": true
    },
    {
      "inputs": [
        {
          "internalType": "address",
          "name": "from",
          "type": "address"
        },
        {
          "internalType": "address",
          "name": "to",
          "type": "address"
        },
        {
          "internalType": "uint256",
          "name": "tokenId",
          "type": "uint256"
        }
      ],
      "name": "transferFrom",
      "outputs": [],
      "stateMutability": "nonpayable",
      "type": "function"
    },
    {
      "inputs": [
        {
          "internalType": "address",
          "name": "newOwner",
          "type": "address"
        }
      ],
      "name": "transferOwnership",
      "outputs": [],
      "stateMutability": "nonpayable",
      "type": "function"
    },
    {
      "inputs": [],
      "name": "getTotalSupply",
      "outputs": [
        {
          "internalType": "uint256",
          "name": "",
          "type": "uint256"
        }
      ],
      "stateMutability": "view",
      "type": "function",
      "constant": true
    },
    {
      "inputs": [],
      "name": "getBalance",
      "outputs": [
        {
          "internalType": "uint256",
          "name": "",
          "type": "uint256"
        }
      ],
      "stateMutability": "view",
      "type": "function",
      "constant": true
    },
    {
      "inputs": [],
      "name": "ownerMint",
      "outputs": [],
      "stateMutability": "nonpayable",
      "type": "function"
    },
    {
      "inputs": [],
      "name": "publicMint",
      "outputs": [],
      "stateMutability": "payable",
      "type": "function",
      "payable": true
    },
    {
      "inputs": [
        {
          "internalType": "uint256",
          "name": "_mintPrice",
          "type": "uint256"
        }
      ],
      "name": "setMintPrice",
      "outputs": [],
      "stateMutability": "nonpayable",
      "type": "function"
    },
    {
      "inputs": [
        {
          "internalType": "uint256",
          "name": "_mintPrice",
          "type": "uint256"
        }
      ],
      "name": "openSales",
      "outputs": [],
      "stateMutability": "nonpayable",
      "type": "function"
    },
    {
      "inputs": [],
      "name": "closeSales",
      "outputs": [],
      "stateMutability": "nonpayable",
      "type": "function"
    },
    {
      "inputs": [],
      "name": "withdraw",
      "outputs": [],
      "stateMutability": "payable",
      "type": "function",
      "payable": true
    }
  ],
  "bytecode": "0x60806040523480156200001157600080fd5b506040516200389c3803806200389c833981810160405281019062000037919062000321565b8282816000908051906020019062000051929190620001e8565b5080600190805190602001906200006a929190620001e8565b5050506200008d620000816200011a60201b60201c565b6200012260201b60201c565b60008167ffffffffffffffff1611620000dd576040517f08c379a0000000000000000000000000000000000000000000000000000000008152600401620000d490620003d0565b60405180910390fd5b8067ffffffffffffffff166009819055506000600a60006101000a81548160ff0219169083151502179055506000600781905550505050620005ca565b600033905090565b6000600660009054906101000a900473ffffffffffffffffffffffffffffffffffffffff16905081600660006101000a81548173ffffffffffffffffffffffffffffffffffffffff021916908373ffffffffffffffffffffffffffffffffffffffff1602179055508173ffffffffffffffffffffffffffffffffffffffff168173ffffffffffffffffffffffffffffffffffffffff167f8be0079c531659141344cd1fd0a4f28419497f9722a3daafe3b4186f6b6457e060405160405180910390a35050565b828054620001f690620004ac565b90600052602060002090601f0160209004810192826200021a576000855562000266565b82601f106200023557805160ff191683800117855562000266565b8280016001018555821562000266579182015b828111156200026557825182559160200191906001019062000248565b5b50905062000275919062000279565b5090565b5b80821115620002945760008160009055506001016200027a565b5090565b6000620002af620002a9846200041b565b620003f2565b905082815260208101848484011115620002c857600080fd5b620002d584828562000476565b509392505050565b600082601f830112620002ef57600080fd5b81516200030184826020860162000298565b91505092915050565b6000815190506200031b81620005b0565b92915050565b6000806000606084860312156200033757600080fd5b600084015167ffffffffffffffff8111156200035257600080fd5b6200036086828701620002dd565b935050602084015167ffffffffffffffff8111156200037e57600080fd5b6200038c86828701620002dd565b92505060406200039f868287016200030a565b9150509250925092565b6000620003b860208362000451565b9150620003c58262000587565b602082019050919050565b60006020820190508181036000830152620003eb81620003a9565b9050919050565b6000620003fe62000411565b90506200040c8282620004e2565b919050565b6000604051905090565b600067ffffffffffffffff82111562000439576200043862000547565b5b620004448262000576565b9050602081019050919050565b600082825260208201905092915050565b600067ffffffffffffffff82169050919050565b60005b838110156200049657808201518184015260208101905062000479565b83811115620004a6576000848401525b50505050565b60006002820490506001821680620004c557607f821691505b60208210811415620004dc57620004db62000518565b5b50919050565b620004ed8262000576565b810181811067ffffffffffffffff821117156200050f576200050e62000547565b5b80604052505050565b7f4e487b7100000000000000000000000000000000000000000000000000000000600052602260045260246000fd5b7f4e487b7100000000000000000000000000000000000000000000000000000000600052604160045260246000fd5b6000601f19601f8301169050919050565b7f4572726f203a204361706163696461646520646520746f6b656e73206e756c61600082015250565b620005bb8162000462565b8114620005c757600080fd5b50565b6132c280620005da6000396000f3fe6080604052600436106101b75760003560e01c8063715018a6116100ec578063c4e41b221161008a578063dd3691e611610064578063dd3691e614610596578063e985e9c5146105bf578063f2fde38b146105fc578063f4a0a52814610625576101b7565b8063c4e41b2214610503578063c87b56dd1461052e578063d5abeb011461056b576101b7565b8063a22cb465116100c6578063a22cb4651461046f578063b12dc99114610498578063b88d4fde146104af578063beb9716d146104d8576101b7565b8063715018a6146104025780638da5cb5b1461041957806395d89b4114610444576101b7565b806323b872dd1161015957806342842e0e1161013357806342842e0e146103345780636352211e1461035d5780636817c76c1461039a57806370a08231146103c5576101b7565b806323b872dd146102f757806326092b83146103205780633ccfd60b1461032a576101b7565b8063095ea7b311610195578063095ea7b31461026157806312065fe01461028a57806315a8f073146102b557806318160ddd146102cc576101b7565b806301ffc9a7146101bc57806306fdde03146101f9578063081812fc14610224575b600080fd5b3480156101c857600080fd5b506101e360048036038101906101de91906122a2565b61064e565b6040516101f091906126ee565b60405180910390f35b34801561020557600080fd5b5061020e610730565b60405161021b9190612709565b60405180910390f35b34801561023057600080fd5b5061024b600480360381019061024691906122f4565b6107c2565b6040516102589190612687565b60405180910390f35b34801561026d57600080fd5b5061028860048036038101906102839190612266565b610847565b005b34801561029657600080fd5b5061029f61095f565b6040516102ac919061296b565b60405180910390f35b3480156102c157600080fd5b506102ca610967565b005b3480156102d857600080fd5b506102e1610a00565b6040516102ee919061296b565b60405180910390f35b34801561030357600080fd5b5061031e60048036038101906103199190612160565b610a06565b005b610328610a66565b005b610332610ace565b005b34801561034057600080fd5b5061035b60048036038101906103569190612160565b610b9a565b005b34801561036957600080fd5b50610384600480360381019061037f91906122f4565b610bba565b6040516103919190612687565b60405180910390f35b3480156103a657600080fd5b506103af610c6c565b6040516103bc919061296b565b60405180910390f35b3480156103d157600080fd5b506103ec60048036038101906103e791906120fb565b610c72565b6040516103f9919061296b565b60405180910390f35b34801561040e57600080fd5b50610417610d2a565b005b34801561042557600080fd5b5061042e610db2565b60405161043b9190612687565b60405180910390f35b34801561045057600080fd5b50610459610ddc565b6040516104669190612709565b60405180910390f35b34801561047b57600080fd5b506104966004803603810190610491919061222a565b610e6e565b005b3480156104a457600080fd5b506104ad610e84565b005b3480156104bb57600080fd5b506104d660048036038101906104d191906121af565b610f0a565b005b3480156104e457600080fd5b506104ed610f6c565b6040516104fa91906126ee565b60405180910390f35b34801561050f57600080fd5b50610518610f7f565b604051610525919061296b565b60405180910390f35b34801561053a57600080fd5b50610555600480360381019061055091906122f4565b610f89565b6040516105629190612709565b60405180910390f35b34801561057757600080fd5b50610580611030565b60405161058d919061296b565b60405180910390f35b3480156105a257600080fd5b506105bd60048036038101906105b891906122f4565b611036565b005b3480156105cb57600080fd5b506105e660048036038101906105e19190612124565b6110d9565b6040516105f391906126ee565b60405180910390f35b34801561060857600080fd5b50610623600480360381019061061e91906120fb565b61116d565b005b34801561063157600080fd5b5061064c600480360381019061064791906122f4565b611265565b005b60007f80ac58cd000000000000000000000000000000000000000000000000000000007bffffffffffffffffffffffffffffffffffffffffffffffffffffffff1916827bffffffffffffffffffffffffffffffffffffffffffffffffffffffff1916148061071957507f5b5e139f000000000000000000000000000000000000000000000000000000007bffffffffffffffffffffffffffffffffffffffffffffffffffffffff1916827bffffffffffffffffffffffffffffffffffffffffffffffffffffffff1916145b806107295750610728826112eb565b5b9050919050565b60606000805461073f90612b90565b80601f016020809104026020016040519081016040528092919081815260200182805461076b90612b90565b80156107b85780601f1061078d576101008083540402835291602001916107b8565b820191906000526020600020905b81548152906001019060200180831161079b57829003601f168201915b5050505050905090565b60006107cd82611355565b61080c576040517f08c379a00000000000000000000000000000000000000000000000000000000081526004016108039061288b565b60405180910390fd5b6004600083815260200190815260200160002060009054906101000a900473ffffffffffffffffffffffffffffffffffffffff169050919050565b600061085282610bba565b90508073ffffffffffffffffffffffffffffffffffffffff168373ffffffffffffffffffffffffffffffffffffffff1614156108c3576040517f08c379a00000000000000000000000000000000000000000000000000000000081526004016108ba906128eb565b60405180910390fd5b8073ffffffffffffffffffffffffffffffffffffffff166108e26113c1565b73ffffffffffffffffffffffffffffffffffffffff16148061091157506109108161090b6113c1565b6110d9565b5b610950576040517f08c379a00000000000000000000000000000000000000000000000000000000081526004016109479061280b565b60405180910390fd5b61095a83836113c9565b505050565b600047905090565b61096f6113c1565b73ffffffffffffffffffffffffffffffffffffffff1661098d610db2565b73ffffffffffffffffffffffffffffffffffffffff16146109e3576040517f08c379a00000000000000000000000000000000000000000000000000000000081526004016109da906128ab565b60405180910390fd5b6000600a60006101000a81548160ff021916908315150217905550565b60085481565b610a17610a116113c1565b82611482565b610a56576040517f08c379a0000000000000000000000000000000000000000000000000000000008152600401610a4d9061292b565b60405180910390fd5b610a61838383611560565b505050565b600754341015610aab576040517f08c379a0000000000000000000000000000000000000000000000000000000008152600401610aa29061290b565b60405180910390fd5b600a60009054906101000a900460ff16610ac457600080fd5b610acc6117c7565b565b610ad66113c1565b73ffffffffffffffffffffffffffffffffffffffff16610af4610db2565b73ffffffffffffffffffffffffffffffffffffffff1614610b4a576040517f08c379a0000000000000000000000000000000000000000000000000000000008152600401610b41906128ab565b60405180910390fd5b610b52610db2565b73ffffffffffffffffffffffffffffffffffffffff166108fc479081150290604051600060405180830381858888f19350505050158015610b97573d6000803e3d6000fd5b50565b610bb583838360405180602001604052806000815250610f0a565b505050565b6000806002600084815260200190815260200160002060009054906101000a900473ffffffffffffffffffffffffffffffffffffffff169050600073ffffffffffffffffffffffffffffffffffffffff168173ffffffffffffffffffffffffffffffffffffffff161415610c63576040517f08c379a0000000000000000000000000000000000000000000000000000000008152600401610c5a9061284b565b60405180910390fd5b80915050919050565b60075481565b60008073ffffffffffffffffffffffffffffffffffffffff168273ffffffffffffffffffffffffffffffffffffffff161415610ce3576040517f08c379a0000000000000000000000000000000000000000000000000000000008152600401610cda9061282b565b60405180910390fd5b600360008373ffffffffffffffffffffffffffffffffffffffff1673ffffffffffffffffffffffffffffffffffffffff168152602001908152602001600020549050919050565b610d326113c1565b73ffffffffffffffffffffffffffffffffffffffff16610d50610db2565b73ffffffffffffffffffffffffffffffffffffffff1614610da6576040517f08c379a0000000000000000000000000000000000000000000000000000000008152600401610d9d906128ab565b60405180910390fd5b610db06000611839565b565b6000600660009054906101000a900473ffffffffffffffffffffffffffffffffffffffff16905090565b606060018054610deb90612b90565b80601f0160208091040260200160405190810160405280929190818152602001828054610e1790612b90565b8015610e645780601f10610e3957610100808354040283529160200191610e64565b820191906000526020600020905b815481529060010190602001808311610e4757829003601f168201915b5050505050905090565b610e80610e796113c1565b83836118ff565b5050565b610e8c6113c1565b73ffffffffffffffffffffffffffffffffffffffff16610eaa610db2565b73ffffffffffffffffffffffffffffffffffffffff1614610f00576040517f08c379a0000000000000000000000000000000000000000000000000000000008152600401610ef7906128ab565b60405180910390fd5b610f086117c7565b565b610f1b610f156113c1565b83611482565b610f5a576040517f08c379a0000000000000000000000000000000000000000000000000000000008152600401610f519061292b565b60405180910390fd5b610f6684848484611a6c565b50505050565b600a60009054906101000a900460ff1681565b6000600854905090565b6060610f9482611355565b610fd3576040517f08c379a0000000000000000000000000000000000000000000000000000000008152600401610fca906128cb565b60405180910390fd5b6000610fdd611ac8565b90506000815111610ffd5760405180602001604052806000815250611028565b8061100784611adf565b604051602001611018929190612663565b6040516020818303038152906040525b915050919050565b60095481565b61103e6113c1565b73ffffffffffffffffffffffffffffffffffffffff1661105c610db2565b73ffffffffffffffffffffffffffffffffffffffff16146110b2576040517f08c379a00000000000000000000000000000000000000000000000000000000081526004016110a9906128ab565b60405180910390fd5b6001600a60006101000a81548160ff0219169083151502179055506110d681611265565b50565b6000600560008473ffffffffffffffffffffffffffffffffffffffff1673ffffffffffffffffffffffffffffffffffffffff16815260200190815260200160002060008373ffffffffffffffffffffffffffffffffffffffff1673ffffffffffffffffffffffffffffffffffffffff16815260200190815260200160002060009054906101000a900460ff16905092915050565b6111756113c1565b73ffffffffffffffffffffffffffffffffffffffff16611193610db2565b73ffffffffffffffffffffffffffffffffffffffff16146111e9576040517f08c379a00000000000000000000000000000000000000000000000000000000081526004016111e0906128ab565b60405180910390fd5b600073ffffffffffffffffffffffffffffffffffffffff168173ffffffffffffffffffffffffffffffffffffffff161415611259576040517f08c379a00000000000000000000000000000000000000000000000000000000081526004016112509061274b565b60405180910390fd5b61126281611839565b50565b61126d6113c1565b73ffffffffffffffffffffffffffffffffffffffff1661128b610db2565b73ffffffffffffffffffffffffffffffffffffffff16146112e1576040517f08c379a00000000000000000000000000000000000000000000000000000000081526004016112d8906128ab565b60405180910390fd5b8060078190555050565b60007f01ffc9a7000000000000000000000000000000000000000000000000000000007bffffffffffffffffffffffffffffffffffffffffffffffffffffffff1916827bffffffffffffffffffffffffffffffffffffffffffffffffffffffff1916149050919050565b60008073ffffffffffffffffffffffffffffffffffffffff166002600084815260200190815260200160002060009054906101000a900473ffffffffffffffffffffffffffffffffffffffff1673ffffffffffffffffffffffffffffffffffffffff1614159050919050565b600033905090565b816004600083815260200190815260200160002060006101000a81548173ffffffffffffffffffffffffffffffffffffffff021916908373ffffffffffffffffffffffffffffffffffffffff160217905550808273ffffffffffffffffffffffffffffffffffffffff1661143c83610bba565b73ffffffffffffffffffffffffffffffffffffffff167f8c5be1e5ebec7d5bd14f71427d1e84f3dd0314c0f7b2291e5b200ac8c7c3b92560405160405180910390a45050565b600061148d82611355565b6114cc576040517f08c379a00000000000000000000000000000000000000000000000000000000081526004016114c3906127eb565b60405180910390fd5b60006114d783610bba565b90508073ffffffffffffffffffffffffffffffffffffffff168473ffffffffffffffffffffffffffffffffffffffff161480611519575061151881856110d9565b5b8061155757508373ffffffffffffffffffffffffffffffffffffffff1661153f846107c2565b73ffffffffffffffffffffffffffffffffffffffff16145b91505092915050565b8273ffffffffffffffffffffffffffffffffffffffff1661158082610bba565b73ffffffffffffffffffffffffffffffffffffffff16146115d6576040517f08c379a00000000000000000000000000000000000000000000000000000000081526004016115cd9061276b565b60405180910390fd5b600073ffffffffffffffffffffffffffffffffffffffff168273ffffffffffffffffffffffffffffffffffffffff161415611646576040517f08c379a000000000000000000000000000000000000000000000000000000000815260040161163d906127ab565b60405180910390fd5b611651838383611c8c565b61165c6000826113c9565b6001600360008573ffffffffffffffffffffffffffffffffffffffff1673ffffffffffffffffffffffffffffffffffffffff16815260200190815260200160002060008282546116ac9190612aa6565b925050819055506001600360008473ffffffffffffffffffffffffffffffffffffffff1673ffffffffffffffffffffffffffffffffffffffff16815260200190815260200160002060008282546117039190612a1f565b92505081905550816002600083815260200190815260200160002060006101000a81548173ffffffffffffffffffffffffffffffffffffffff021916908373ffffffffffffffffffffffffffffffffffffffff160217905550808273ffffffffffffffffffffffffffffffffffffffff168473ffffffffffffffffffffffffffffffffffffffff167fddf252ad1be2c89b69c2b068fc378daa952ba7f163c4a11628f55a4df523b3ef60405160405180910390a46117c2838383611c91565b505050565b6009546008541061180d576040517f08c379a00000000000000000000000000000000000000000000000000000000081526004016118049061294b565b60405180910390fd5b6008600081548092919061182090612bf3565b9190505550600060085490506118363382611c96565b50565b6000600660009054906101000a900473ffffffffffffffffffffffffffffffffffffffff16905081600660006101000a81548173ffffffffffffffffffffffffffffffffffffffff021916908373ffffffffffffffffffffffffffffffffffffffff1602179055508173ffffffffffffffffffffffffffffffffffffffff168173ffffffffffffffffffffffffffffffffffffffff167f8be0079c531659141344cd1fd0a4f28419497f9722a3daafe3b4186f6b6457e060405160405180910390a35050565b8173ffffffffffffffffffffffffffffffffffffffff168373ffffffffffffffffffffffffffffffffffffffff16141561196e576040517f08c379a0000000000000000000000000000000000000000000000000000000008152600401611965906127cb565b60405180910390fd5b80600560008573ffffffffffffffffffffffffffffffffffffffff1673ffffffffffffffffffffffffffffffffffffffff16815260200190815260200160002060008473ffffffffffffffffffffffffffffffffffffffff1673ffffffffffffffffffffffffffffffffffffffff16815260200190815260200160002060006101000a81548160ff0219169083151502179055508173ffffffffffffffffffffffffffffffffffffffff168373ffffffffffffffffffffffffffffffffffffffff167f17307eab39ab6107e8899845ad3d59bd9653f200f220920489ca2b5937696c3183604051611a5f91906126ee565b60405180910390a3505050565b611a77848484611560565b611a8384848484611e70565b611ac2576040517f08c379a0000000000000000000000000000000000000000000000000000000008152600401611ab99061272b565b60405180910390fd5b50505050565b606060405180602001604052806000815250905090565b60606000821415611b27576040518060400160405280600181526020017f30000000000000000000000000000000000000000000000000000000000000008152509050611c87565b600082905060005b60008214611b59578080611b4290612bf3565b915050600a82611b529190612a75565b9150611b2f565b60008167ffffffffffffffff811115611b9b577f4e487b7100000000000000000000000000000000000000000000000000000000600052604160045260246000fd5b6040519080825280601f01601f191660200182016040528015611bcd5781602001600182028036833780820191505090505b5090505b60008514611c8057600182611be69190612aa6565b9150600a85611bf59190612c3c565b6030611c019190612a1f565b60f81b818381518110611c3d577f4e487b7100000000000000000000000000000000000000000000000000000000600052603260045260246000fd5b60200101907effffffffffffffffffffffffffffffffffffffffffffffffffffffffffffff1916908160001a905350600a85611c799190612a75565b9450611bd1565b8093505050505b919050565b505050565b505050565b600073ffffffffffffffffffffffffffffffffffffffff168273ffffffffffffffffffffffffffffffffffffffff161415611d06576040517f08c379a0000000000000000000000000000000000000000000000000000000008152600401611cfd9061286b565b60405180910390fd5b611d0f81611355565b15611d4f576040517f08c379a0000000000000000000000000000000000000000000000000000000008152600401611d469061278b565b60405180910390fd5b611d5b60008383611c8c565b6001600360008473ffffffffffffffffffffffffffffffffffffffff1673ffffffffffffffffffffffffffffffffffffffff1681526020019081526020016000206000828254611dab9190612a1f565b92505081905550816002600083815260200190815260200160002060006101000a81548173ffffffffffffffffffffffffffffffffffffffff021916908373ffffffffffffffffffffffffffffffffffffffff160217905550808273ffffffffffffffffffffffffffffffffffffffff16600073ffffffffffffffffffffffffffffffffffffffff167fddf252ad1be2c89b69c2b068fc378daa952ba7f163c4a11628f55a4df523b3ef60405160405180910390a4611e6c60008383611c91565b5050565b6000611e918473ffffffffffffffffffffffffffffffffffffffff16612007565b15611ffa578373ffffffffffffffffffffffffffffffffffffffff1663150b7a02611eba6113c1565b8786866040518563ffffffff1660e01b8152600401611edc94939291906126a2565b602060405180830381600087803b158015611ef657600080fd5b505af1925050508015611f2757506040513d601f19601f82011682018060405250810190611f2491906122cb565b60015b611faa573d8060008114611f57576040519150601f19603f3d011682016040523d82523d6000602084013e611f5c565b606091505b50600081511415611fa2576040517f08c379a0000000000000000000000000000000000000000000000000000000008152600401611f999061272b565b60405180910390fd5b805181602001fd5b63150b7a0260e01b7bffffffffffffffffffffffffffffffffffffffffffffffffffffffff1916817bffffffffffffffffffffffffffffffffffffffffffffffffffffffff191614915050611fff565b600190505b949350505050565b6000808273ffffffffffffffffffffffffffffffffffffffff163b119050919050565b600061203d612038846129ab565b612986565b90508281526020810184848401111561205557600080fd5b612060848285612b4e565b509392505050565b60008135905061207781613230565b92915050565b60008135905061208c81613247565b92915050565b6000813590506120a18161325e565b92915050565b6000815190506120b68161325e565b92915050565b600082601f8301126120cd57600080fd5b81356120dd84826020860161202a565b91505092915050565b6000813590506120f581613275565b92915050565b60006020828403121561210d57600080fd5b600061211b84828501612068565b91505092915050565b6000806040838503121561213757600080fd5b600061214585828601612068565b925050602061215685828601612068565b9150509250929050565b60008060006060848603121561217557600080fd5b600061218386828701612068565b935050602061219486828701612068565b92505060406121a5868287016120e6565b9150509250925092565b600080600080608085870312156121c557600080fd5b60006121d387828801612068565b94505060206121e487828801612068565b93505060406121f5878288016120e6565b925050606085013567ffffffffffffffff81111561221257600080fd5b61221e878288016120bc565b91505092959194509250565b6000806040838503121561223d57600080fd5b600061224b85828601612068565b925050602061225c8582860161207d565b9150509250929050565b6000806040838503121561227957600080fd5b600061228785828601612068565b9250506020612298858286016120e6565b9150509250929050565b6000602082840312156122b457600080fd5b60006122c284828501612092565b91505092915050565b6000602082840312156122dd57600080fd5b60006122eb848285016120a7565b91505092915050565b60006020828403121561230657600080fd5b6000612314848285016120e6565b91505092915050565b61232681612ada565b82525050565b61233581612aec565b82525050565b6000612346826129dc565b61235081856129f2565b9350612360818560208601612b5d565b61236981612d29565b840191505092915050565b600061237f826129e7565b6123898185612a03565b9350612399818560208601612b5d565b6123a281612d29565b840191505092915050565b60006123b8826129e7565b6123c28185612a14565b93506123d2818560208601612b5d565b80840191505092915050565b60006123eb603283612a03565b91506123f682612d3a565b604082019050919050565b600061240e602683612a03565b915061241982612d89565b604082019050919050565b6000612431602583612a03565b915061243c82612dd8565b604082019050919050565b6000612454601c83612a03565b915061245f82612e27565b602082019050919050565b6000612477602483612a03565b915061248282612e50565b604082019050919050565b600061249a601983612a03565b91506124a582612e9f565b602082019050919050565b60006124bd602c83612a03565b91506124c882612ec8565b604082019050919050565b60006124e0603883612a03565b91506124eb82612f17565b604082019050919050565b6000612503602a83612a03565b915061250e82612f66565b604082019050919050565b6000612526602983612a03565b915061253182612fb5565b604082019050919050565b6000612549602083612a03565b915061255482613004565b602082019050919050565b600061256c602c83612a03565b91506125778261302d565b604082019050919050565b600061258f602083612a03565b915061259a8261307c565b602082019050919050565b60006125b2602f83612a03565b91506125bd826130a5565b604082019050919050565b60006125d5602183612a03565b91506125e0826130f4565b604082019050919050565b60006125f8602483612a03565b915061260382613143565b604082019050919050565b600061261b603183612a03565b915061262682613192565b604082019050919050565b600061263e602483612a03565b9150612649826131e1565b604082019050919050565b61265d81612b44565b82525050565b600061266f82856123ad565b915061267b82846123ad565b91508190509392505050565b600060208201905061269c600083018461231d565b92915050565b60006080820190506126b7600083018761231d565b6126c4602083018661231d565b6126d16040830185612654565b81810360608301526126e3818461233b565b905095945050505050565b6000602082019050612703600083018461232c565b92915050565b600060208201905081810360008301526127238184612374565b905092915050565b60006020820190508181036000830152612744816123de565b9050919050565b6000602082019050818103600083015261276481612401565b9050919050565b6000602082019050818103600083015261278481612424565b9050919050565b600060208201905081810360008301526127a481612447565b9050919050565b600060208201905081810360008301526127c48161246a565b9050919050565b600060208201905081810360008301526127e48161248d565b9050919050565b60006020820190508181036000830152612804816124b0565b9050919050565b60006020820190508181036000830152612824816124d3565b9050919050565b60006020820190508181036000830152612844816124f6565b9050919050565b6000602082019050818103600083015261286481612519565b9050919050565b600060208201905081810360008301526128848161253c565b9050919050565b600060208201905081810360008301526128a48161255f565b9050919050565b600060208201905081810360008301526128c481612582565b9050919050565b600060208201905081810360008301526128e4816125a5565b9050919050565b60006020820190508181036000830152612904816125c8565b9050919050565b60006020820190508181036000830152612924816125eb565b9050919050565b600060208201905081810360008301526129448161260e565b9050919050565b6000602082019050818103600083015261296481612631565b9050919050565b60006020820190506129806000830184612654565b92915050565b60006129906129a1565b905061299c8282612bc2565b919050565b6000604051905090565b600067ffffffffffffffff8211156129c6576129c5612cfa565b5b6129cf82612d29565b9050602081019050919050565b600081519050919050565b600081519050919050565b600082825260208201905092915050565b600082825260208201905092915050565b600081905092915050565b6000612a2a82612b44565b9150612a3583612b44565b9250827fffffffffffffffffffffffffffffffffffffffffffffffffffffffffffffffff03821115612a6a57612a69612c6d565b5b828201905092915050565b6000612a8082612b44565b9150612a8b83612b44565b925082612a9b57612a9a612c9c565b5b828204905092915050565b6000612ab182612b44565b9150612abc83612b44565b925082821015612acf57612ace612c6d565b5b828203905092915050565b6000612ae582612b24565b9050919050565b60008115159050919050565b60007fffffffff0000000000000000000000000000000000000000000000000000000082169050919050565b600073ffffffffffffffffffffffffffffffffffffffff82169050919050565b6000819050919050565b82818337600083830152505050565b60005b83811015612b7b578082015181840152602081019050612b60565b83811115612b8a576000848401525b50505050565b60006002820490506001821680612ba857607f821691505b60208210811415612bbc57612bbb612ccb565b5b50919050565b612bcb82612d29565b810181811067ffffffffffffffff82111715612bea57612be9612cfa565b5b80604052505050565b6000612bfe82612b44565b91507fffffffffffffffffffffffffffffffffffffffffffffffffffffffffffffffff821415612c3157612c30612c6d565b5b600182019050919050565b6000612c4782612b44565b9150612c5283612b44565b925082612c6257612c61612c9c565b5b828206905092915050565b7f4e487b7100000000000000000000000000000000000000000000000000000000600052601160045260246000fd5b7f4e487b7100000000000000000000000000000000000000000000000000000000600052601260045260246000fd5b7f4e487b7100000000000000000000000000000000000000000000000000000000600052602260045260246000fd5b7f4e487b7100000000000000000000000000000000000000000000000000000000600052604160045260246000fd5b6000601f19601f8301169050919050565b7f4552433732313a207472616e7366657220746f206e6f6e20455243373231526560008201527f63656976657220696d706c656d656e7465720000000000000000000000000000602082015250565b7f4f776e61626c653a206e6577206f776e657220697320746865207a65726f206160008201527f6464726573730000000000000000000000000000000000000000000000000000602082015250565b7f4552433732313a207472616e736665722066726f6d20696e636f72726563742060008201527f6f776e6572000000000000000000000000000000000000000000000000000000602082015250565b7f4552433732313a20746f6b656e20616c7265616479206d696e74656400000000600082015250565b7f4552433732313a207472616e7366657220746f20746865207a65726f2061646460008201527f7265737300000000000000000000000000000000000000000000000000000000602082015250565b7f4552433732313a20617070726f766520746f2063616c6c657200000000000000600082015250565b7f4552433732313a206f70657261746f7220717565727920666f72206e6f6e657860008201527f697374656e7420746f6b656e0000000000000000000000000000000000000000602082015250565b7f4552433732313a20617070726f76652063616c6c6572206973206e6f74206f7760008201527f6e6572206e6f7220617070726f76656420666f7220616c6c0000000000000000602082015250565b7f4552433732313a2062616c616e636520717565727920666f7220746865207a6560008201527f726f206164647265737300000000000000000000000000000000000000000000602082015250565b7f4552433732313a206f776e657220717565727920666f72206e6f6e657869737460008201527f656e7420746f6b656e0000000000000000000000000000000000000000000000602082015250565b7f4552433732313a206d696e7420746f20746865207a65726f2061646472657373600082015250565b7f4552433732313a20617070726f76656420717565727920666f72206e6f6e657860008201527f697374656e7420746f6b656e0000000000000000000000000000000000000000602082015250565b7f4f776e61626c653a2063616c6c6572206973206e6f7420746865206f776e6572600082015250565b7f4552433732314d657461646174613a2055524920717565727920666f72206e6f60008201527f6e6578697374656e7420746f6b656e0000000000000000000000000000000000602082015250565b7f4552433732313a20617070726f76616c20746f2063757272656e74206f776e6560008201527f7200000000000000000000000000000000000000000000000000000000000000602082015250565b7f4572726f203a20507265636f206d656e6f72207175652074617861732064652060008201527f6d696e7400000000000000000000000000000000000000000000000000000000602082015250565b7f4552433732313a207472616e736665722063616c6c6572206973206e6f74206f60008201527f776e6572206e6f7220617070726f766564000000000000000000000000000000602082015250565b7f4572726f203a204361706163696461646520646520746f6b656e73206578636560008201527f6469646100000000000000000000000000000000000000000000000000000000602082015250565b61323981612ada565b811461324457600080fd5b50565b61325081612aec565b811461325b57600080fd5b50565b61326781612af8565b811461327257600080fd5b50565b61327e81612b44565b811461328957600080fd5b5056fea2646970667358221220bc505a6bbe80717bbba81b64b1530ecdea8b4fd4eb410acf7ecab38da549b90164736f6c63430008010033",
  "immutableReferences": {},
  "source": "// SPDX-License-Identifier: MIT\npragma solidity >=0.6.0 <0.9.0;\n\nimport \"@openzeppelin/contracts/token/ERC721/ERC721.sol\";\nimport \"@openzeppelin/contracts/access/Ownable.sol\";\n\ncontract ERC721Capped is ERC721, Ownable {\n    uint256 public mintPrice;\n    uint256 public totalSupply;\n    uint256 public maxSupply;\n    bool public canMint;\n\n    constructor(\n        string memory _name,\n        string memory _symbol,\n        uint64 cap\n    ) ERC721(_name, _symbol) {\n        require(cap > 0, \"Erro : Capacidade de tokens nula\");\n        maxSupply = cap;\n        canMint = false;\n        mintPrice = 0;\n    }\n\n    function getTotalSupply() public view returns (uint256) {\n        return totalSupply;\n    }\n\n    function getBalance() public view returns (uint256) {\n        return address(this).balance;\n    }\n\n    function _createNFT() internal {\n        require(\n            totalSupply < maxSupply,\n            \"Erro : Capacidade de tokens excedida\"\n        );\n        totalSupply++;\n        uint256 tokenId = totalSupply;\n        _mint(msg.sender, tokenId);\n    }\n\n    function ownerMint() public onlyOwner {\n        _createNFT();\n    }\n\n    function publicMint() public payable {\n        require(msg.value >= mintPrice, \"Erro : Preco menor que taxas de mint\");\n        require(canMint);\n        _createNFT();\n    }\n\n    function setMintPrice(uint256 _mintPrice) public onlyOwner {\n        mintPrice = _mintPrice;\n    }\n\n    function openSales(uint256 _mintPrice) public onlyOwner {\n        canMint = true;\n        setMintPrice(_mintPrice);\n    }\n\n    function closeSales() public onlyOwner {\n        canMint = false;\n    }\n\n    function withdraw() external payable onlyOwner {\n        payable(owner()).transfer(address(this).balance);\n    }\n}\n",
  "sourcePath": "/Users/gustavomb/Desktop/Blockchain/ERC721Capped/contracts/ERC721Capped.sol",
  "compiler": {
    "name": "solc",
    "version": "0.8.1+commit.df193b15.Emscripten.clang"
  },
  "schemaVersion": "3.4.7",
  "updatedAt": "2022-06-08T00:12:06.912Z",
  "networkType": "ethereum",
  "devdoc": {
    "kind": "dev",
    "methods": {
      "approve(address,uint256)": {
        "details": "See {IERC721-approve}."
      },
      "balanceOf(address)": {
        "details": "See {IERC721-balanceOf}."
      },
      "getApproved(uint256)": {
        "details": "See {IERC721-getApproved}."
      },
      "isApprovedForAll(address,address)": {
        "details": "See {IERC721-isApprovedForAll}."
      },
      "name()": {
        "details": "See {IERC721Metadata-name}."
      },
      "owner()": {
        "details": "Returns the address of the current owner."
      },
      "ownerOf(uint256)": {
        "details": "See {IERC721-ownerOf}."
      },
      "renounceOwnership()": {
        "details": "Leaves the contract without owner. It will not be possible to call `onlyOwner` functions anymore. Can only be called by the current owner. NOTE: Renouncing ownership will leave the contract without an owner, thereby removing any functionality that is only available to the owner."
      },
      "safeTransferFrom(address,address,uint256)": {
        "details": "See {IERC721-safeTransferFrom}."
      },
      "safeTransferFrom(address,address,uint256,bytes)": {
        "details": "See {IERC721-safeTransferFrom}."
      },
      "setApprovalForAll(address,bool)": {
        "details": "See {IERC721-setApprovalForAll}."
      },
      "supportsInterface(bytes4)": {
        "details": "See {IERC165-supportsInterface}."
      },
      "symbol()": {
        "details": "See {IERC721Metadata-symbol}."
      },
      "tokenURI(uint256)": {
        "details": "See {IERC721Metadata-tokenURI}."
      },
      "transferFrom(address,address,uint256)": {
        "details": "See {IERC721-transferFrom}."
      },
      "transferOwnership(address)": {
        "details": "Transfers ownership of the contract to a new account (`newOwner`). Can only be called by the current owner."
      }
    },
    "version": 1
  },
  "userdoc": {
    "kind": "user",
    "methods": {},
    "version": 1
  }
}