{
  "contractName": "TokenGovernance",
  "abi": [
    {
      "inputs": [
        {
          "internalType": "contract ERC20",
          "name": "token",
          "type": "address"
        }
      ],
      "stateMutability": "nonpayable",
      "type": "constructor"
    },
    {
      "inputs": [],
      "name": "tokenCounter",
      "outputs": [
        {
          "internalType": "uint256",
          "name": "",
          "type": "uint256"
        }
      ],
      "stateMutability": "view",
      "type": "function",
      "constant": true
    },
    {
      "inputs": [],
      "name": "votersCounter",
      "outputs": [
        {
          "internalType": "uint256",
          "name": "",
          "type": "uint256"
        }
      ],
      "stateMutability": "view",
      "type": "function",
      "constant": true
    },
    {
      "inputs": [],
      "name": "vote",
      "outputs": [],
      "stateMutability": "nonpayable",
      "type": "function"
    },
    {
      "inputs": [],
      "name": "endVote",
      "outputs": [],
      "stateMutability": "nonpayable",
      "type": "function"
    },
    {
      "inputs": [],
      "name": "getStatus",
      "outputs": [
        {
          "internalType": "bool",
          "name": "",
          "type": "bool"
        }
      ],
      "stateMutability": "view",
      "type": "function",
      "constant": true
    },
    {
      "inputs": [],
      "name": "getVoters",
      "outputs": [
        {
          "internalType": "uint256",
          "name": "",
          "type": "uint256"
        }
      ],
      "stateMutability": "view",
      "type": "function",
      "constant": true
    },
    {
      "inputs": [],
      "name": "getTokens",
      "outputs": [
        {
          "internalType": "uint256",
          "name": "",
          "type": "uint256"
        }
      ],
      "stateMutability": "view",
      "type": "function",
      "constant": true
    },
    {
      "inputs": [
        {
          "internalType": "address",
          "name": "acc",
          "type": "address"
        }
      ],
      "name": "hasVoted",
      "outputs": [
        {
          "internalType": "bool",
          "name": "",
          "type": "bool"
        }
      ],
      "stateMutability": "view",
      "type": "function",
      "constant": true
    }
  ],
  "bytecode": "0x608060405234801561001057600080fd5b50604051610b86380380610b86833981810160405281019061003291906100de565b806000806101000a81548173ffffffffffffffffffffffffffffffffffffffff021916908373ffffffffffffffffffffffffffffffffffffffff1602179055506000600281905550600060038190555033600160006101000a81548173ffffffffffffffffffffffffffffffffffffffff021916908373ffffffffffffffffffffffffffffffffffffffff16021790555050610162565b6000815190506100d88161014b565b92915050565b6000602082840312156100f057600080fd5b60006100fe848285016100c9565b91505092915050565b60006101128261012b565b9050919050565b600061012482610107565b9050919050565b600073ffffffffffffffffffffffffffffffffffffffff82169050919050565b61015481610119565b811461015f57600080fd5b50565b610a15806101716000396000f3fe608060405234801561001057600080fd5b50600436106100885760003560e01c8063b92239461161005b578063b922394614610103578063c659b4f41461010d578063cdd722531461012b578063d082e3811461014957610088565b806309eef43e1461008d5780634e69d560146100bd578063632a9a52146100db578063aa6ca808146100e5575b600080fd5b6100a760048036038101906100a291906105b4565b610167565b6040516100b491906107b4565b60405180910390f35b6100c56101bd565b6040516100d291906107b4565b60405180910390f35b6100e36101d4565b005b6100ed6103e4565b6040516100fa919061086f565b60405180910390f35b61010b6103ee565b005b610115610574565b604051610122919061086f565b60405180910390f35b61013361057a565b604051610140919061086f565b60405180910390f35b610151610584565b60405161015e919061086f565b60405180910390f35b6000600460008373ffffffffffffffffffffffffffffffffffffffff1673ffffffffffffffffffffffffffffffffffffffff16815260200190815260200160002060009054906101000a900460ff169050919050565b6000600560009054906101000a900460ff16905090565b600560009054906101000a900460ff1615610224576040517f08c379a000000000000000000000000000000000000000000000000000000000815260040161021b906107ef565b60405180910390fd5b600460003373ffffffffffffffffffffffffffffffffffffffff1673ffffffffffffffffffffffffffffffffffffffff16815260200190815260200160002060009054906101000a900460ff16156102b1576040517f08c379a00000000000000000000000000000000000000000000000000000000081526004016102a89061080f565b60405180910390fd5b6001600460003373ffffffffffffffffffffffffffffffffffffffff1673ffffffffffffffffffffffffffffffffffffffff16815260200190815260200160002060006101000a81548160ff0219169083151502179055506002600081548092919061031c90610939565b919050555060008054906101000a900473ffffffffffffffffffffffffffffffffffffffff1673ffffffffffffffffffffffffffffffffffffffff166370a08231336040518263ffffffff1660e01b815260040161037a9190610799565b60206040518083038186803b15801561039257600080fd5b505afa1580156103a6573d6000803e3d6000fd5b505050506040513d601f19601f820116820180604052508101906103ca91906105dd565b600360008282546103db919061089b565b92505081905550565b6000600354905090565b3373ffffffffffffffffffffffffffffffffffffffff16600160009054906101000a900473ffffffffffffffffffffffffffffffffffffffff1673ffffffffffffffffffffffffffffffffffffffff161461047e576040517f08c379a0000000000000000000000000000000000000000000000000000000008152600401610475906107cf565b60405180910390fd5b600560009054906101000a900460ff16156104ce576040517f08c379a00000000000000000000000000000000000000000000000000000000081526004016104c5906107ef565b60405180910390fd5b6002805411610512576040517f08c379a00000000000000000000000000000000000000000000000000000000081526004016105099061082f565b60405180910390fd5b600560035411610557576040517f08c379a000000000000000000000000000000000000000000000000000000000815260040161054e9061084f565b60405180910390fd5b6001600560006101000a81548160ff021916908315150217905550565b60025481565b6000600254905090565b60035481565b600081359050610599816109b1565b92915050565b6000815190506105ae816109c8565b92915050565b6000602082840312156105c657600080fd5b60006105d48482850161058a565b91505092915050565b6000602082840312156105ef57600080fd5b60006105fd8482850161059f565b91505092915050565b61060f816108f1565b82525050565b61061e81610903565b82525050565b600061063160158361088a565b91507f596f75277265206e6f7420746865206f776e65722100000000000000000000006000830152602082019050919050565b600061067160138361088a565b91507f506f6f6c20616c726561647920656e64656421000000000000000000000000006000830152602082019050919050565b60006106b160128361088a565b91507f596f7520616c726561647920766f7465642100000000000000000000000000006000830152602082019050919050565b60006106f1601d8361088a565b91507f596f75206e656564206d6f72652070656f706c6520746f20766f7465210000006000830152602082019050919050565b600061073160218361088a565b91507f596f75206e656564206d6f726520546f6b656e7320696e2074686520706f6f6c60008301527f21000000000000000000000000000000000000000000000000000000000000006020830152604082019050919050565b6107938161092f565b82525050565b60006020820190506107ae6000830184610606565b92915050565b60006020820190506107c96000830184610615565b92915050565b600060208201905081810360008301526107e881610624565b9050919050565b6000602082019050818103600083015261080881610664565b9050919050565b60006020820190508181036000830152610828816106a4565b9050919050565b60006020820190508181036000830152610848816106e4565b9050919050565b6000602082019050818103600083015261086881610724565b9050919050565b6000602082019050610884600083018461078a565b92915050565b600082825260208201905092915050565b60006108a68261092f565b91506108b18361092f565b9250827fffffffffffffffffffffffffffffffffffffffffffffffffffffffffffffffff038211156108e6576108e5610982565b5b828201905092915050565b60006108fc8261090f565b9050919050565b60008115159050919050565b600073ffffffffffffffffffffffffffffffffffffffff82169050919050565b6000819050919050565b60006109448261092f565b91507fffffffffffffffffffffffffffffffffffffffffffffffffffffffffffffffff82141561097757610976610982565b5b600182019050919050565b7f4e487b7100000000000000000000000000000000000000000000000000000000600052601160045260246000fd5b6109ba816108f1565b81146109c557600080fd5b50565b6109d18161092f565b81146109dc57600080fd5b5056fea2646970667358221220ec7b86a4482d496b1fb06f78321d6088c40add8c21072670f567af41c50c5c3b64736f6c63430008000033",
  "immutableReferences": {},
  "source": "// SPDX-License-Identifier: MIT\npragma solidity ^0.8.0;\nimport \"@openzeppelin/contracts/token/ERC20/ERC20.sol\";\n\ncontract VoteCoin is ERC20 {\n    constructor() ERC20(\"VoteCoin\", \"VC\") {\n        _mint(msg.sender,  10);\n    }\n\n    // Funco a ser removida em um contrato de verdade\n    function getTokensForTest() public {\n        require(balanceOf(msg.sender) == 0, \"You already got coins to test!\");\n        _mint(msg.sender,  10);\n    }\n    \n    function getAddress() public view returns(ERC20) {\n        return this;\n    }\n}\n\ncontract TokenGovernance {\n    ERC20 _token;\n    address private owner;\n    uint256 public votersCounter;\n    uint256 public tokenCounter;\n    mapping(address => bool) whoVoted;\n    bool private _finalized;\n    bool private _teste;\n\n    constructor(ERC20 token) {\n        _token = token;\n        votersCounter = 0;\n        tokenCounter = 0;\n        owner = msg.sender;\n    }\n\n    function vote() public {\n        require(!_finalized, \"Pool already ended!\");\n        require(!whoVoted[msg.sender], \"You already voted!\");\n        whoVoted[msg.sender] = true;\n        votersCounter++;\n        tokenCounter += _token.balanceOf(msg.sender);\n    }\n\n    function endVote() public {\n        require(owner == msg.sender, \"You're not the owner!\");\n        require(!_finalized, \"Pool already ended!\");\n        require(votersCounter > 2, \"You need more people to vote!\");\n        require(tokenCounter > 5, \"You need more Tokens in the pool!\");\n        _finalized = true;\n    }\n    \n    function getStatus() public view returns(bool) {\n        return _finalized;\n    }\n\n    function getVoters() public view returns(uint256) {\n        return votersCounter;\n    }\n\n    function getTokens() public view returns(uint256) {\n        return tokenCounter;\n    }\n\n    function hasVoted(address acc) public view returns(bool) {\n        return whoVoted[acc];\n    }\n}",
  "sourcePath": "C:\\Users\\Maulem\\Downloads\\TruffleTest\\src\\contracts\\Governance.sol",
  "compiler": {
    "name": "solc",
    "version": "0.8.0+commit.c7dfd78e.Emscripten.clang"
  },
  "schemaVersion": "3.4.4",
  "updatedAt": "2022-04-21T23:06:46.219Z",
  "networkType": "ethereum",
  "devdoc": {
    "kind": "dev",
    "methods": {},
    "version": 1
  },
  "userdoc": {
    "kind": "user",
    "methods": {},
    "version": 1
  }
}