{
  "contractName": "VoteCoin",
  "abi": [
    {
      "inputs": [],
      "stateMutability": "nonpayable",
      "type": "constructor"
    },
    {
      "anonymous": false,
      "inputs": [
        {
          "indexed": true,
          "internalType": "address",
          "name": "owner",
          "type": "address"
        },
        {
          "indexed": true,
          "internalType": "address",
          "name": "spender",
          "type": "address"
        },
        {
          "indexed": false,
          "internalType": "uint256",
          "name": "value",
          "type": "uint256"
        }
      ],
      "name": "Approval",
      "type": "event"
    },
    {
      "anonymous": false,
      "inputs": [
        {
          "indexed": true,
          "internalType": "address",
          "name": "from",
          "type": "address"
        },
        {
          "indexed": true,
          "internalType": "address",
          "name": "to",
          "type": "address"
        },
        {
          "indexed": false,
          "internalType": "uint256",
          "name": "value",
          "type": "uint256"
        }
      ],
      "name": "Transfer",
      "type": "event"
    },
    {
      "inputs": [
        {
          "internalType": "address",
          "name": "owner",
          "type": "address"
        },
        {
          "internalType": "address",
          "name": "spender",
          "type": "address"
        }
      ],
      "name": "allowance",
      "outputs": [
        {
          "internalType": "uint256",
          "name": "",
          "type": "uint256"
        }
      ],
      "stateMutability": "view",
      "type": "function",
      "constant": true
    },
    {
      "inputs": [
        {
          "internalType": "address",
          "name": "spender",
          "type": "address"
        },
        {
          "internalType": "uint256",
          "name": "amount",
          "type": "uint256"
        }
      ],
      "name": "approve",
      "outputs": [
        {
          "internalType": "bool",
          "name": "",
          "type": "bool"
        }
      ],
      "stateMutability": "nonpayable",
      "type": "function"
    },
    {
      "inputs": [
        {
          "internalType": "address",
          "name": "account",
          "type": "address"
        }
      ],
      "name": "balanceOf",
      "outputs": [
        {
          "internalType": "uint256",
          "name": "",
          "type": "uint256"
        }
      ],
      "stateMutability": "view",
      "type": "function",
      "constant": true
    },
    {
      "inputs": [],
      "name": "decimals",
      "outputs": [
        {
          "internalType": "uint8",
          "name": "",
          "type": "uint8"
        }
      ],
      "stateMutability": "view",
      "type": "function",
      "constant": true
    },
    {
      "inputs": [
        {
          "internalType": "address",
          "name": "spender",
          "type": "address"
        },
        {
          "internalType": "uint256",
          "name": "subtractedValue",
          "type": "uint256"
        }
      ],
      "name": "decreaseAllowance",
      "outputs": [
        {
          "internalType": "bool",
          "name": "",
          "type": "bool"
        }
      ],
      "stateMutability": "nonpayable",
      "type": "function"
    },
    {
      "inputs": [
        {
          "internalType": "address",
          "name": "spender",
          "type": "address"
        },
        {
          "internalType": "uint256",
          "name": "addedValue",
          "type": "uint256"
        }
      ],
      "name": "increaseAllowance",
      "outputs": [
        {
          "internalType": "bool",
          "name": "",
          "type": "bool"
        }
      ],
      "stateMutability": "nonpayable",
      "type": "function"
    },
    {
      "inputs": [],
      "name": "name",
      "outputs": [
        {
          "internalType": "string",
          "name": "",
          "type": "string"
        }
      ],
      "stateMutability": "view",
      "type": "function",
      "constant": true
    },
    {
      "inputs": [],
      "name": "symbol",
      "outputs": [
        {
          "internalType": "string",
          "name": "",
          "type": "string"
        }
      ],
      "stateMutability": "view",
      "type": "function",
      "constant": true
    },
    {
      "inputs": [],
      "name": "totalSupply",
      "outputs": [
        {
          "internalType": "uint256",
          "name": "",
          "type": "uint256"
        }
      ],
      "stateMutability": "view",
      "type": "function",
      "constant": true
    },
    {
      "inputs": [
        {
          "internalType": "address",
          "name": "to",
          "type": "address"
        },
        {
          "internalType": "uint256",
          "name": "amount",
          "type": "uint256"
        }
      ],
      "name": "transfer",
      "outputs": [
        {
          "internalType": "bool",
          "name": "",
          "type": "bool"
        }
      ],
      "stateMutability": "nonpayable",
      "type": "function"
    },
    {
      "inputs": [
        {
          "internalType": "address",
          "name": "from",
          "type": "address"
        },
        {
          "internalType": "address",
          "name": "to",
          "type": "address"
        },
        {
          "internalType": "uint256",
          "name": "amount",
          "type": "uint256"
        }
      ],
      "name": "transferFrom",
      "outputs": [
        {
          "internalType": "bool",
          "name": "",
          "type": "bool"
        }
      ],
      "stateMutability": "nonpayable",
      "type": "function"
    },
    {
      "inputs": [],
      "name": "getTokensForTest",
      "outputs": [],
      "stateMutability": "nonpayable",
      "type": "function"
    },
    {
      "inputs": [],
      "name": "getAddress",
      "outputs": [
        {
          "internalType": "contract ERC20",
          "name": "",
          "type": "address"
        }
      ],
      "stateMutability": "view",
      "type": "function",
      "constant": true
    }
  ],
  "bytecode": "0x60806040523480156200001157600080fd5b506040518060400160405280600881526020017f566f7465436f696e0000000000000000000000000000000000000000000000008152506040518060400160405280600281526020017f56430000000000000000000000000000000000000000000000000000000000008152508160039080519060200190620000969291906200024e565b508060049080519060200190620000af9291906200024e565b505050620000c533600a620000cb60201b60201c565b6200049c565b600073ffffffffffffffffffffffffffffffffffffffff168273ffffffffffffffffffffffffffffffffffffffff1614156200013e576040517f08c379a0000000000000000000000000000000000000000000000000000000008152600401620001359062000351565b60405180910390fd5b62000152600083836200024460201b60201c565b8060026000828254620001669190620003a1565b92505081905550806000808473ffffffffffffffffffffffffffffffffffffffff1673ffffffffffffffffffffffffffffffffffffffff1681526020019081526020016000206000828254620001bd9190620003a1565b925050819055508173ffffffffffffffffffffffffffffffffffffffff16600073ffffffffffffffffffffffffffffffffffffffff167fddf252ad1be2c89b69c2b068fc378daa952ba7f163c4a11628f55a4df523b3ef8360405162000224919062000373565b60405180910390a362000240600083836200024960201b60201c565b5050565b505050565b505050565b8280546200025c9062000408565b90600052602060002090601f016020900481019282620002805760008555620002cc565b82601f106200029b57805160ff1916838001178555620002cc565b82800160010185558215620002cc579182015b82811115620002cb578251825591602001919060010190620002ae565b5b509050620002db9190620002df565b5090565b5b80821115620002fa576000816000905550600101620002e0565b5090565b60006200030d601f8362000390565b91507f45524332303a206d696e7420746f20746865207a65726f2061646472657373006000830152602082019050919050565b6200034b81620003fe565b82525050565b600060208201905081810360008301526200036c81620002fe565b9050919050565b60006020820190506200038a600083018462000340565b92915050565b600082825260208201905092915050565b6000620003ae82620003fe565b9150620003bb83620003fe565b9250827fffffffffffffffffffffffffffffffffffffffffffffffffffffffffffffffff03821115620003f357620003f26200043e565b5b828201905092915050565b6000819050919050565b600060028204905060018216806200042157607f821691505b602082108114156200043857620004376200046d565b5b50919050565b7f4e487b7100000000000000000000000000000000000000000000000000000000600052601160045260246000fd5b7f4e487b7100000000000000000000000000000000000000000000000000000000600052602260045260246000fd5b61160180620004ac6000396000f3fe608060405234801561001057600080fd5b50600436106100cf5760003560e01c8063395093511161008c578063a457c2d711610066578063a457c2d71461022a578063a9059cbb1461025a578063ad44487d1461028a578063dd62ed3e14610294576100cf565b806339509351146101ac57806370a08231146101dc57806395d89b411461020c576100cf565b806306fdde03146100d4578063095ea7b3146100f257806318160ddd1461012257806323b872dd14610140578063313ce5671461017057806338cc48311461018e575b600080fd5b6100dc6102c4565b6040516100e99190611266565b60405180910390f35b61010c60048036038101906101079190610e5b565b610356565b6040516101199190611230565b60405180910390f35b61012a610379565b60405161013791906113a8565b60405180910390f35b61015a60048036038101906101559190610e0c565b610383565b6040516101679190611230565b60405180910390f35b6101786103b2565b60405161018591906113c3565b60405180910390f35b6101966103bb565b6040516101a3919061124b565b60405180910390f35b6101c660048036038101906101c19190610e5b565b6103c3565b6040516101d39190611230565b60405180910390f35b6101f660048036038101906101f19190610da7565b61046d565b60405161020391906113a8565b60405180910390f35b6102146104b5565b6040516102219190611266565b60405180910390f35b610244600480360381019061023f9190610e5b565b610547565b6040516102519190611230565b60405180910390f35b610274600480360381019061026f9190610e5b565b610631565b6040516102819190611230565b60405180910390f35b610292610654565b005b6102ae60048036038101906102a99190610dd0565b6106ac565b6040516102bb91906113a8565b60405180910390f35b6060600380546102d3906114fc565b80601f01602080910402602001604051908101604052809291908181526020018280546102ff906114fc565b801561034c5780601f106103215761010080835404028352916020019161034c565b820191906000526020600020905b81548152906001019060200180831161032f57829003601f168201915b5050505050905090565b600080610361610733565b905061036e81858561073b565b600191505092915050565b6000600254905090565b60008061038e610733565b905061039b858285610906565b6103a6858585610992565b60019150509392505050565b60006012905090565b600030905090565b6000806103ce610733565b9050610462818585600160008673ffffffffffffffffffffffffffffffffffffffff1673ffffffffffffffffffffffffffffffffffffffff16815260200190815260200160002060008973ffffffffffffffffffffffffffffffffffffffff1673ffffffffffffffffffffffffffffffffffffffff1681526020019081526020016000205461045d91906113fa565b61073b565b600191505092915050565b60008060008373ffffffffffffffffffffffffffffffffffffffff1673ffffffffffffffffffffffffffffffffffffffff168152602001908152602001600020549050919050565b6060600480546104c4906114fc565b80601f01602080910402602001604051908101604052809291908181526020018280546104f0906114fc565b801561053d5780601f106105125761010080835404028352916020019161053d565b820191906000526020600020905b81548152906001019060200180831161052057829003601f168201915b5050505050905090565b600080610552610733565b90506000600160008373ffffffffffffffffffffffffffffffffffffffff1673ffffffffffffffffffffffffffffffffffffffff16815260200190815260200160002060008673ffffffffffffffffffffffffffffffffffffffff1673ffffffffffffffffffffffffffffffffffffffff16815260200190815260200160002054905083811015610618576040517f08c379a000000000000000000000000000000000000000000000000000000000815260040161060f90611368565b60405180910390fd5b610625828686840361073b565b60019250505092915050565b60008061063c610733565b9050610649818585610992565b600191505092915050565b600061065f3361046d565b1461069f576040517f08c379a000000000000000000000000000000000000000000000000000000000815260040161069690611308565b60405180910390fd5b6106aa33600a610c13565b565b6000600160008473ffffffffffffffffffffffffffffffffffffffff1673ffffffffffffffffffffffffffffffffffffffff16815260200190815260200160002060008373ffffffffffffffffffffffffffffffffffffffff1673ffffffffffffffffffffffffffffffffffffffff16815260200190815260200160002054905092915050565b600033905090565b600073ffffffffffffffffffffffffffffffffffffffff168373ffffffffffffffffffffffffffffffffffffffff1614156107ab576040517f08c379a00000000000000000000000000000000000000000000000000000000081526004016107a290611348565b60405180910390fd5b600073ffffffffffffffffffffffffffffffffffffffff168273ffffffffffffffffffffffffffffffffffffffff16141561081b576040517f08c379a0000000000000000000000000000000000000000000000000000000008152600401610812906112a8565b60405180910390fd5b80600160008573ffffffffffffffffffffffffffffffffffffffff1673ffffffffffffffffffffffffffffffffffffffff16815260200190815260200160002060008473ffffffffffffffffffffffffffffffffffffffff1673ffffffffffffffffffffffffffffffffffffffff168152602001908152602001600020819055508173ffffffffffffffffffffffffffffffffffffffff168373ffffffffffffffffffffffffffffffffffffffff167f8c5be1e5ebec7d5bd14f71427d1e84f3dd0314c0f7b2291e5b200ac8c7c3b925836040516108f991906113a8565b60405180910390a3505050565b600061091284846106ac565b90507fffffffffffffffffffffffffffffffffffffffffffffffffffffffffffffffff811461098c578181101561097e576040517f08c379a0000000000000000000000000000000000000000000000000000000008152600401610975906112c8565b60405180910390fd5b61098b848484840361073b565b5b50505050565b600073ffffffffffffffffffffffffffffffffffffffff168373ffffffffffffffffffffffffffffffffffffffff161415610a02576040517f08c379a00000000000000000000000000000000000000000000000000000000081526004016109f990611328565b60405180910390fd5b600073ffffffffffffffffffffffffffffffffffffffff168273ffffffffffffffffffffffffffffffffffffffff161415610a72576040517f08c379a0000000000000000000000000000000000000000000000000000000008152600401610a6990611288565b60405180910390fd5b610a7d838383610d73565b60008060008573ffffffffffffffffffffffffffffffffffffffff1673ffffffffffffffffffffffffffffffffffffffff16815260200190815260200160002054905081811015610b03576040517f08c379a0000000000000000000000000000000000000000000000000000000008152600401610afa906112e8565b60405180910390fd5b8181036000808673ffffffffffffffffffffffffffffffffffffffff1673ffffffffffffffffffffffffffffffffffffffff16815260200190815260200160002081905550816000808573ffffffffffffffffffffffffffffffffffffffff1673ffffffffffffffffffffffffffffffffffffffff1681526020019081526020016000206000828254610b9691906113fa565b925050819055508273ffffffffffffffffffffffffffffffffffffffff168473ffffffffffffffffffffffffffffffffffffffff167fddf252ad1be2c89b69c2b068fc378daa952ba7f163c4a11628f55a4df523b3ef84604051610bfa91906113a8565b60405180910390a3610c0d848484610d78565b50505050565b600073ffffffffffffffffffffffffffffffffffffffff168273ffffffffffffffffffffffffffffffffffffffff161415610c83576040517f08c379a0000000000000000000000000000000000000000000000000000000008152600401610c7a90611388565b60405180910390fd5b610c8f60008383610d73565b8060026000828254610ca191906113fa565b92505081905550806000808473ffffffffffffffffffffffffffffffffffffffff1673ffffffffffffffffffffffffffffffffffffffff1681526020019081526020016000206000828254610cf691906113fa565b925050819055508173ffffffffffffffffffffffffffffffffffffffff16600073ffffffffffffffffffffffffffffffffffffffff167fddf252ad1be2c89b69c2b068fc378daa952ba7f163c4a11628f55a4df523b3ef83604051610d5b91906113a8565b60405180910390a3610d6f60008383610d78565b5050565b505050565b505050565b600081359050610d8c8161159d565b92915050565b600081359050610da1816115b4565b92915050565b600060208284031215610db957600080fd5b6000610dc784828501610d7d565b91505092915050565b60008060408385031215610de357600080fd5b6000610df185828601610d7d565b9250506020610e0285828601610d7d565b9150509250929050565b600080600060608486031215610e2157600080fd5b6000610e2f86828701610d7d565b9350506020610e4086828701610d7d565b9250506040610e5186828701610d92565b9150509250925092565b60008060408385031215610e6e57600080fd5b6000610e7c85828601610d7d565b9250506020610e8d85828601610d92565b9150509250929050565b610ea081611462565b82525050565b610eaf816114a5565b82525050565b6000610ec0826113de565b610eca81856113e9565b9350610eda8185602086016114c9565b610ee38161158c565b840191505092915050565b6000610efb6023836113e9565b91507f45524332303a207472616e7366657220746f20746865207a65726f206164647260008301527f65737300000000000000000000000000000000000000000000000000000000006020830152604082019050919050565b6000610f616022836113e9565b91507f45524332303a20617070726f766520746f20746865207a65726f20616464726560008301527f73730000000000000000000000000000000000000000000000000000000000006020830152604082019050919050565b6000610fc7601d836113e9565b91507f45524332303a20696e73756666696369656e7420616c6c6f77616e63650000006000830152602082019050919050565b60006110076026836113e9565b91507f45524332303a207472616e7366657220616d6f756e742065786365656473206260008301527f616c616e636500000000000000000000000000000000000000000000000000006020830152604082019050919050565b600061106d601e836113e9565b91507f596f7520616c726561647920676f7420636f696e7320746f20746573742100006000830152602082019050919050565b60006110ad6025836113e9565b91507f45524332303a207472616e736665722066726f6d20746865207a65726f20616460008301527f64726573730000000000000000000000000000000000000000000000000000006020830152604082019050919050565b60006111136024836113e9565b91507f45524332303a20617070726f76652066726f6d20746865207a65726f2061646460008301527f72657373000000000000000000000000000000000000000000000000000000006020830152604082019050919050565b60006111796025836113e9565b91507f45524332303a2064656372656173656420616c6c6f77616e63652062656c6f7760008301527f207a65726f0000000000000000000000000000000000000000000000000000006020830152604082019050919050565b60006111df601f836113e9565b91507f45524332303a206d696e7420746f20746865207a65726f2061646472657373006000830152602082019050919050565b61121b8161148e565b82525050565b61122a81611498565b82525050565b60006020820190506112456000830184610e97565b92915050565b60006020820190506112606000830184610ea6565b92915050565b600060208201905081810360008301526112808184610eb5565b905092915050565b600060208201905081810360008301526112a181610eee565b9050919050565b600060208201905081810360008301526112c181610f54565b9050919050565b600060208201905081810360008301526112e181610fba565b9050919050565b6000602082019050818103600083015261130181610ffa565b9050919050565b6000602082019050818103600083015261132181611060565b9050919050565b60006020820190508181036000830152611341816110a0565b9050919050565b6000602082019050818103600083015261136181611106565b9050919050565b600060208201905081810360008301526113818161116c565b9050919050565b600060208201905081810360008301526113a1816111d2565b9050919050565b60006020820190506113bd6000830184611212565b92915050565b60006020820190506113d86000830184611221565b92915050565b600081519050919050565b600082825260208201905092915050565b60006114058261148e565b91506114108361148e565b9250827fffffffffffffffffffffffffffffffffffffffffffffffffffffffffffffffff038211156114455761144461152e565b5b828201905092915050565b600061145b8261146e565b9050919050565b60008115159050919050565b600073ffffffffffffffffffffffffffffffffffffffff82169050919050565b6000819050919050565b600060ff82169050919050565b60006114b0826114b7565b9050919050565b60006114c28261146e565b9050919050565b60005b838110156114e75780820151818401526020810190506114cc565b838111156114f6576000848401525b50505050565b6000600282049050600182168061151457607f821691505b602082108114156115285761152761155d565b5b50919050565b7f4e487b7100000000000000000000000000000000000000000000000000000000600052601160045260246000fd5b7f4e487b7100000000000000000000000000000000000000000000000000000000600052602260045260246000fd5b6000601f19601f8301169050919050565b6115a681611450565b81146115b157600080fd5b50565b6115bd8161148e565b81146115c857600080fd5b5056fea2646970667358221220c242236a436753e9b620cf6bd5dc16510dd828f50b3e00dbf8fc175c7a7ed31964736f6c63430008000033",
  "immutableReferences": {},
  "source": "// SPDX-License-Identifier: MIT\npragma solidity ^0.8.0;\nimport \"@openzeppelin/contracts/token/ERC20/ERC20.sol\";\n\ncontract VoteCoin is ERC20 {\n    constructor() ERC20(\"VoteCoin\", \"VC\") {\n        _mint(msg.sender,  10);\n    }\n\n    // Funco a ser removida em um contrato de verdade\n    function getTokensForTest() public {\n        require(balanceOf(msg.sender) == 0, \"You already got coins to test!\");\n        _mint(msg.sender,  10);\n    }\n    \n    function getAddress() public view returns(ERC20) {\n        return this;\n    }\n}\n\ncontract TokenGovernance {\n    ERC20 _token;\n    address private owner;\n    uint256 public votersCounter;\n    uint256 public tokenCounter;\n    mapping(address => bool) whoVoted;\n    bool private _finalized;\n    bool private _teste;\n\n    constructor(ERC20 token) {\n        _token = token;\n        votersCounter = 0;\n        tokenCounter = 0;\n        owner = msg.sender;\n    }\n\n    function vote() public {\n        require(!_finalized, \"Pool already ended!\");\n        require(!whoVoted[msg.sender], \"You already voted!\");\n        whoVoted[msg.sender] = true;\n        votersCounter++;\n        tokenCounter += _token.balanceOf(msg.sender);\n    }\n\n    function endVote() public {\n        require(owner == msg.sender, \"You're not the owner!\");\n        require(!_finalized, \"Pool already ended!\");\n        require(votersCounter > 2, \"You need more people to vote!\");\n        require(tokenCounter > 5, \"You need more Tokens in the pool!\");\n        _finalized = true;\n    }\n    \n    function getStatus() public view returns(bool) {\n        return _finalized;\n    }\n\n    function getVoters() public view returns(uint256) {\n        return votersCounter;\n    }\n\n    function getTokens() public view returns(uint256) {\n        return tokenCounter;\n    }\n\n    function hasVoted(address acc) public view returns(bool) {\n        return whoVoted[acc];\n    }\n}",
  "sourcePath": "C:\\Users\\Maulem\\Downloads\\TruffleTest\\src\\contracts\\Governance.sol",
  "compiler": {
    "name": "solc",
    "version": "0.8.0+commit.c7dfd78e.Emscripten.clang"
  },
  "schemaVersion": "3.4.4",
  "updatedAt": "2022-04-21T23:06:46.212Z",
  "networkType": "ethereum",
  "devdoc": {
    "kind": "dev",
    "methods": {
      "allowance(address,address)": {
        "details": "See {IERC20-allowance}."
      },
      "approve(address,uint256)": {
        "details": "See {IERC20-approve}. NOTE: If `amount` is the maximum `uint256`, the allowance is not updated on `transferFrom`. This is semantically equivalent to an infinite approval. Requirements: - `spender` cannot be the zero address."
      },
      "balanceOf(address)": {
        "details": "See {IERC20-balanceOf}."
      },
      "decimals()": {
        "details": "Returns the number of decimals used to get its user representation. For example, if `decimals` equals `2`, a balance of `505` tokens should be displayed to a user as `5.05` (`505 / 10 ** 2`). Tokens usually opt for a value of 18, imitating the relationship between Ether and Wei. This is the value {ERC20} uses, unless this function is overridden; NOTE: This information is only used for _display_ purposes: it in no way affects any of the arithmetic of the contract, including {IERC20-balanceOf} and {IERC20-transfer}."
      },
      "decreaseAllowance(address,uint256)": {
        "details": "Atomically decreases the allowance granted to `spender` by the caller. This is an alternative to {approve} that can be used as a mitigation for problems described in {IERC20-approve}. Emits an {Approval} event indicating the updated allowance. Requirements: - `spender` cannot be the zero address. - `spender` must have allowance for the caller of at least `subtractedValue`."
      },
      "increaseAllowance(address,uint256)": {
        "details": "Atomically increases the allowance granted to `spender` by the caller. This is an alternative to {approve} that can be used as a mitigation for problems described in {IERC20-approve}. Emits an {Approval} event indicating the updated allowance. Requirements: - `spender` cannot be the zero address."
      },
      "name()": {
        "details": "Returns the name of the token."
      },
      "symbol()": {
        "details": "Returns the symbol of the token, usually a shorter version of the name."
      },
      "totalSupply()": {
        "details": "See {IERC20-totalSupply}."
      },
      "transfer(address,uint256)": {
        "details": "See {IERC20-transfer}. Requirements: - `to` cannot be the zero address. - the caller must have a balance of at least `amount`."
      },
      "transferFrom(address,address,uint256)": {
        "details": "See {IERC20-transferFrom}. Emits an {Approval} event indicating the updated allowance. This is not required by the EIP. See the note at the beginning of {ERC20}. NOTE: Does not update the allowance if the current allowance is the maximum `uint256`. Requirements: - `from` and `to` cannot be the zero address. - `from` must have a balance of at least `amount`. - the caller must have allowance for ``from``'s tokens of at least `amount`."
      }
    },
    "version": 1
  },
  "userdoc": {
    "kind": "user",
    "methods": {},
    "version": 1
  }
}