{
  "contractName": "ERC721Capped",
  "abi": [
    {
      "inputs": [
        {
          "internalType": "string",
          "name": "name_",
          "type": "string"
        },
        {
          "internalType": "string",
          "name": "symbol_",
          "type": "string"
        },
        {
          "internalType": "uint64",
          "name": "_cap",
          "type": "uint64"
        }
      ],
      "stateMutability": "nonpayable",
      "type": "constructor"
    },
    {
      "anonymous": false,
      "inputs": [
        {
          "indexed": true,
          "internalType": "address",
          "name": "owner",
          "type": "address"
        },
        {
          "indexed": true,
          "internalType": "address",
          "name": "approved",
          "type": "address"
        },
        {
          "indexed": true,
          "internalType": "uint256",
          "name": "tokenId",
          "type": "uint256"
        }
      ],
      "name": "Approval",
      "type": "event"
    },
    {
      "anonymous": false,
      "inputs": [
        {
          "indexed": true,
          "internalType": "address",
          "name": "owner",
          "type": "address"
        },
        {
          "indexed": true,
          "internalType": "address",
          "name": "operator",
          "type": "address"
        },
        {
          "indexed": false,
          "internalType": "bool",
          "name": "approved",
          "type": "bool"
        }
      ],
      "name": "ApprovalForAll",
      "type": "event"
    },
    {
      "anonymous": false,
      "inputs": [
        {
          "indexed": true,
          "internalType": "address",
          "name": "from",
          "type": "address"
        },
        {
          "indexed": true,
          "internalType": "address",
          "name": "to",
          "type": "address"
        },
        {
          "indexed": true,
          "internalType": "uint256",
          "name": "tokenId",
          "type": "uint256"
        }
      ],
      "name": "Transfer",
      "type": "event"
    },
    {
      "inputs": [
        {
          "internalType": "address",
          "name": "to",
          "type": "address"
        },
        {
          "internalType": "uint256",
          "name": "tokenId",
          "type": "uint256"
        }
      ],
      "name": "approve",
      "outputs": [],
      "stateMutability": "nonpayable",
      "type": "function"
    },
    {
      "inputs": [
        {
          "internalType": "address",
          "name": "owner",
          "type": "address"
        }
      ],
      "name": "balanceOf",
      "outputs": [
        {
          "internalType": "uint256",
          "name": "",
          "type": "uint256"
        }
      ],
      "stateMutability": "view",
      "type": "function",
      "constant": true
    },
    {
      "inputs": [
        {
          "internalType": "uint256",
          "name": "tokenId",
          "type": "uint256"
        }
      ],
      "name": "getApproved",
      "outputs": [
        {
          "internalType": "address",
          "name": "",
          "type": "address"
        }
      ],
      "stateMutability": "view",
      "type": "function",
      "constant": true
    },
    {
      "inputs": [
        {
          "internalType": "address",
          "name": "owner",
          "type": "address"
        },
        {
          "internalType": "address",
          "name": "operator",
          "type": "address"
        }
      ],
      "name": "isApprovedForAll",
      "outputs": [
        {
          "internalType": "bool",
          "name": "",
          "type": "bool"
        }
      ],
      "stateMutability": "view",
      "type": "function",
      "constant": true
    },
    {
      "inputs": [],
      "name": "name",
      "outputs": [
        {
          "internalType": "string",
          "name": "",
          "type": "string"
        }
      ],
      "stateMutability": "view",
      "type": "function",
      "constant": true
    },
    {
      "inputs": [],
      "name": "owner",
      "outputs": [
        {
          "internalType": "address payable",
          "name": "",
          "type": "address"
        }
      ],
      "stateMutability": "view",
      "type": "function",
      "constant": true
    },
    {
      "inputs": [
        {
          "internalType": "uint256",
          "name": "tokenId",
          "type": "uint256"
        }
      ],
      "name": "ownerOf",
      "outputs": [
        {
          "internalType": "address",
          "name": "",
          "type": "address"
        }
      ],
      "stateMutability": "view",
      "type": "function",
      "constant": true
    },
    {
      "inputs": [
        {
          "internalType": "address",
          "name": "from",
          "type": "address"
        },
        {
          "internalType": "address",
          "name": "to",
          "type": "address"
        },
        {
          "internalType": "uint256",
          "name": "tokenId",
          "type": "uint256"
        }
      ],
      "name": "safeTransferFrom",
      "outputs": [],
      "stateMutability": "nonpayable",
      "type": "function"
    },
    {
      "inputs": [
        {
          "internalType": "address",
          "name": "from",
          "type": "address"
        },
        {
          "internalType": "address",
          "name": "to",
          "type": "address"
        },
        {
          "internalType": "uint256",
          "name": "tokenId",
          "type": "uint256"
        },
        {
          "internalType": "bytes",
          "name": "_data",
          "type": "bytes"
        }
      ],
      "name": "safeTransferFrom",
      "outputs": [],
      "stateMutability": "nonpayable",
      "type": "function"
    },
    {
      "inputs": [
        {
          "internalType": "address",
          "name": "operator",
          "type": "address"
        },
        {
          "internalType": "bool",
          "name": "approved",
          "type": "bool"
        }
      ],
      "name": "setApprovalForAll",
      "outputs": [],
      "stateMutability": "nonpayable",
      "type": "function"
    },
    {
      "inputs": [
        {
          "internalType": "bytes4",
          "name": "interfaceId",
          "type": "bytes4"
        }
      ],
      "name": "supportsInterface",
      "outputs": [
        {
          "internalType": "bool",
          "name": "",
          "type": "bool"
        }
      ],
      "stateMutability": "view",
      "type": "function",
      "constant": true
    },
    {
      "inputs": [],
      "name": "symbol",
      "outputs": [
        {
          "internalType": "string",
          "name": "",
          "type": "string"
        }
      ],
      "stateMutability": "view",
      "type": "function",
      "constant": true
    },
    {
      "inputs": [
        {
          "internalType": "uint256",
          "name": "tokenId",
          "type": "uint256"
        }
      ],
      "name": "tokenURI",
      "outputs": [
        {
          "internalType": "string",
          "name": "",
          "type": "string"
        }
      ],
      "stateMutability": "view",
      "type": "function",
      "constant": true
    },
    {
      "inputs": [
        {
          "internalType": "address",
          "name": "from",
          "type": "address"
        },
        {
          "internalType": "address",
          "name": "to",
          "type": "address"
        },
        {
          "internalType": "uint256",
          "name": "tokenId",
          "type": "uint256"
        }
      ],
      "name": "transferFrom",
      "outputs": [],
      "stateMutability": "nonpayable",
      "type": "function"
    },
    {
      "inputs": [],
      "name": "getBalance",
      "outputs": [
        {
          "internalType": "uint256",
          "name": "",
          "type": "uint256"
        }
      ],
      "stateMutability": "view",
      "type": "function",
      "constant": true
    },
    {
      "inputs": [],
      "name": "withdraw",
      "outputs": [],
      "stateMutability": "nonpayable",
      "type": "function"
    },
    {
      "inputs": [
        {
          "internalType": "uint256",
          "name": "valor_",
          "type": "uint256"
        }
      ],
      "name": "setMintPrice",
      "outputs": [],
      "stateMutability": "nonpayable",
      "type": "function"
    },
    {
      "inputs": [],
      "name": "getTotalSupply",
      "outputs": [
        {
          "internalType": "uint256",
          "name": "",
          "type": "uint256"
        }
      ],
      "stateMutability": "view",
      "type": "function",
      "constant": true
    },
    {
      "inputs": [],
      "name": "ownerMint",
      "outputs": [],
      "stateMutability": "nonpayable",
      "type": "function"
    },
    {
      "inputs": [],
      "name": "publicMint",
      "outputs": [],
      "stateMutability": "payable",
      "type": "function",
      "payable": true
    },
    {
      "inputs": [
        {
          "internalType": "uint256",
          "name": "price",
          "type": "uint256"
        }
      ],
      "name": "openSales",
      "outputs": [],
      "stateMutability": "nonpayable",
      "type": "function"
    },
    {
      "inputs": [],
      "name": "closeSales",
      "outputs": [],
      "stateMutability": "nonpayable",
      "type": "function"
    }
  ],
  "bytecode": "0x60806040523480156200001157600080fd5b50604051620030a2380380620030a283398181016040528101906200003791906200023c565b828281600090805190602001906200005192919062000103565b5080600190805190602001906200006a92919062000103565b50505080600660006101000a81548167ffffffffffffffff021916908367ffffffffffffffff16021790555033600660086101000a81548173ffffffffffffffffffffffffffffffffffffffff021916908373ffffffffffffffffffffffffffffffffffffffff16021790555060006009819055506000600860006101000a81548160ff02191690831515021790555050505062000462565b82805462000111906200036d565b90600052602060002090601f01602090048101928262000135576000855562000181565b82601f106200015057805160ff191683800117855562000181565b8280016001018555821562000181579182015b828111156200018057825182559160200191906001019062000163565b5b50905062000190919062000194565b5090565b5b80821115620001af57600081600090555060010162000195565b5090565b6000620001ca620001c484620002ed565b620002c4565b905082815260208101848484011115620001e357600080fd5b620001f084828562000337565b509392505050565b600082601f8301126200020a57600080fd5b81516200021c848260208601620001b3565b91505092915050565b600081519050620002368162000448565b92915050565b6000806000606084860312156200025257600080fd5b600084015167ffffffffffffffff8111156200026d57600080fd5b6200027b86828701620001f8565b935050602084015167ffffffffffffffff8111156200029957600080fd5b620002a786828701620001f8565b9250506040620002ba8682870162000225565b9150509250925092565b6000620002d0620002e3565b9050620002de8282620003a3565b919050565b6000604051905090565b600067ffffffffffffffff8211156200030b576200030a62000408565b5b620003168262000437565b9050602081019050919050565b600067ffffffffffffffff82169050919050565b60005b83811015620003575780820151818401526020810190506200033a565b8381111562000367576000848401525b50505050565b600060028204905060018216806200038657607f821691505b602082108114156200039d576200039c620003d9565b5b50919050565b620003ae8262000437565b810181811067ffffffffffffffff82111715620003d057620003cf62000408565b5b80604052505050565b7f4e487b7100000000000000000000000000000000000000000000000000000000600052602260045260246000fd5b7f4e487b7100000000000000000000000000000000000000000000000000000000600052604160045260246000fd5b6000601f19601f8301169050919050565b620004538162000323565b81146200045f57600080fd5b50565b612c3080620004726000396000f3fe6080604052600436106101355760003560e01c806370a08231116100ab578063b88d4fde1161006f578063b88d4fde146103cd578063c4e41b22146103f6578063c87b56dd14610421578063dd3691e61461045e578063e985e9c514610487578063f4a0a528146104c457610135565b806370a08231146102fa5780638da5cb5b1461033757806395d89b4114610362578063a22cb4651461038d578063b12dc991146103b657610135565b806315a8f073116100fd57806315a8f0731461023357806323b872dd1461024a57806326092b83146102735780633ccfd60b1461027d57806342842e0e146102945780636352211e146102bd57610135565b806301ffc9a71461013a57806306fdde0314610177578063081812fc146101a2578063095ea7b3146101df57806312065fe014610208575b600080fd5b34801561014657600080fd5b50610161600480360381019061015c9190611df6565b6104ed565b60405161016e91906121e0565b60405180910390f35b34801561018357600080fd5b5061018c6105cf565b60405161019991906121fb565b60405180910390f35b3480156101ae57600080fd5b506101c960048036038101906101c49190611e48565b610661565b6040516101d6919061215e565b60405180910390f35b3480156101eb57600080fd5b5061020660048036038101906102019190611dba565b6106e6565b005b34801561021457600080fd5b5061021d6107fe565b60405161022a91906123dd565b60405180910390f35b34801561023f57600080fd5b50610248610806565b005b34801561025657600080fd5b50610271600480360381019061026c9190611cb4565b61087d565b005b61027b6108dd565b005b34801561028957600080fd5b50610292610916565b005b3480156102a057600080fd5b506102bb60048036038101906102b69190611cb4565b6109db565b005b3480156102c957600080fd5b506102e460048036038101906102df9190611e48565b6109fb565b6040516102f1919061215e565b60405180910390f35b34801561030657600080fd5b50610321600480360381019061031c9190611c4f565b610aad565b60405161032e91906123dd565b60405180910390f35b34801561034357600080fd5b5061034c610b65565b6040516103599190612179565b60405180910390f35b34801561036e57600080fd5b50610377610b8b565b60405161038491906121fb565b60405180910390f35b34801561039957600080fd5b506103b460048036038101906103af9190611d7e565b610c1d565b005b3480156103c257600080fd5b506103cb610c33565b005b3480156103d957600080fd5b506103f460048036038101906103ef9190611d03565b610c97565b005b34801561040257600080fd5b5061040b610cf9565b60405161041891906123dd565b60405180910390f35b34801561042d57600080fd5b5061044860048036038101906104439190611e48565b610d03565b60405161045591906121fb565b60405180910390f35b34801561046a57600080fd5b5061048560048036038101906104809190611e48565b610daa565b005b34801561049357600080fd5b506104ae60048036038101906104a99190611c78565b610e2b565b6040516104bb91906121e0565b60405180910390f35b3480156104d057600080fd5b506104eb60048036038101906104e69190611e48565b610ebf565b005b60007f80ac58cd000000000000000000000000000000000000000000000000000000007bffffffffffffffffffffffffffffffffffffffffffffffffffffffff1916827bffffffffffffffffffffffffffffffffffffffffffffffffffffffff191614806105b857507f5b5e139f000000000000000000000000000000000000000000000000000000007bffffffffffffffffffffffffffffffffffffffffffffffffffffffff1916827bffffffffffffffffffffffffffffffffffffffffffffffffffffffff1916145b806105c857506105c782610f23565b5b9050919050565b6060600080546105de90612614565b80601f016020809104026020016040519081016040528092919081815260200182805461060a90612614565b80156106575780601f1061062c57610100808354040283529160200191610657565b820191906000526020600020905b81548152906001019060200180831161063a57829003601f168201915b5050505050905090565b600061066c82610f8d565b6106ab576040517f08c379a00000000000000000000000000000000000000000000000000000000081526004016106a29061235d565b60405180910390fd5b6004600083815260200190815260200160002060009054906101000a900473ffffffffffffffffffffffffffffffffffffffff169050919050565b60006106f1826109fb565b90508073ffffffffffffffffffffffffffffffffffffffff168373ffffffffffffffffffffffffffffffffffffffff161415610762576040517f08c379a00000000000000000000000000000000000000000000000000000000081526004016107599061239d565b60405180910390fd5b8073ffffffffffffffffffffffffffffffffffffffff16610781610ff9565b73ffffffffffffffffffffffffffffffffffffffff1614806107b057506107af816107aa610ff9565b610e2b565b5b6107ef576040517f08c379a00000000000000000000000000000000000000000000000000000000081526004016107e6906122dd565b60405180910390fd5b6107f98383611001565b505050565b600047905090565b600660089054906101000a900473ffffffffffffffffffffffffffffffffffffffff1673ffffffffffffffffffffffffffffffffffffffff163373ffffffffffffffffffffffffffffffffffffffff161461086057600080fd5b6000600860006101000a81548160ff021916908315150217905550565b61088e610888610ff9565b826110ba565b6108cd576040517f08c379a00000000000000000000000000000000000000000000000000000000081526004016108c4906123bd565b60405180910390fd5b6108d8838383611198565b505050565b6007543410156108ec57600080fd5b60011515600860009054906101000a900460ff1615151461090c57600080fd5b6109146113ff565b565b600660089054906101000a900473ffffffffffffffffffffffffffffffffffffffff1673ffffffffffffffffffffffffffffffffffffffff163373ffffffffffffffffffffffffffffffffffffffff161461097057600080fd5b600660089054906101000a900473ffffffffffffffffffffffffffffffffffffffff1673ffffffffffffffffffffffffffffffffffffffff166108fc479081150290604051600060405180830381858888f193505050501580156109d8573d6000803e3d6000fd5b50565b6109f683838360405180602001604052806000815250610c97565b505050565b6000806002600084815260200190815260200160002060009054906101000a900473ffffffffffffffffffffffffffffffffffffffff169050600073ffffffffffffffffffffffffffffffffffffffff168173ffffffffffffffffffffffffffffffffffffffff161415610aa4576040517f08c379a0000000000000000000000000000000000000000000000000000000008152600401610a9b9061231d565b60405180910390fd5b80915050919050565b60008073ffffffffffffffffffffffffffffffffffffffff168273ffffffffffffffffffffffffffffffffffffffff161415610b1e576040517f08c379a0000000000000000000000000000000000000000000000000000000008152600401610b15906122fd565b60405180910390fd5b600360008373ffffffffffffffffffffffffffffffffffffffff1673ffffffffffffffffffffffffffffffffffffffff168152602001908152602001600020549050919050565b600660089054906101000a900473ffffffffffffffffffffffffffffffffffffffff1681565b606060018054610b9a90612614565b80601f0160208091040260200160405190810160405280929190818152602001828054610bc690612614565b8015610c135780601f10610be857610100808354040283529160200191610c13565b820191906000526020600020905b815481529060010190602001808311610bf657829003601f168201915b5050505050905090565b610c2f610c28610ff9565b8383611453565b5050565b600660089054906101000a900473ffffffffffffffffffffffffffffffffffffffff1673ffffffffffffffffffffffffffffffffffffffff163373ffffffffffffffffffffffffffffffffffffffff1614610c8d57600080fd5b610c956113ff565b565b610ca8610ca2610ff9565b836110ba565b610ce7576040517f08c379a0000000000000000000000000000000000000000000000000000000008152600401610cde906123bd565b60405180910390fd5b610cf3848484846115c0565b50505050565b6000600954905090565b6060610d0e82610f8d565b610d4d576040517f08c379a0000000000000000000000000000000000000000000000000000000008152600401610d449061237d565b60405180910390fd5b6000610d5761161c565b90506000815111610d775760405180602001604052806000815250610da2565b80610d8184611633565b604051602001610d9292919061213a565b6040516020818303038152906040525b915050919050565b600660089054906101000a900473ffffffffffffffffffffffffffffffffffffffff1673ffffffffffffffffffffffffffffffffffffffff163373ffffffffffffffffffffffffffffffffffffffff1614610e0457600080fd5b6001600860006101000a81548160ff021916908315150217905550610e2881610ebf565b50565b6000600560008473ffffffffffffffffffffffffffffffffffffffff1673ffffffffffffffffffffffffffffffffffffffff16815260200190815260200160002060008373ffffffffffffffffffffffffffffffffffffffff1673ffffffffffffffffffffffffffffffffffffffff16815260200190815260200160002060009054906101000a900460ff16905092915050565b600660089054906101000a900473ffffffffffffffffffffffffffffffffffffffff1673ffffffffffffffffffffffffffffffffffffffff163373ffffffffffffffffffffffffffffffffffffffff1614610f1957600080fd5b8060078190555050565b60007f01ffc9a7000000000000000000000000000000000000000000000000000000007bffffffffffffffffffffffffffffffffffffffffffffffffffffffff1916827bffffffffffffffffffffffffffffffffffffffffffffffffffffffff1916149050919050565b60008073ffffffffffffffffffffffffffffffffffffffff166002600084815260200190815260200160002060009054906101000a900473ffffffffffffffffffffffffffffffffffffffff1673ffffffffffffffffffffffffffffffffffffffff1614159050919050565b600033905090565b816004600083815260200190815260200160002060006101000a81548173ffffffffffffffffffffffffffffffffffffffff021916908373ffffffffffffffffffffffffffffffffffffffff160217905550808273ffffffffffffffffffffffffffffffffffffffff16611074836109fb565b73ffffffffffffffffffffffffffffffffffffffff167f8c5be1e5ebec7d5bd14f71427d1e84f3dd0314c0f7b2291e5b200ac8c7c3b92560405160405180910390a45050565b60006110c582610f8d565b611104576040517f08c379a00000000000000000000000000000000000000000000000000000000081526004016110fb906122bd565b60405180910390fd5b600061110f836109fb565b90508073ffffffffffffffffffffffffffffffffffffffff168473ffffffffffffffffffffffffffffffffffffffff16148061117e57508373ffffffffffffffffffffffffffffffffffffffff1661116684610661565b73ffffffffffffffffffffffffffffffffffffffff16145b8061118f575061118e8185610e2b565b5b91505092915050565b8273ffffffffffffffffffffffffffffffffffffffff166111b8826109fb565b73ffffffffffffffffffffffffffffffffffffffff161461120e576040517f08c379a00000000000000000000000000000000000000000000000000000000081526004016112059061223d565b60405180910390fd5b600073ffffffffffffffffffffffffffffffffffffffff168273ffffffffffffffffffffffffffffffffffffffff16141561127e576040517f08c379a00000000000000000000000000000000000000000000000000000000081526004016112759061227d565b60405180910390fd5b6112898383836117e0565b611294600082611001565b6001600360008573ffffffffffffffffffffffffffffffffffffffff1673ffffffffffffffffffffffffffffffffffffffff16815260200190815260200160002060008282546112e49190612518565b925050819055506001600360008473ffffffffffffffffffffffffffffffffffffffff1673ffffffffffffffffffffffffffffffffffffffff168152602001908152602001600020600082825461133b9190612491565b92505081905550816002600083815260200190815260200160002060006101000a81548173ffffffffffffffffffffffffffffffffffffffff021916908373ffffffffffffffffffffffffffffffffffffffff160217905550808273ffffffffffffffffffffffffffffffffffffffff168473ffffffffffffffffffffffffffffffffffffffff167fddf252ad1be2c89b69c2b068fc378daa952ba7f163c4a11628f55a4df523b3ef60405160405180910390a46113fa8383836117e5565b505050565b600660009054906101000a900467ffffffffffffffff1667ffffffffffffffff166009541061142d57600080fd5b6009600081548092919061144090612677565b9190505550611451336009546117ea565b565b8173ffffffffffffffffffffffffffffffffffffffff168373ffffffffffffffffffffffffffffffffffffffff1614156114c2576040517f08c379a00000000000000000000000000000000000000000000000000000000081526004016114b99061229d565b60405180910390fd5b80600560008573ffffffffffffffffffffffffffffffffffffffff1673ffffffffffffffffffffffffffffffffffffffff16815260200190815260200160002060008473ffffffffffffffffffffffffffffffffffffffff1673ffffffffffffffffffffffffffffffffffffffff16815260200190815260200160002060006101000a81548160ff0219169083151502179055508173ffffffffffffffffffffffffffffffffffffffff168373ffffffffffffffffffffffffffffffffffffffff167f17307eab39ab6107e8899845ad3d59bd9653f200f220920489ca2b5937696c31836040516115b391906121e0565b60405180910390a3505050565b6115cb848484611198565b6115d7848484846119c4565b611616576040517f08c379a000000000000000000000000000000000000000000000000000000000815260040161160d9061221d565b60405180910390fd5b50505050565b606060405180602001604052806000815250905090565b6060600082141561167b576040518060400160405280600181526020017f300000000000000000000000000000000000000000000000000000000000000081525090506117db565b600082905060005b600082146116ad57808061169690612677565b915050600a826116a691906124e7565b9150611683565b60008167ffffffffffffffff8111156116ef577f4e487b7100000000000000000000000000000000000000000000000000000000600052604160045260246000fd5b6040519080825280601f01601f1916602001820160405280156117215781602001600182028036833780820191505090505b5090505b600085146117d45760018261173a9190612518565b9150600a8561174991906126c0565b60306117559190612491565b60f81b818381518110611791577f4e487b7100000000000000000000000000000000000000000000000000000000600052603260045260246000fd5b60200101907effffffffffffffffffffffffffffffffffffffffffffffffffffffffffffff1916908160001a905350600a856117cd91906124e7565b9450611725565b8093505050505b919050565b505050565b505050565b600073ffffffffffffffffffffffffffffffffffffffff168273ffffffffffffffffffffffffffffffffffffffff16141561185a576040517f08c379a00000000000000000000000000000000000000000000000000000000081526004016118519061233d565b60405180910390fd5b61186381610f8d565b156118a3576040517f08c379a000000000000000000000000000000000000000000000000000000000815260040161189a9061225d565b60405180910390fd5b6118af600083836117e0565b6001600360008473ffffffffffffffffffffffffffffffffffffffff1673ffffffffffffffffffffffffffffffffffffffff16815260200190815260200160002060008282546118ff9190612491565b92505081905550816002600083815260200190815260200160002060006101000a81548173ffffffffffffffffffffffffffffffffffffffff021916908373ffffffffffffffffffffffffffffffffffffffff160217905550808273ffffffffffffffffffffffffffffffffffffffff16600073ffffffffffffffffffffffffffffffffffffffff167fddf252ad1be2c89b69c2b068fc378daa952ba7f163c4a11628f55a4df523b3ef60405160405180910390a46119c0600083836117e5565b5050565b60006119e58473ffffffffffffffffffffffffffffffffffffffff16611b5b565b15611b4e578373ffffffffffffffffffffffffffffffffffffffff1663150b7a02611a0e610ff9565b8786866040518563ffffffff1660e01b8152600401611a309493929190612194565b602060405180830381600087803b158015611a4a57600080fd5b505af1925050508015611a7b57506040513d601f19601f82011682018060405250810190611a789190611e1f565b60015b611afe573d8060008114611aab576040519150601f19603f3d011682016040523d82523d6000602084013e611ab0565b606091505b50600081511415611af6576040517f08c379a0000000000000000000000000000000000000000000000000000000008152600401611aed9061221d565b60405180910390fd5b805181602001fd5b63150b7a0260e01b7bffffffffffffffffffffffffffffffffffffffffffffffffffffffff1916817bffffffffffffffffffffffffffffffffffffffffffffffffffffffff191614915050611b53565b600190505b949350505050565b6000808273ffffffffffffffffffffffffffffffffffffffff163b119050919050565b6000611b91611b8c8461241d565b6123f8565b905082815260208101848484011115611ba957600080fd5b611bb48482856125d2565b509392505050565b600081359050611bcb81612b9e565b92915050565b600081359050611be081612bb5565b92915050565b600081359050611bf581612bcc565b92915050565b600081519050611c0a81612bcc565b92915050565b600082601f830112611c2157600080fd5b8135611c31848260208601611b7e565b91505092915050565b600081359050611c4981612be3565b92915050565b600060208284031215611c6157600080fd5b6000611c6f84828501611bbc565b91505092915050565b60008060408385031215611c8b57600080fd5b6000611c9985828601611bbc565b9250506020611caa85828601611bbc565b9150509250929050565b600080600060608486031215611cc957600080fd5b6000611cd786828701611bbc565b9350506020611ce886828701611bbc565b9250506040611cf986828701611c3a565b9150509250925092565b60008060008060808587031215611d1957600080fd5b6000611d2787828801611bbc565b9450506020611d3887828801611bbc565b9350506040611d4987828801611c3a565b925050606085013567ffffffffffffffff811115611d6657600080fd5b611d7287828801611c10565b91505092959194509250565b60008060408385031215611d9157600080fd5b6000611d9f85828601611bbc565b9250506020611db085828601611bd1565b9150509250929050565b60008060408385031215611dcd57600080fd5b6000611ddb85828601611bbc565b9250506020611dec85828601611c3a565b9150509250929050565b600060208284031215611e0857600080fd5b6000611e1684828501611be6565b91505092915050565b600060208284031215611e3157600080fd5b6000611e3f84828501611bfb565b91505092915050565b600060208284031215611e5a57600080fd5b6000611e6884828501611c3a565b91505092915050565b611e7a8161255e565b82525050565b611e898161254c565b82525050565b611e9881612570565b82525050565b6000611ea98261244e565b611eb38185612464565b9350611ec38185602086016125e1565b611ecc816127ad565b840191505092915050565b6000611ee282612459565b611eec8185612475565b9350611efc8185602086016125e1565b611f05816127ad565b840191505092915050565b6000611f1b82612459565b611f258185612486565b9350611f358185602086016125e1565b80840191505092915050565b6000611f4e603283612475565b9150611f59826127be565b604082019050919050565b6000611f71602583612475565b9150611f7c8261280d565b604082019050919050565b6000611f94601c83612475565b9150611f9f8261285c565b602082019050919050565b6000611fb7602483612475565b9150611fc282612885565b604082019050919050565b6000611fda601983612475565b9150611fe5826128d4565b602082019050919050565b6000611ffd602c83612475565b9150612008826128fd565b604082019050919050565b6000612020603883612475565b915061202b8261294c565b604082019050919050565b6000612043602a83612475565b915061204e8261299b565b604082019050919050565b6000612066602983612475565b9150612071826129ea565b604082019050919050565b6000612089602083612475565b915061209482612a39565b602082019050919050565b60006120ac602c83612475565b91506120b782612a62565b604082019050919050565b60006120cf602f83612475565b91506120da82612ab1565b604082019050919050565b60006120f2602183612475565b91506120fd82612b00565b604082019050919050565b6000612115603183612475565b915061212082612b4f565b604082019050919050565b612134816125c8565b82525050565b60006121468285611f10565b91506121528284611f10565b91508190509392505050565b60006020820190506121736000830184611e80565b92915050565b600060208201905061218e6000830184611e71565b92915050565b60006080820190506121a96000830187611e80565b6121b66020830186611e80565b6121c3604083018561212b565b81810360608301526121d58184611e9e565b905095945050505050565b60006020820190506121f56000830184611e8f565b92915050565b600060208201905081810360008301526122158184611ed7565b905092915050565b6000602082019050818103600083015261223681611f41565b9050919050565b6000602082019050818103600083015261225681611f64565b9050919050565b6000602082019050818103600083015261227681611f87565b9050919050565b6000602082019050818103600083015261229681611faa565b9050919050565b600060208201905081810360008301526122b681611fcd565b9050919050565b600060208201905081810360008301526122d681611ff0565b9050919050565b600060208201905081810360008301526122f681612013565b9050919050565b6000602082019050818103600083015261231681612036565b9050919050565b6000602082019050818103600083015261233681612059565b9050919050565b600060208201905081810360008301526123568161207c565b9050919050565b600060208201905081810360008301526123768161209f565b9050919050565b60006020820190508181036000830152612396816120c2565b9050919050565b600060208201905081810360008301526123b6816120e5565b9050919050565b600060208201905081810360008301526123d681612108565b9050919050565b60006020820190506123f2600083018461212b565b92915050565b6000612402612413565b905061240e8282612646565b919050565b6000604051905090565b600067ffffffffffffffff8211156124385761243761277e565b5b612441826127ad565b9050602081019050919050565b600081519050919050565b600081519050919050565b600082825260208201905092915050565b600082825260208201905092915050565b600081905092915050565b600061249c826125c8565b91506124a7836125c8565b9250827fffffffffffffffffffffffffffffffffffffffffffffffffffffffffffffffff038211156124dc576124db6126f1565b5b828201905092915050565b60006124f2826125c8565b91506124fd836125c8565b92508261250d5761250c612720565b5b828204905092915050565b6000612523826125c8565b915061252e836125c8565b925082821015612541576125406126f1565b5b828203905092915050565b6000612557826125a8565b9050919050565b6000612569826125a8565b9050919050565b60008115159050919050565b60007fffffffff0000000000000000000000000000000000000000000000000000000082169050919050565b600073ffffffffffffffffffffffffffffffffffffffff82169050919050565b6000819050919050565b82818337600083830152505050565b60005b838110156125ff5780820151818401526020810190506125e4565b8381111561260e576000848401525b50505050565b6000600282049050600182168061262c57607f821691505b602082108114156126405761263f61274f565b5b50919050565b61264f826127ad565b810181811067ffffffffffffffff8211171561266e5761266d61277e565b5b80604052505050565b6000612682826125c8565b91507fffffffffffffffffffffffffffffffffffffffffffffffffffffffffffffffff8214156126b5576126b46126f1565b5b600182019050919050565b60006126cb826125c8565b91506126d6836125c8565b9250826126e6576126e5612720565b5b828206905092915050565b7f4e487b7100000000000000000000000000000000000000000000000000000000600052601160045260246000fd5b7f4e487b7100000000000000000000000000000000000000000000000000000000600052601260045260246000fd5b7f4e487b7100000000000000000000000000000000000000000000000000000000600052602260045260246000fd5b7f4e487b7100000000000000000000000000000000000000000000000000000000600052604160045260246000fd5b6000601f19601f8301169050919050565b7f4552433732313a207472616e7366657220746f206e6f6e20455243373231526560008201527f63656976657220696d706c656d656e7465720000000000000000000000000000602082015250565b7f4552433732313a207472616e736665722066726f6d20696e636f72726563742060008201527f6f776e6572000000000000000000000000000000000000000000000000000000602082015250565b7f4552433732313a20746f6b656e20616c7265616479206d696e74656400000000600082015250565b7f4552433732313a207472616e7366657220746f20746865207a65726f2061646460008201527f7265737300000000000000000000000000000000000000000000000000000000602082015250565b7f4552433732313a20617070726f766520746f2063616c6c657200000000000000600082015250565b7f4552433732313a206f70657261746f7220717565727920666f72206e6f6e657860008201527f697374656e7420746f6b656e0000000000000000000000000000000000000000602082015250565b7f4552433732313a20617070726f76652063616c6c6572206973206e6f74206f7760008201527f6e6572206e6f7220617070726f76656420666f7220616c6c0000000000000000602082015250565b7f4552433732313a2062616c616e636520717565727920666f7220746865207a6560008201527f726f206164647265737300000000000000000000000000000000000000000000602082015250565b7f4552433732313a206f776e657220717565727920666f72206e6f6e657869737460008201527f656e7420746f6b656e0000000000000000000000000000000000000000000000602082015250565b7f4552433732313a206d696e7420746f20746865207a65726f2061646472657373600082015250565b7f4552433732313a20617070726f76656420717565727920666f72206e6f6e657860008201527f697374656e7420746f6b656e0000000000000000000000000000000000000000602082015250565b7f4552433732314d657461646174613a2055524920717565727920666f72206e6f60008201527f6e6578697374656e7420746f6b656e0000000000000000000000000000000000602082015250565b7f4552433732313a20617070726f76616c20746f2063757272656e74206f776e6560008201527f7200000000000000000000000000000000000000000000000000000000000000602082015250565b7f4552433732313a207472616e736665722063616c6c6572206973206e6f74206f60008201527f776e6572206e6f7220617070726f766564000000000000000000000000000000602082015250565b612ba78161254c565b8114612bb257600080fd5b50565b612bbe81612570565b8114612bc957600080fd5b50565b612bd58161257c565b8114612be057600080fd5b50565b612bec816125c8565b8114612bf757600080fd5b5056fea2646970667358221220c012bceda5a7a31b682203247b1759dd5d850ba8494b2ceec12224576d916bb964736f6c63430008010033",
  "immutableReferences": {},
  "source": "// SPDX-License-Identifier: MIT\r\npragma solidity >=0.6.0 <0.9.0;\r\n\r\nimport \"@openzeppelin/contracts/token/ERC721/ERC721.sol\";\r\n\r\ncontract ERC721Capped is ERC721 {\r\n    // Variveis\r\n    uint64 cap;\r\n    address payable public owner;\r\n    uint mintprice;\r\n    bool sales;\r\n    uint index;\r\n    constructor(string  memory name_,string memory symbol_ ,uint64  _cap) ERC721 (name_,symbol_)  {\r\n        cap=_cap;\r\n        owner= payable(msg.sender);\r\n        index=0;\r\n        sales=false;\r\n\r\n       \r\n    }\r\n    function getBalance() public view returns(uint256){\r\n        return address(this).balance;\r\n        }\r\n    modifier onlyOwner() {\r\n    require(msg.sender == owner);\r\n    _;\r\n  }\r\n\r\n    function withdraw() public onlyOwner {\r\n            owner.transfer(address(this).balance);\r\n            //Transfer(address(this),owner, address(this).balance);\r\n            \r\n        }\r\n    function setMintPrice(uint valor_) public onlyOwner{\r\n        mintprice=valor_;\r\n    } \r\n    function _createNFT()  internal{\r\n        require(index < cap);\r\n        index++;\r\n        _mint(msg.sender,index);\r\n        \r\n\r\n    }  \r\n    function getTotalSupply() view external returns(uint){\r\n        return index;\r\n    } \r\n    function ownerMint() public onlyOwner{\r\n        _createNFT();\r\n    }\r\n    function publicMint() payable public {\r\n        require(msg.value>=mintprice);\r\n        require(sales==true);\r\n        _createNFT();\r\n    }\r\n    function openSales(uint price) public onlyOwner{\r\n        sales =true;\r\n        setMintPrice(price);\r\n\r\n    }\r\n    function closeSales() public onlyOwner{\r\n        sales=false;\r\n    }\r\n\r\n\r\n\r\n}",
  "sourcePath": "/mnt/c/users/pedro/desktop/4semestre/Blockchain/web3/Truffle-React-Template/src/contracts/ERC721Capped.sol",
  "compiler": {
    "name": "solc",
    "version": "0.8.1+commit.df193b15.Emscripten.clang"
  },
  "schemaVersion": "3.4.7",
  "updatedAt": "2022-06-07T01:26:15.386Z",
  "networkType": "ethereum",
  "devdoc": {
    "kind": "dev",
    "methods": {
      "approve(address,uint256)": {
        "details": "See {IERC721-approve}."
      },
      "balanceOf(address)": {
        "details": "See {IERC721-balanceOf}."
      },
      "getApproved(uint256)": {
        "details": "See {IERC721-getApproved}."
      },
      "isApprovedForAll(address,address)": {
        "details": "See {IERC721-isApprovedForAll}."
      },
      "name()": {
        "details": "See {IERC721Metadata-name}."
      },
      "ownerOf(uint256)": {
        "details": "See {IERC721-ownerOf}."
      },
      "safeTransferFrom(address,address,uint256)": {
        "details": "See {IERC721-safeTransferFrom}."
      },
      "safeTransferFrom(address,address,uint256,bytes)": {
        "details": "See {IERC721-safeTransferFrom}."
      },
      "setApprovalForAll(address,bool)": {
        "details": "See {IERC721-setApprovalForAll}."
      },
      "supportsInterface(bytes4)": {
        "details": "See {IERC165-supportsInterface}."
      },
      "symbol()": {
        "details": "See {IERC721Metadata-symbol}."
      },
      "tokenURI(uint256)": {
        "details": "See {IERC721Metadata-tokenURI}."
      },
      "transferFrom(address,address,uint256)": {
        "details": "See {IERC721-transferFrom}."
      }
    },
    "version": 1
  },
  "userdoc": {
    "kind": "user",
    "methods": {},
    "version": 1
  }
}